{
  "contractName": "CL",
  "abi": [
    {
      "inputs": [],
      "stateMutability": "nonpayable",
      "type": "constructor"
    },
    {
      "inputs": [],
      "name": "defaultPrice",
      "outputs": [
        {
          "internalType": "uint256",
          "name": "",
          "type": "uint256"
        }
      ],
      "stateMutability": "view",
      "type": "function"
    },
    {
      "inputs": [],
      "name": "fee",
      "outputs": [
        {
          "internalType": "uint256",
          "name": "",
          "type": "uint256"
        }
      ],
      "stateMutability": "view",
      "type": "function"
    },
    {
      "inputs": [],
      "name": "greeting",
      "outputs": [
        {
          "internalType": "string",
          "name": "",
          "type": "string"
        }
      ],
      "stateMutability": "view",
      "type": "function"
    },
    {
      "inputs": [],
      "name": "sayHello",
      "outputs": [
        {
          "internalType": "string",
          "name": "",
          "type": "string"
        }
      ],
      "stateMutability": "view",
      "type": "function"
    },
    {
      "inputs": [
        {
          "internalType": "string",
          "name": "_greeting",
          "type": "string"
        }
      ],
      "name": "updateGreeting",
      "outputs": [],
      "stateMutability": "nonpayable",
      "type": "function"
    },
    {
      "inputs": [
        {
          "internalType": "uint64",
          "name": "fee1e32",
          "type": "uint64"
        }
      ],
      "name": "setFee",
      "outputs": [],
      "stateMutability": "nonpayable",
      "type": "function"
    },
    {
      "inputs": [
        {
          "internalType": "string",
          "name": "quad",
          "type": "string"
        }
      ],
      "name": "getQuadFee",
      "outputs": [
        {
          "internalType": "uint256",
          "name": "",
          "type": "uint256"
        }
      ],
      "stateMutability": "nonpayable",
      "type": "function"
    },
    {
      "inputs": [
        {
          "internalType": "string",
          "name": "quad",
          "type": "string"
        }
      ],
      "name": "getQuadCost",
      "outputs": [
        {
          "internalType": "uint256",
          "name": "",
          "type": "uint256"
        }
      ],
      "stateMutability": "nonpayable",
      "type": "function"
    },
    {
      "inputs": [],
      "name": "getFee",
      "outputs": [
        {
          "internalType": "uint256",
          "name": "",
          "type": "uint256"
        }
      ],
      "stateMutability": "nonpayable",
      "type": "function"
    },
    {
      "inputs": [
        {
          "internalType": "string",
          "name": "quad",
          "type": "string"
        }
      ],
      "name": "getParent",
      "outputs": [
        {
          "internalType": "string",
          "name": "",
          "type": "string"
        }
      ],
      "stateMutability": "nonpayable",
      "type": "function"
    },
    {
      "inputs": [
        {
          "internalType": "string",
          "name": "quad",
          "type": "string"
        }
      ],
      "name": "getLand",
      "outputs": [
        {
          "components": [
            {
              "internalType": "address payable",
              "name": "owner",
              "type": "address"
            },
            {
              "internalType": "uint256",
              "name": "price",
              "type": "uint256"
            },
            {
              "internalType": "string",
              "name": "content",
              "type": "string"
            }
          ],
          "internalType": "struct CL.Land",
          "name": "",
          "type": "tuple"
        }
      ],
      "stateMutability": "nonpayable",
      "type": "function"
    },
    {
      "inputs": [
        {
          "internalType": "string",
          "name": "quad",
          "type": "string"
        },
        {
          "internalType": "string",
          "name": "content",
          "type": "string"
        }
      ],
      "name": "setContent",
      "outputs": [
        {
          "components": [
            {
              "internalType": "address payable",
              "name": "owner",
              "type": "address"
            },
            {
              "internalType": "uint256",
              "name": "price",
              "type": "uint256"
            },
            {
              "internalType": "string",
              "name": "content",
              "type": "string"
            }
          ],
          "internalType": "struct CL.Land",
          "name": "",
          "type": "tuple"
        }
      ],
      "stateMutability": "payable",
      "type": "function"
    },
    {
      "inputs": [
        {
          "internalType": "string",
          "name": "quad",
          "type": "string"
        },
        {
          "internalType": "uint256",
          "name": "price",
          "type": "uint256"
        }
      ],
      "name": "setPrice",
      "outputs": [
        {
          "components": [
            {
              "internalType": "address payable",
              "name": "owner",
              "type": "address"
            },
            {
              "internalType": "uint256",
              "name": "price",
              "type": "uint256"
            },
            {
              "internalType": "string",
              "name": "content",
              "type": "string"
            }
          ],
          "internalType": "struct CL.Land",
          "name": "",
          "type": "tuple"
        }
      ],
      "stateMutability": "payable",
      "type": "function"
    },
    {
      "inputs": [
        {
          "internalType": "string",
          "name": "quad",
          "type": "string"
        }
      ],
      "name": "buy",
      "outputs": [],
      "stateMutability": "payable",
      "type": "function"
    },
    {
      "inputs": [
        {
          "internalType": "string",
          "name": "quad",
          "type": "string"
        },
        {
          "internalType": "uint256",
          "name": "i",
          "type": "uint256"
        }
      ],
      "name": "appendS",
      "outputs": [
        {
          "internalType": "string",
          "name": "",
          "type": "string"
        }
      ],
      "stateMutability": "nonpayable",
      "type": "function"
    },
    {
      "inputs": [
        {
          "internalType": "address",
          "name": "o",
          "type": "address"
        }
      ],
      "name": "getProperties",
      "outputs": [
        {
          "internalType": "string[]",
          "name": "",
          "type": "string[]"
        }
      ],
      "stateMutability": "nonpayable",
      "type": "function"
    }
  ],
  "bytecode": "0x6080604052735b38da6a701c568545dcfcb03fcb875f56beddc46000806101000a81548173ffffffffffffffffffffffffffffffffffffffff021916908373ffffffffffffffffffffffffffffffffffffffff1602179055506241893760015560006002556040518060400160405280600581526020017f68656c6c6f00000000000000000000000000000000000000000000000000000081525060039080519060200190620000b1929190620000c6565b50348015620000bf57600080fd5b50620001db565b828054620000d49062000176565b90600052602060002090601f016020900481019282620000f8576000855562000144565b82601f106200011357805160ff191683800117855562000144565b8280016001018555821562000144579182015b828111156200014357825182559160200191906001019062000126565b5b50905062000153919062000157565b5090565b5b808211156200017257600081600090555060010162000158565b5090565b600060028204905060018216806200018f57607f821691505b60208210811415620001a657620001a5620001ac565b5b50919050565b7f4e487b7100000000000000000000000000000000000000000000000000000000600052602260045260246000fd5b611e6580620001eb6000396000f3fe6080604052600436106100f35760003560e01c8063ca10ba4d1161008a578063e69e04b311610059578063e69e04b31461034d578063ebfe1b5714610378578063ef5fb05b146103b5578063ef690cc0146103e0576100f3565b8063ca10ba4d1461027d578063ced72f87146102ba578063ddca3f43146102e5578063e55ffcc114610310576100f3565b8063513fa864116100c6578063513fa864146101aa5780635a630d7a146101e75780636c844a7b14610210578063a5e0dd941461024d576100f3565b8063145591a8146100f857806322e01192146101355780632867cc4414610165578063492cc7691461018e575b600080fd5b34801561010457600080fd5b5061011f600480360381019061011a919061163d565b61040b565b60405161012c91906118c0565b60405180910390f35b61014f600480360381019061014a919061163d565b61055a565b60405161015c91906118e2565b60405180910390f35b34801561017157600080fd5b5061018c6004803603810190610187919061154b565b6107a3565b005b6101a860048036038101906101a39190611590565b6107b9565b005b3480156101b657600080fd5b506101d160048036038101906101cc9190611522565b6109e2565b6040516101de919061189e565b60405180910390f35b3480156101f357600080fd5b5061020e60048036038101906102099190611691565b610afa565b005b34801561021c57600080fd5b5061023760048036038101906102329190611590565b610bd5565b60405161024491906118e2565b60405180910390f35b610267600480360381019061026291906115d1565b610cff565b60405161027491906118e2565b60405180910390f35b34801561028957600080fd5b506102a4600480360381019061029f9190611590565b610f48565b6040516102b19190611904565b60405180910390f35b3480156102c657600080fd5b506102cf610f86565b6040516102dc9190611904565b60405180910390f35b3480156102f157600080fd5b506102fa610f90565b6040516103079190611904565b60405180910390f35b34801561031c57600080fd5b5061033760048036038101906103329190611590565b610f96565b60405161034491906118c0565b60405180910390f35b34801561035957600080fd5b506103626110fc565b60405161036f9190611904565b60405180910390f35b34801561038457600080fd5b5061039f600480360381019061039a9190611590565b611102565b6040516103ac9190611904565b60405180910390f35b3480156103c157600080fd5b506103ca61113e565b6040516103d791906118c0565b60405180910390f35b3480156103ec57600080fd5b506103f56111d0565b60405161040291906118c0565b60405180910390f35b606060006040518060400160405280601081526020017f3031323334353637383961626364656600000000000000000000000000000000815250905060006040518060400160405280600181526020017f300000000000000000000000000000000000000000000000000000000000000081525090508184815181106104ba577f4e487b7100000000000000000000000000000000000000000000000000000000600052603260045260246000fd5b602001015160f81c60f81b816000815181106104ff577f4e487b7100000000000000000000000000000000000000000000000000000000600052603260045260246000fd5b60200101907effffffffffffffffffffffffffffffffffffffffffffffffffffffffffffff1916908160001a905350848160405160200161054192919061187a565b6040516020818303038152906040529250505092915050565b6105626112d1565b3373ffffffffffffffffffffffffffffffffffffffff166004846040516105899190611863565b908152602001604051809103902060000160009054906101000a900473ffffffffffffffffffffffffffffffffffffffff1673ffffffffffffffffffffffffffffffffffffffff16146040518060400160405280601d81526020017f71756164206973206e6f74206f6620796f75722070726f70657274792100000081525090610649576040517f08c379a000000000000000000000000000000000000000000000000000000000815260040161064091906118c0565b60405180910390fd5b506106808360048560405161065e9190611863565b9081526020016040518091039020600101548461067b9190611b2a565b61125e565b6004836040516106909190611863565b90815260200160405180910390206040518060600160405290816000820160009054906101000a900473ffffffffffffffffffffffffffffffffffffffff1673ffffffffffffffffffffffffffffffffffffffff1673ffffffffffffffffffffffffffffffffffffffff1681526020016001820154815260200160028201805461071990611ca0565b80601f016020809104026020016040519081016040528092919081815260200182805461074590611ca0565b80156107925780601f1061076757610100808354040283529160200191610792565b820191906000526020600020905b81548152906001019060200180831161077557829003601f168201915b505050505081525050905092915050565b8181600391906107b4929190611308565b505050565b60006107c482610f48565b9050803410156040518060400160405280601481526020017f696e73756666696369656e7420616d6f756e742100000000000000000000000081525090610841576040517f08c379a000000000000000000000000000000000000000000000000000000000815260040161083891906118c0565b60405180910390fd5b506004826040516108529190611863565b908152602001604051809103902060000160009054906101000a900473ffffffffffffffffffffffffffffffffffffffff1673ffffffffffffffffffffffffffffffffffffffff166108fc6004846040516108ad9190611863565b9081526020016040518091039020600101549081150290604051600060405180830381858888f193505050501580156108ea573d6000803e3d6000fd5b5060008054906101000a900473ffffffffffffffffffffffffffffffffffffffff1673ffffffffffffffffffffffffffffffffffffffff166108fc6004846040516109359190611863565b908152602001604051809103902060010154836109529190611bbe565b9081150290604051600060405180830381858888f1935050505015801561097d573d6000803e3d6000fd5b503360048360405161098f9190611863565b908152602001604051809103902060000160006101000a81548173ffffffffffffffffffffffffffffffffffffffff021916908373ffffffffffffffffffffffffffffffffffffffff1602179055505050565b6060600560008373ffffffffffffffffffffffffffffffffffffffff1673ffffffffffffffffffffffffffffffffffffffff168152602001908152602001600020805480602002602001604051908101604052809291908181526020016000905b82821015610aef578382906000526020600020018054610a6290611ca0565b80601f0160208091040260200160405190810160405280929190818152602001828054610a8e90611ca0565b8015610adb5780601f10610ab057610100808354040283529160200191610adb565b820191906000526020600020905b815481529060010190602001808311610abe57829003601f168201915b505050505081526020019060010190610a43565b505050509050919050565b60008054906101000a900473ffffffffffffffffffffffffffffffffffffffff1673ffffffffffffffffffffffffffffffffffffffff163373ffffffffffffffffffffffffffffffffffffffff16146040518060400160405280601381526020017f696e76616c6964207065726d697373696f6e210000000000000000000000000081525090610bc0576040517f08c379a0000000000000000000000000000000000000000000000000000000008152600401610bb791906118c0565b60405180910390fd5b508067ffffffffffffffff1660018190555050565b610bdd6112d1565b600482604051610bed9190611863565b90815260200160405180910390206040518060600160405290816000820160009054906101000a900473ffffffffffffffffffffffffffffffffffffffff1673ffffffffffffffffffffffffffffffffffffffff1673ffffffffffffffffffffffffffffffffffffffff16815260200160018201548152602001600282018054610c7690611ca0565b80601f0160208091040260200160405190810160405280929190818152602001828054610ca290611ca0565b8015610cef5780601f10610cc457610100808354040283529160200191610cef565b820191906000526020600020905b815481529060010190602001808311610cd257829003601f168201915b5050505050815250509050919050565b610d076112d1565b3373ffffffffffffffffffffffffffffffffffffffff16600484604051610d2e9190611863565b908152602001604051809103902060000160009054906101000a900473ffffffffffffffffffffffffffffffffffffffff1673ffffffffffffffffffffffffffffffffffffffff16146040518060400160405280601d81526020017f71756164206973206e6f74206f6620796f75722070726f70657274792100000081525090610dee576040517f08c379a0000000000000000000000000000000000000000000000000000000008152600401610de591906118c0565b60405180910390fd5b5081600484604051610e009190611863565b90815260200160405180910390206002019080519060200190610e2492919061138e565b50600483604051610e359190611863565b90815260200160405180910390206040518060600160405290816000820160009054906101000a900473ffffffffffffffffffffffffffffffffffffffff1673ffffffffffffffffffffffffffffffffffffffff1673ffffffffffffffffffffffffffffffffffffffff16815260200160018201548152602001600282018054610ebe90611ca0565b80601f0160208091040260200160405190810160405280929190818152602001828054610eea90611ca0565b8015610f375780601f10610f0c57610100808354040283529160200191610f37565b820191906000526020600020905b815481529060010190602001808311610f1a57829003601f168201915b505050505081525050905092915050565b6000610f5382611102565b600483604051610f639190611863565b908152602001604051809103902060010154610f7f9190611a7a565b9050919050565b6000600154905090565b60015481565b60606000829050600060018251610fad9190611bbe565b905060008167ffffffffffffffff811115610ff1577f4e487b7100000000000000000000000000000000000000000000000000000000600052604160045260246000fd5b6040519080825280601f01601f1916602001820160405280156110235781602001600182028036833780820191505090505b50905060005b828110156110f05783818151811061106a577f4e487b7100000000000000000000000000000000000000000000000000000000600052603260045260246000fd5b602001015160f81c60f81b8282815181106110ae577f4e487b7100000000000000000000000000000000000000000000000000000000600052603260045260246000fd5b60200101907effffffffffffffffffffffffffffffffffffffffffffffffffffffffffffff1916908160001a90535080806110e890611d03565b915050611029565b50809350505050919050565b60025481565b600060206001546004846040516111199190611863565b9081526020016040518091039020600101546111359190611ad0565b901c9050919050565b60606003805461114d90611ca0565b80601f016020809104026020016040519081016040528092919081815260200182805461117990611ca0565b80156111c65780601f1061119b576101008083540402835291602001916111c6565b820191906000526020600020905b8154815290600101906020018083116111a957829003601f168201915b5050505050905090565b600380546111dd90611ca0565b80601f016020809104026020016040519081016040528092919081815260200182805461120990611ca0565b80156112565780601f1061122b57610100808354040283529160200191611256565b820191906000526020600020905b81548152906001019060200180831161123957829003601f168201915b505050505081565b8060048360405161126f9190611863565b90815260200160405180910390206001015461128b91906119e6565b60048360405161129b9190611863565b9081526020016040518091039020600101819055506000825111156112cd576112cc6112c683610f96565b8261125e565b5b5050565b6040518060600160405280600073ffffffffffffffffffffffffffffffffffffffff16815260200160008152602001606081525090565b82805461131490611ca0565b90600052602060002090601f016020900481019282611336576000855561137d565b82601f1061134f57803560ff191683800117855561137d565b8280016001018555821561137d579182015b8281111561137c578235825591602001919060010190611361565b5b50905061138a9190611414565b5090565b82805461139a90611ca0565b90600052602060002090601f0160209004810192826113bc5760008555611403565b82601f106113d557805160ff1916838001178555611403565b82800160010185558215611403579182015b828111156114025782518255916020019190600101906113e7565b5b5090506114109190611414565b5090565b5b8082111561142d576000816000905550600101611415565b5090565b600061144461143f84611944565b61191f565b90508281526020810184848401111561145c57600080fd5b611467848285611c5e565b509392505050565b60008135905061147e81611dea565b92915050565b60008083601f84011261149657600080fd5b8235905067ffffffffffffffff8111156114af57600080fd5b6020830191508360018202830111156114c757600080fd5b9250929050565b600082601f8301126114df57600080fd5b81356114ef848260208601611431565b91505092915050565b60008135905061150781611e01565b92915050565b60008135905061151c81611e18565b92915050565b60006020828403121561153457600080fd5b60006115428482850161146f565b91505092915050565b6000806020838503121561155e57600080fd5b600083013567ffffffffffffffff81111561157857600080fd5b61158485828601611484565b92509250509250929050565b6000602082840312156115a257600080fd5b600082013567ffffffffffffffff8111156115bc57600080fd5b6115c8848285016114ce565b91505092915050565b600080604083850312156115e457600080fd5b600083013567ffffffffffffffff8111156115fe57600080fd5b61160a858286016114ce565b925050602083013567ffffffffffffffff81111561162757600080fd5b611633858286016114ce565b9150509250929050565b6000806040838503121561165057600080fd5b600083013567ffffffffffffffff81111561166a57600080fd5b611676858286016114ce565b9250506020611687858286016114f8565b9150509250929050565b6000602082840312156116a357600080fd5b60006116b18482850161150d565b91505092915050565b60006116c68383611752565b905092915050565b6116d781611c04565b82525050565b60006116e882611985565b6116f281856119a8565b93508360208202850161170485611975565b8060005b85811015611740578484038952815161172185826116ba565b945061172c8361199b565b925060208a01995050600181019050611708565b50829750879550505050505092915050565b600061175d82611990565b61176781856119b9565b9350611777818560208601611c6d565b61178081611dd9565b840191505092915050565b600061179682611990565b6117a081856119ca565b93506117b0818560208601611c6d565b6117b981611dd9565b840191505092915050565b60006117cf82611990565b6117d981856119db565b93506117e9818560208601611c6d565b80840191505092915050565b600060608301600083015161180d60008601826116ce565b5060208301516118206020860182611845565b50604083015184820360408601526118388282611752565b9150508091505092915050565b61184e81611c40565b82525050565b61185d81611c40565b82525050565b600061186f82846117c4565b915081905092915050565b600061188682856117c4565b915061189282846117c4565b91508190509392505050565b600060208201905081810360008301526118b881846116dd565b905092915050565b600060208201905081810360008301526118da818461178b565b905092915050565b600060208201905081810360008301526118fc81846117f5565b905092915050565b60006020820190506119196000830184611854565b92915050565b600061192961193a565b90506119358282611cd2565b919050565b6000604051905090565b600067ffffffffffffffff82111561195f5761195e611daa565b5b61196882611dd9565b9050602081019050919050565b6000819050602082019050919050565b600081519050919050565b600081519050919050565b6000602082019050919050565b600082825260208201905092915050565b600082825260208201905092915050565b600082825260208201905092915050565b600081905092915050565b60006119f182611c16565b91506119fc83611c16565b9250817f7fffffffffffffffffffffffffffffffffffffffffffffffffffffffffffffff03831360008312151615611a3757611a36611d4c565b5b817f8000000000000000000000000000000000000000000000000000000000000000038312600083121615611a6f57611a6e611d4c565b5b828201905092915050565b6000611a8582611c40565b9150611a9083611c40565b9250827fffffffffffffffffffffffffffffffffffffffffffffffffffffffffffffffff03821115611ac557611ac4611d4c565b5b828201905092915050565b6000611adb82611c40565b9150611ae683611c40565b9250817fffffffffffffffffffffffffffffffffffffffffffffffffffffffffffffffff0483118215151615611b1f57611b1e611d4c565b5b828202905092915050565b6000611b3582611c16565b9150611b4083611c16565b9250827f800000000000000000000000000000000000000000000000000000000000000001821260008412151615611b7b57611b7a611d4c565b5b827f7fffffffffffffffffffffffffffffffffffffffffffffffffffffffffffffff018213600084121615611bb357611bb2611d4c565b5b828203905092915050565b6000611bc982611c40565b9150611bd483611c40565b925082821015611be757611be6611d4c565b5b828203905092915050565b6000611bfd82611c20565b9050919050565b6000611c0f82611c20565b9050919050565b6000819050919050565b600073ffffffffffffffffffffffffffffffffffffffff82169050919050565b6000819050919050565b600067ffffffffffffffff82169050919050565b82818337600083830152505050565b60005b83811015611c8b578082015181840152602081019050611c70565b83811115611c9a576000848401525b50505050565b60006002820490506001821680611cb857607f821691505b60208210811415611ccc57611ccb611d7b565b5b50919050565b611cdb82611dd9565b810181811067ffffffffffffffff82111715611cfa57611cf9611daa565b5b80604052505050565b6000611d0e82611c40565b91507fffffffffffffffffffffffffffffffffffffffffffffffffffffffffffffffff821415611d4157611d40611d4c565b5b600182019050919050565b7f4e487b7100000000000000000000000000000000000000000000000000000000600052601160045260246000fd5b7f4e487b7100000000000000000000000000000000000000000000000000000000600052602260045260246000fd5b7f4e487b7100000000000000000000000000000000000000000000000000000000600052604160045260246000fd5b6000601f19601f8301169050919050565b611df381611bf2565b8114611dfe57600080fd5b50565b611e0a81611c40565b8114611e1557600080fd5b50565b611e2181611c4a565b8114611e2c57600080fd5b5056fea2646970667358221220baa326337de70270f68a7e98a27967963dfa5e8116f253e73a67fff4c190343b64736f6c63430008040033",
  "immutableReferences": {},
  "source": "// SPDX-License-Identifier: GPL-3.0\n\npragma solidity >=0.7.0 <0.9.0;\n\n/**\n * @title CryptoLand\n * @dev alex\n */\ncontract CL {\n\n    address payable private contractOwner=payable(address(0x5B38Da6a701c568545dCfcB03FcB875f56beddC4));\n    string constant _error_invalid_permission = \"invalid permission!\";\n    string constant _error_invalid_quad = \"invalid quad!\";\n    string constant _error_quad_not_your_property = \"quad is not of your property!\";\n    string constant _error_insufficient_amount=\"insufficient amount!\";\n    uint256 public fee=4294967;//0.1% expressed as range in 2^32 -> 0.001*(1<<32)\n    uint256 public defaultPrice=0;//price of unassigned node\n    \n    string public greeting = \"hello\";\n    function sayHello() external view returns (string memory) {\n        return greeting;\n    }\n\n    function updateGreeting(string calldata _greeting) external {\n        greeting = _greeting;\n    }\n\n    \n    \n    struct Land {\n        address payable owner;\n        uint256 price;\n        string content;\n    }\n    \n    \n    mapping(string=> Land) lands;\n    mapping(address=> string[]) properties;\n    \n    constructor() {\n        /*lands[\"\"].owner=contractOwner;//payable(address(this));\n        lands[\"\"].price=0;\n        lands[\"\"].content=\"\";\n        properties[contractOwner].push(\"\");*/\n    }\n    \n    \n    //contract owner methods\n    function setFee(uint64 fee1e32) public  {\n        require(msg.sender==contractOwner,_error_invalid_permission);\n        fee=fee1e32;\n    }\n    \n\n    function getQuadFee(string memory quad) public returns (uint256)\n    {\n       return (lands[quad].price*fee)>>32;\n    }\n    \n    \n    function getQuadCost(string memory quad) public returns (uint256)\n    {\n       return lands[quad].price+getQuadFee(quad);\n    }\n    \n    function getFee() public returns (uint256) {\n        return fee;\n    }\n\n    function getParent(string memory quad) public returns (string memory)\n    {\n        bytes memory bq= bytes(quad);\n        uint l=bq.length-1;\n        bytes memory result = new bytes(l);\n        for(uint i = 0; i < l; i++) {\n            result[i] = bq[i];\n        }\n        return string(result);\n    }\n    \n   function getLand(string memory quad) public returns (Land memory) {\n       return lands[quad];\n    }\n    \n\n    function setContent(string memory quad,string memory content) public payable returns  (Land memory) {\n        //require(lands[quad].owner!=address(0),_error_invalid_quad);\n        require(lands[quad].owner==msg.sender,_error_quad_not_your_property);\n        lands[quad].content=content;\n        return (lands[quad]);\n    }\n    \n    function setPrice(string memory quad,uint256 price) public payable returns  (Land memory) {\n        //require(lands[quad].owner!=address(0),_error_invalid_quad);\n        require(lands[quad].owner==msg.sender,_error_quad_not_your_property);\n        updatePrice(quad,int256(price)-int256(lands[quad].price));\n        return (lands[quad]);\n    }\n\n    function updatePrice(string memory quad,int256 delta) private{\n        lands[quad].price=uint256(int256(lands[quad].price)+delta);\n        if (bytes(quad).length>0)\n            updatePrice(getParent(quad),delta);\n    }\n\n\n    function buy(string memory quad) public payable  {\n        uint256 cost=getQuadCost(quad);\n        require(msg.value>=cost,_error_insufficient_amount);\n        lands[quad].owner.transfer(lands[quad].price);\n        contractOwner.transfer(cost-lands[quad].price);\n        lands[quad].owner=payable(msg.sender);\n    }\n    \n    \n    \n    function appendS(string memory quad,uint i) public returns (string memory) {\n        bytes memory alphabet = \"0123456789abcdef\";\n        bytes memory s=\"0\";\n        s[0]=alphabet[i];\n       return string(abi.encodePacked(quad,string(s)));\n    }\n    \n    function getProperties(address o) public returns (string[] memory) {\n       return properties[o];\n    }\n\n\n    \n\n}\n",
  "sourcePath": "/home/alex/projetti/CryptoLand/CryptoLand/contracts/cl.sol",
  "compiler": {
    "name": "solc",
    "version": "0.8.4+commit.c7e474f2.Emscripten.clang"
  },
  "schemaVersion": "3.4.1",
  "updatedAt": "2021-06-11T17:40:06.366Z",
  "devdoc": {
    "details": "alex",
    "kind": "dev",
    "methods": {},
    "title": "CryptoLand",
    "version": 1
  },
  "userdoc": {
    "kind": "user",
    "methods": {},
    "version": 1
  }
}