{
  "contractName": "CryptoLand",
  "abi": [
    {
      "inputs": [],
      "stateMutability": "nonpayable",
      "type": "constructor"
    },
    {
      "anonymous": false,
      "inputs": [
        {
          "indexed": false,
          "internalType": "string",
          "name": "quad",
          "type": "string"
        }
      ],
      "name": "BuyEvent",
      "type": "event"
    },
    {
      "inputs": [],
      "name": "fee",
      "outputs": [
        {
          "internalType": "uint256",
          "name": "",
          "type": "uint256"
        }
      ],
      "stateMutability": "view",
      "type": "function",
      "constant": true
    },
    {
      "inputs": [],
      "name": "greeting",
      "outputs": [
        {
          "internalType": "string",
          "name": "",
          "type": "string"
        }
      ],
      "stateMutability": "view",
      "type": "function",
      "constant": true
    },
    {
      "inputs": [],
      "name": "sayHello",
      "outputs": [
        {
          "internalType": "string",
          "name": "",
          "type": "string"
        }
      ],
      "stateMutability": "view",
      "type": "function",
      "constant": true
    },
    {
      "inputs": [
        {
          "internalType": "string",
          "name": "_greeting",
          "type": "string"
        }
      ],
      "name": "updateGreeting",
      "outputs": [],
      "stateMutability": "nonpayable",
      "type": "function"
    },
    {
      "inputs": [
        {
          "internalType": "uint64",
          "name": "fee1e32",
          "type": "uint64"
        }
      ],
      "name": "setFee",
      "outputs": [],
      "stateMutability": "nonpayable",
      "type": "function"
    },
    {
      "inputs": [
        {
          "internalType": "string",
          "name": "quad",
          "type": "string"
        }
      ],
      "name": "buy",
      "outputs": [],
      "stateMutability": "payable",
      "type": "function",
      "payable": true
    },
    {
      "inputs": [
        {
          "internalType": "string",
          "name": "quad",
          "type": "string"
        }
      ],
      "name": "getParent",
      "outputs": [
        {
          "internalType": "string",
          "name": "",
          "type": "string"
        }
      ],
      "stateMutability": "nonpayable",
      "type": "function"
    },
    {
      "inputs": [
        {
          "internalType": "string",
          "name": "quad",
          "type": "string"
        }
      ],
      "name": "getQuad",
      "outputs": [
        {
          "components": [
            {
              "internalType": "address payable",
              "name": "owner",
              "type": "address"
            },
            {
              "internalType": "uint256",
              "name": "price",
              "type": "uint256"
            },
            {
              "internalType": "string",
              "name": "content",
              "type": "string"
            }
          ],
          "internalType": "struct CryptoLand.Land",
          "name": "",
          "type": "tuple"
        }
      ],
      "stateMutability": "nonpayable",
      "type": "function"
    },
    {
      "inputs": [
        {
          "internalType": "string",
          "name": "quad",
          "type": "string"
        }
      ],
      "name": "hello",
      "outputs": [
        {
          "internalType": "string",
          "name": "",
          "type": "string"
        }
      ],
      "stateMutability": "nonpayable",
      "type": "function"
    },
    {
      "inputs": [
        {
          "internalType": "string",
          "name": "quad",
          "type": "string"
        }
      ],
      "name": "getQuadFee",
      "outputs": [
        {
          "internalType": "uint256",
          "name": "",
          "type": "uint256"
        }
      ],
      "stateMutability": "nonpayable",
      "type": "function"
    },
    {
      "inputs": [
        {
          "internalType": "string",
          "name": "quad",
          "type": "string"
        }
      ],
      "name": "getQuadCost",
      "outputs": [
        {
          "internalType": "uint256",
          "name": "",
          "type": "uint256"
        }
      ],
      "stateMutability": "nonpayable",
      "type": "function"
    },
    {
      "inputs": [],
      "name": "getFee",
      "outputs": [
        {
          "internalType": "uint256",
          "name": "",
          "type": "uint256"
        }
      ],
      "stateMutability": "nonpayable",
      "type": "function"
    },
    {
      "inputs": [
        {
          "internalType": "string",
          "name": "quad",
          "type": "string"
        },
        {
          "internalType": "int256",
          "name": "price",
          "type": "int256"
        },
        {
          "internalType": "string",
          "name": "content",
          "type": "string"
        }
      ],
      "name": "setQuad",
      "outputs": [
        {
          "components": [
            {
              "internalType": "address payable",
              "name": "owner",
              "type": "address"
            },
            {
              "internalType": "uint256",
              "name": "price",
              "type": "uint256"
            },
            {
              "internalType": "string",
              "name": "content",
              "type": "string"
            }
          ],
          "internalType": "struct CryptoLand.Land",
          "name": "",
          "type": "tuple"
        }
      ],
      "stateMutability": "nonpayable",
      "type": "function"
    },
    {
      "inputs": [
        {
          "internalType": "string",
          "name": "quad",
          "type": "string"
        },
        {
          "internalType": "string",
          "name": "content",
          "type": "string"
        }
      ],
      "name": "setContent",
      "outputs": [
        {
          "components": [
            {
              "internalType": "address payable",
              "name": "owner",
              "type": "address"
            },
            {
              "internalType": "uint256",
              "name": "price",
              "type": "uint256"
            },
            {
              "internalType": "string",
              "name": "content",
              "type": "string"
            }
          ],
          "internalType": "struct CryptoLand.Land",
          "name": "",
          "type": "tuple"
        }
      ],
      "stateMutability": "nonpayable",
      "type": "function"
    },
    {
      "inputs": [
        {
          "internalType": "string",
          "name": "quad",
          "type": "string"
        },
        {
          "internalType": "int256",
          "name": "price",
          "type": "int256"
        }
      ],
      "name": "setPrice",
      "outputs": [
        {
          "components": [
            {
              "internalType": "address payable",
              "name": "owner",
              "type": "address"
            },
            {
              "internalType": "uint256",
              "name": "price",
              "type": "uint256"
            },
            {
              "internalType": "string",
              "name": "content",
              "type": "string"
            }
          ],
          "internalType": "struct CryptoLand.Land",
          "name": "",
          "type": "tuple"
        }
      ],
      "stateMutability": "nonpayable",
      "type": "function"
    },
    {
      "inputs": [
        {
          "internalType": "string",
          "name": "quad",
          "type": "string"
        }
      ],
      "name": "split",
      "outputs": [
        {
          "components": [
            {
              "internalType": "address payable",
              "name": "owner",
              "type": "address"
            },
            {
              "internalType": "uint256",
              "name": "price",
              "type": "uint256"
            },
            {
              "internalType": "string",
              "name": "content",
              "type": "string"
            }
          ],
          "internalType": "struct CryptoLand.Land",
          "name": "",
          "type": "tuple"
        }
      ],
      "stateMutability": "nonpayable",
      "type": "function"
    },
    {
      "inputs": [
        {
          "internalType": "string",
          "name": "quad",
          "type": "string"
        }
      ],
      "name": "split2",
      "outputs": [
        {
          "components": [
            {
              "internalType": "address payable",
              "name": "owner",
              "type": "address"
            },
            {
              "internalType": "uint256",
              "name": "price",
              "type": "uint256"
            },
            {
              "internalType": "string",
              "name": "content",
              "type": "string"
            }
          ],
          "internalType": "struct CryptoLand.Land",
          "name": "",
          "type": "tuple"
        }
      ],
      "stateMutability": "nonpayable",
      "type": "function"
    },
    {
      "inputs": [
        {
          "internalType": "string",
          "name": "quad",
          "type": "string"
        },
        {
          "internalType": "uint256",
          "name": "i",
          "type": "uint256"
        }
      ],
      "name": "appendS",
      "outputs": [
        {
          "internalType": "string",
          "name": "",
          "type": "string"
        }
      ],
      "stateMutability": "nonpayable",
      "type": "function"
    },
    {
      "inputs": [
        {
          "internalType": "address",
          "name": "o",
          "type": "address"
        }
      ],
      "name": "getProperties",
      "outputs": [
        {
          "internalType": "string[]",
          "name": "",
          "type": "string[]"
        }
      ],
      "stateMutability": "nonpayable",
      "type": "function"
    },
    {
      "inputs": [
        {
          "internalType": "string",
          "name": "quad",
          "type": "string"
        }
      ],
      "name": "getLand",
      "outputs": [
        {
          "components": [
            {
              "internalType": "address payable",
              "name": "owner",
              "type": "address"
            },
            {
              "internalType": "uint256",
              "name": "price",
              "type": "uint256"
            },
            {
              "internalType": "string",
              "name": "content",
              "type": "string"
            }
          ],
          "internalType": "struct CryptoLand.Land",
          "name": "",
          "type": "tuple"
        }
      ],
      "stateMutability": "nonpayable",
      "type": "function"
    }
  ],
  "bytecode": "0x6080604052735b38da6a701c568545dcfcb03fcb875f56beddc46000806101000a81548173ffffffffffffffffffffffffffffffffffffffff021916908373ffffffffffffffffffffffffffffffffffffffff160217905550624189376001556040518060400160405280600581526020017f68656c6c6f00000000000000000000000000000000000000000000000000000081525060029080519060200190620000ac92919062000165565b50348015620000ba57600080fd5b5060008054906101000a900473ffffffffffffffffffffffffffffffffffffffff16600360000160006101000a81548173ffffffffffffffffffffffffffffffffffffffff021916908373ffffffffffffffffffffffffffffffffffffffff16021790555060006003600101819055506040518060600160405280602e8152602001620039dd602e9139600360020190805190602001906200015e92919062000165565b506200027a565b828054620001739062000215565b90600052602060002090601f016020900481019282620001975760008555620001e3565b82601f10620001b257805160ff1916838001178555620001e3565b82800160010185558215620001e3579182015b82811115620001e2578251825591602001919060010190620001c5565b5b509050620001f29190620001f6565b5090565b5b8082111562000211576000816000905550600101620001f7565b5090565b600060028204905060018216806200022e57607f821691505b602082108114156200024557620002446200024b565b5b50919050565b7f4e487b7100000000000000000000000000000000000000000000000000000000600052602260045260246000fd5b613753806200028a6000396000f3fe60806040526004361061011f5760003560e01c8063a777d0dc116100a0578063ddca3f4311610064578063ddca3f431461045c578063e55ffcc114610487578063ebfe1b57146104c4578063ef5fb05b14610501578063ef690cc01461052c5761011f565b8063a777d0dc1461033d578063b502ae461461037a578063ca10ba4d146103b7578063ced72f87146103f4578063da6fdf821461041f5761011f565b8063513fa864116100e7578063513fa864146102205780635a630d7a1461025d5780636c844a7b146102865780638e1b0701146102c3578063a5e0dd94146103005761011f565b8063145591a8146101245780632867cc44146101615780632a7b2c931461018a57806347be8583146101c7578063492cc76914610204575b600080fd5b34801561013057600080fd5b5061014b60048036038101906101469190612cce565b610557565b6040516101589190613065565b60405180910390f35b34801561016d57600080fd5b5061018860048036038101906101839190612b09565b6106a6565b005b34801561019657600080fd5b506101b160048036038101906101ac9190612b4e565b6106bc565b6040516101be9190613087565b60405180910390f35b3480156101d357600080fd5b506101ee60048036038101906101e99190612be3565b610e3f565b6040516101fb9190613087565b60405180910390f35b61021e60048036038101906102199190612b4e565b6111af565b005b34801561022c57600080fd5b5061024760048036038101906102429190612ae0565b61149e565b6040516102549190613043565b60405180910390f35b34801561026957600080fd5b50610284600480360381019061027f9190612d22565b6115b6565b005b34801561029257600080fd5b506102ad60048036038101906102a89190612b4e565b611691565b6040516102ba9190613087565b60405180910390f35b3480156102cf57600080fd5b506102ea60048036038101906102e59190612b4e565b6117bb565b6040516102f79190613087565b60405180910390f35b34801561030c57600080fd5b5061032760048036038101906103229190612c62565b611a29565b6040516103349190613087565b60405180910390f35b34801561034957600080fd5b50610364600480360381019061035f9190612b4e565b611d5c565b6040516103719190613065565b60405180910390f35b34801561038657600080fd5b506103a1600480360381019061039c9190612b4e565b611d9b565b6040516103ae9190613087565b60405180910390f35b3480156103c357600080fd5b506103de60048036038101906103d99190612b4e565b612268565b6040516103eb91906130a9565b60405180910390f35b34801561040057600080fd5b506104096122a6565b60405161041691906130a9565b60405180910390f35b34801561042b57600080fd5b5061044660048036038101906104419190612b8f565b6122b0565b6040516104539190613087565b60405180910390f35b34801561046857600080fd5b506104716124ff565b60405161047e91906130a9565b60405180910390f35b34801561049357600080fd5b506104ae60048036038101906104a99190612b4e565b612505565b6040516104bb9190613065565b60405180910390f35b3480156104d057600080fd5b506104eb60048036038101906104e69190612b4e565b61266b565b6040516104f891906130a9565b60405180910390f35b34801561050d57600080fd5b506105166126a7565b6040516105239190613065565b60405180910390f35b34801561053857600080fd5b50610541612739565b60405161054e9190613065565b60405180910390f35b606060006040518060400160405280601081526020017f3031323334353637383961626364656600000000000000000000000000000000815250905060006040518060400160405280600181526020017f30000000000000000000000000000000000000000000000000000000000000008152509050818481518110610606577f4e487b7100000000000000000000000000000000000000000000000000000000600052603260045260246000fd5b602001015160f81c60f81b8160008151811061064b577f4e487b7100000000000000000000000000000000000000000000000000000000600052603260045260246000fd5b60200101907effffffffffffffffffffffffffffffffffffffffffffffffffffffffffffff1916908160001a905350848160405160200161068d929190612f97565b6040516020818303038152906040529250505092915050565b8181600291906106b792919061283a565b505050565b6106c46128c0565b600073ffffffffffffffffffffffffffffffffffffffff166006836040516106ec9190612f80565b908152602001604051809103902060000160009054906101000a900473ffffffffffffffffffffffffffffffffffffffff1673ffffffffffffffffffffffffffffffffffffffff1614156040518060400160405280600d81526020017f696e76616c696420717561642100000000000000000000000000000000000000815250906107ad576040517f08c379a00000000000000000000000000000000000000000000000000000000081526004016107a49190613065565b60405180910390fd5b503373ffffffffffffffffffffffffffffffffffffffff166006836040516107d59190612f80565b908152602001604051809103902060000160009054906101000a900473ffffffffffffffffffffffffffffffffffffffff1673ffffffffffffffffffffffffffffffffffffffff16146040518060400160405280601d81526020017f71756164206973206e6f74206f6620796f75722070726f70657274792100000081525090610895576040517f08c379a000000000000000000000000000000000000000000000000000000000815260040161088c9190613065565b60405180910390fd5b5061089e6128c0565b6006836040516108ae9190612f80565b908152602001604051809103902060000160009054906101000a900473ffffffffffffffffffffffffffffffffffffffff16816000019073ffffffffffffffffffffffffffffffffffffffff16908173ffffffffffffffffffffffffffffffffffffffff168152505060046006846040516109299190612f80565b9081526020016040518091039020600101546109459190613275565b81602001818152505060068360405161095e9190612f80565b9081526020016040518091039020600201805461097a90613476565b80601f01602080910402602001604051908101604052809291908181526020018280546109a690613476565b80156109f35780601f106109c8576101008083540402835291602001916109f3565b820191906000526020600020905b8154815290600101906020018083116109d657829003601f168201915b5050505050816040018190525080600684604051602001610a149190613021565b604051602081830303815290604052604051610a309190612f80565b908152602001604051809103902060008201518160000160006101000a81548173ffffffffffffffffffffffffffffffffffffffff021916908373ffffffffffffffffffffffffffffffffffffffff160217905550602082015181600101556040820151816002019080519060200190610aab9291906128f7565b5090505080600684604051602001610ac39190612fdd565b604051602081830303815290604052604051610adf9190612f80565b908152602001604051809103902060008201518160000160006101000a81548173ffffffffffffffffffffffffffffffffffffffff021916908373ffffffffffffffffffffffffffffffffffffffff160217905550602082015181600101556040820151816002019080519060200190610b5a9291906128f7565b5090505080600684604051602001610b729190612fbb565b604051602081830303815290604052604051610b8e9190612f80565b908152602001604051809103902060008201518160000160006101000a81548173ffffffffffffffffffffffffffffffffffffffff021916908373ffffffffffffffffffffffffffffffffffffffff160217905550602082015181600101556040820151816002019080519060200190610c099291906128f7565b5090505080600684604051602001610c219190612fff565b604051602081830303815290604052604051610c3d9190612f80565b908152602001604051809103902060008201518160000160006101000a81548173ffffffffffffffffffffffffffffffffffffffff021916908373ffffffffffffffffffffffffffffffffffffffff160217905550602082015181600101556040820151816002019080519060200190610cb89291906128f7565b50905050600683604051610ccc9190612f80565b9081526020016040518091039020600080820160006101000a81549073ffffffffffffffffffffffffffffffffffffffff02191690556001820160009055600282016000610d1a919061297d565b5050600683604051610d2c9190612f80565b90815260200160405180910390206040518060600160405290816000820160009054906101000a900473ffffffffffffffffffffffffffffffffffffffff1673ffffffffffffffffffffffffffffffffffffffff1673ffffffffffffffffffffffffffffffffffffffff16815260200160018201548152602001600282018054610db590613476565b80601f0160208091040260200160405190810160405280929190818152602001828054610de190613476565b8015610e2e5780601f10610e0357610100808354040283529160200191610e2e565b820191906000526020600020905b815481529060010190602001808311610e1157829003601f168201915b505050505081525050915050919050565b610e476128c0565b600073ffffffffffffffffffffffffffffffffffffffff16600685604051610e6f9190612f80565b908152602001604051809103902060000160009054906101000a900473ffffffffffffffffffffffffffffffffffffffff1673ffffffffffffffffffffffffffffffffffffffff1614156040518060400160405280600d81526020017f696e76616c69642071756164210000000000000000000000000000000000000081525090610f30576040517f08c379a0000000000000000000000000000000000000000000000000000000008152600401610f279190613065565b60405180910390fd5b503373ffffffffffffffffffffffffffffffffffffffff16600685604051610f589190612f80565b908152602001604051809103902060000160009054906101000a900473ffffffffffffffffffffffffffffffffffffffff1673ffffffffffffffffffffffffffffffffffffffff16146040518060400160405280601d81526020017f71756164206973206e6f74206f6620796f75722070726f70657274792100000081525090611018576040517f08c379a000000000000000000000000000000000000000000000000000000000815260040161100f9190613065565b60405180910390fd5b50600060068560405161102b9190612f80565b908152602001604051809103902060010154846110489190613300565b905061105485826127c7565b826006866040516110659190612f80565b908152602001604051809103902060020190805190602001906110899291906128f7565b5060068560405161109a9190612f80565b90815260200160405180910390206040518060600160405290816000820160009054906101000a900473ffffffffffffffffffffffffffffffffffffffff1673ffffffffffffffffffffffffffffffffffffffff1673ffffffffffffffffffffffffffffffffffffffff1681526020016001820154815260200160028201805461112390613476565b80601f016020809104026020016040519081016040528092919081815260200182805461114f90613476565b801561119c5780601f106111715761010080835404028352916020019161119c565b820191906000526020600020905b81548152906001019060200180831161117f57829003601f168201915b5050505050815250509150509392505050565b60006111ba82612268565b90508034146040518060400160405280601481526020017f696e73756666696369656e7420616d6f756e742100000000000000000000000081525090611236576040517f08c379a000000000000000000000000000000000000000000000000000000000815260040161122d9190613065565b60405180910390fd5b506006826040516112479190612f80565b908152602001604051809103902060000160009054906101000a900473ffffffffffffffffffffffffffffffffffffffff1673ffffffffffffffffffffffffffffffffffffffff166108fc6006846040516112a29190612f80565b9081526020016040518091039020600101549081150290604051600060405180830381858888f193505050501580156112df573d6000803e3d6000fd5b5060008054906101000a900473ffffffffffffffffffffffffffffffffffffffff1673ffffffffffffffffffffffffffffffffffffffff166108fc60068460405161132a9190612f80565b908152602001604051809103902060010154836113479190613394565b9081150290604051600060405180830381858888f19350505050158015611372573d6000803e3d6000fd5b50336006836040516113849190612f80565b908152602001604051809103902060000160006101000a81548173ffffffffffffffffffffffffffffffffffffffff021916908373ffffffffffffffffffffffffffffffffffffffff16021790555060006006836040516113e59190612f80565b9081526020016040518091039020600201805461140190613476565b90501415611458576040518060600160405280602e81526020016136f0602e91396006836040516114329190612f80565b908152602001604051809103902060020190805190602001906114569291906128f7565b505b6114638260006127c7565b7fc81149a7bc4f4f826d5574f07223c9674a867fb41a50420756f01f962bece5a6826040516114929190613065565b60405180910390a15050565b6060600760008373ffffffffffffffffffffffffffffffffffffffff1673ffffffffffffffffffffffffffffffffffffffff168152602001908152602001600020805480602002602001604051908101604052809291908181526020016000905b828210156115ab57838290600052602060002001805461151e90613476565b80601f016020809104026020016040519081016040528092919081815260200182805461154a90613476565b80156115975780601f1061156c57610100808354040283529160200191611597565b820191906000526020600020905b81548152906001019060200180831161157a57829003601f168201915b5050505050815260200190600101906114ff565b505050509050919050565b60008054906101000a900473ffffffffffffffffffffffffffffffffffffffff1673ffffffffffffffffffffffffffffffffffffffff163373ffffffffffffffffffffffffffffffffffffffff16146040518060400160405280601381526020017f696e76616c6964207065726d697373696f6e21000000000000000000000000008152509061167c576040517f08c379a00000000000000000000000000000000000000000000000000000000081526004016116739190613065565b60405180910390fd5b508067ffffffffffffffff1660018190555050565b6116996128c0565b6006826040516116a99190612f80565b90815260200160405180910390206040518060600160405290816000820160009054906101000a900473ffffffffffffffffffffffffffffffffffffffff1673ffffffffffffffffffffffffffffffffffffffff1673ffffffffffffffffffffffffffffffffffffffff1681526020016001820154815260200160028201805461173290613476565b80601f016020809104026020016040519081016040528092919081815260200182805461175e90613476565b80156117ab5780601f10611780576101008083540402835291602001916117ab565b820191906000526020600020905b81548152906001019060200180831161178e57829003601f168201915b5050505050815250509050919050565b6117c36128c0565b60006006836040516117d59190612f80565b90815260200160405180910390206040518060600160405290816000820160009054906101000a900473ffffffffffffffffffffffffffffffffffffffff1673ffffffffffffffffffffffffffffffffffffffff1673ffffffffffffffffffffffffffffffffffffffff1681526020016001820154815260200160028201805461185e90613476565b80601f016020809104026020016040519081016040528092919081815260200182805461188a90613476565b80156118d75780601f106118ac576101008083540402835291602001916118d7565b820191906000526020600020905b8154815290600101906020018083116118ba57829003601f168201915b5050505050815250509050600073ffffffffffffffffffffffffffffffffffffffff16816000015173ffffffffffffffffffffffffffffffffffffffff161415611a1f5760036040518060600160405290816000820160009054906101000a900473ffffffffffffffffffffffffffffffffffffffff1673ffffffffffffffffffffffffffffffffffffffff1673ffffffffffffffffffffffffffffffffffffffff1681526020016001820154815260200160028201805461199890613476565b80601f01602080910402602001604051908101604052809291908181526020018280546119c490613476565b8015611a115780601f106119e657610100808354040283529160200191611a11565b820191906000526020600020905b8154815290600101906020018083116119f457829003601f168201915b505050505081525050611a21565b805b915050919050565b611a316128c0565b600073ffffffffffffffffffffffffffffffffffffffff16600684604051611a599190612f80565b908152602001604051809103902060000160009054906101000a900473ffffffffffffffffffffffffffffffffffffffff1673ffffffffffffffffffffffffffffffffffffffff1614156040518060400160405280600d81526020017f696e76616c69642071756164210000000000000000000000000000000000000081525090611b1a576040517f08c379a0000000000000000000000000000000000000000000000000000000008152600401611b119190613065565b60405180910390fd5b503373ffffffffffffffffffffffffffffffffffffffff16600684604051611b429190612f80565b908152602001604051809103902060000160009054906101000a900473ffffffffffffffffffffffffffffffffffffffff1673ffffffffffffffffffffffffffffffffffffffff16146040518060400160405280601d81526020017f71756164206973206e6f74206f6620796f75722070726f70657274792100000081525090611c02576040517f08c379a0000000000000000000000000000000000000000000000000000000008152600401611bf99190613065565b60405180910390fd5b5081600684604051611c149190612f80565b90815260200160405180910390206002019080519060200190611c389291906128f7565b50600683604051611c499190612f80565b90815260200160405180910390206040518060600160405290816000820160009054906101000a900473ffffffffffffffffffffffffffffffffffffffff1673ffffffffffffffffffffffffffffffffffffffff1673ffffffffffffffffffffffffffffffffffffffff16815260200160018201548152602001600282018054611cd290613476565b80601f0160208091040260200160405190810160405280929190818152602001828054611cfe90613476565b8015611d4b5780601f10611d2057610100808354040283529160200191611d4b565b820191906000526020600020905b815481529060010190602001808311611d2e57829003601f168201915b505050505081525050905092915050565b60606040518060400160405280600581526020017f68656c6c6f0000000000000000000000000000000000000000000000000000008152509050919050565b611da36128c0565b60006040518060400160405280601081526020017f3031323334353637383961626364656600000000000000000000000000000000815250905060006040518060400160405280600181526020017f300000000000000000000000000000000000000000000000000000000000000081525090506000600685604051611e299190612f80565b90815260200160405180910390206040518060600160405290816000820160009054906101000a900473ffffffffffffffffffffffffffffffffffffffff1673ffffffffffffffffffffffffffffffffffffffff1673ffffffffffffffffffffffffffffffffffffffff16815260200160018201548152602001600282018054611eb290613476565b80601f0160208091040260200160405190810160405280929190818152602001828054611ede90613476565b8015611f2b5780601f10611f0057610100808354040283529160200191611f2b565b820191906000526020600020905b815481529060010190602001808311611f0e57829003601f168201915b505050505081525050905060006004600687604051611f4a9190612f80565b908152602001604051809103902060010154611f669190613275565b905060005b601081101561214157611f7c6128c0565b8360000151816000019073ffffffffffffffffffffffffffffffffffffffff16908173ffffffffffffffffffffffffffffffffffffffff16815250508281602001818152505083604001518160400181905250858281518110612008577f4e487b7100000000000000000000000000000000000000000000000000000000600052603260045260246000fd5b602001015160f81c60f81b8560008151811061204d577f4e487b7100000000000000000000000000000000000000000000000000000000600052603260045260246000fd5b60200101907effffffffffffffffffffffffffffffffffffffffffffffffffffffffffffff1916908160001a9053508060068987604051602001612092929190612f97565b6040516020818303038152906040526040516120ae9190612f80565b908152602001604051809103902060008201518160000160006101000a81548173ffffffffffffffffffffffffffffffffffffffff021916908373ffffffffffffffffffffffffffffffffffffffff1602179055506020820151816001015560408201518160020190805190602001906121299291906128f7565b50905050508080612139906134d9565b915050611f6b565b506006866040516121529190612f80565b90815260200160405180910390206040518060600160405290816000820160009054906101000a900473ffffffffffffffffffffffffffffffffffffffff1673ffffffffffffffffffffffffffffffffffffffff1673ffffffffffffffffffffffffffffffffffffffff168152602001600182015481526020016002820180546121db90613476565b80601f016020809104026020016040519081016040528092919081815260200182805461220790613476565b80156122545780601f1061222957610100808354040283529160200191612254565b820191906000526020600020905b81548152906001019060200180831161223757829003601f168201915b505050505081525050945050505050919050565b60006122738261266b565b6006836040516122839190612f80565b90815260200160405180910390206001015461229f919061321f565b9050919050565b6000600154905090565b6122b86128c0565b3373ffffffffffffffffffffffffffffffffffffffff166006846040516122df9190612f80565b908152602001604051809103902060000160009054906101000a900473ffffffffffffffffffffffffffffffffffffffff1673ffffffffffffffffffffffffffffffffffffffff16146040518060400160405280601d81526020017f71756164206973206e6f74206f6620796f75722070726f7065727479210000008152509061239f576040517f08c379a00000000000000000000000000000000000000000000000000000000081526004016123969190613065565b60405180910390fd5b5060006006846040516123b29190612f80565b908152602001604051809103902060010154836123cf9190613300565b90506123db84826127c7565b6006846040516123eb9190612f80565b90815260200160405180910390206040518060600160405290816000820160009054906101000a900473ffffffffffffffffffffffffffffffffffffffff1673ffffffffffffffffffffffffffffffffffffffff1673ffffffffffffffffffffffffffffffffffffffff1681526020016001820154815260200160028201805461247490613476565b80601f01602080910402602001604051908101604052809291908181526020018280546124a090613476565b80156124ed5780601f106124c2576101008083540402835291602001916124ed565b820191906000526020600020905b8154815290600101906020018083116124d057829003601f168201915b50505050508152505091505092915050565b60015481565b6060600082905060006001825161251c9190613394565b905060008167ffffffffffffffff811115612560577f4e487b7100000000000000000000000000000000000000000000000000000000600052604160045260246000fd5b6040519080825280601f01601f1916602001820160405280156125925781602001600182028036833780820191505090505b50905060005b8281101561265f578381815181106125d9577f4e487b7100000000000000000000000000000000000000000000000000000000600052603260045260246000fd5b602001015160f81c60f81b82828151811061261d577f4e487b7100000000000000000000000000000000000000000000000000000000600052603260045260246000fd5b60200101907effffffffffffffffffffffffffffffffffffffffffffffffffffffffffffff1916908160001a9053508080612657906134d9565b915050612598565b50809350505050919050565b600060206001546006846040516126829190612f80565b90815260200160405180910390206001015461269e91906132a6565b901c9050919050565b6060600280546126b690613476565b80601f01602080910402602001604051908101604052809291908181526020018280546126e290613476565b801561272f5780601f106127045761010080835404028352916020019161272f565b820191906000526020600020905b81548152906001019060200180831161271257829003601f168201915b5050505050905090565b6002805461274690613476565b80601f016020809104026020016040519081016040528092919081815260200182805461277290613476565b80156127bf5780601f10612794576101008083540402835291602001916127bf565b820191906000526020600020905b8154815290600101906020018083116127a257829003601f168201915b505050505081565b806006836040516127d89190612f80565b9081526020016040518091039020600101546127f4919061318b565b6006836040516128049190612f80565b9081526020016040518091039020600101819055506000825111156128365761283561282f83612505565b826127c7565b5b5050565b82805461284690613476565b90600052602060002090601f01602090048101928261286857600085556128af565b82601f1061288157803560ff19168380011785556128af565b828001600101855582156128af579182015b828111156128ae578235825591602001919060010190612893565b5b5090506128bc91906129bd565b5090565b6040518060600160405280600073ffffffffffffffffffffffffffffffffffffffff16815260200160008152602001606081525090565b82805461290390613476565b90600052602060002090601f016020900481019282612925576000855561296c565b82601f1061293e57805160ff191683800117855561296c565b8280016001018555821561296c579182015b8281111561296b578251825591602001919060010190612950565b5b50905061297991906129bd565b5090565b50805461298990613476565b6000825580601f1061299b57506129ba565b601f0160209004906000526020600020908101906129b991906129bd565b5b50565b5b808211156129d65760008160009055506001016129be565b5090565b60006129ed6129e8846130e9565b6130c4565b905082815260208101848484011115612a0557600080fd5b612a10848285613434565b509392505050565b600081359050612a2781613693565b92915050565b600081359050612a3c816136aa565b92915050565b60008083601f840112612a5457600080fd5b8235905067ffffffffffffffff811115612a6d57600080fd5b602083019150836001820283011115612a8557600080fd5b9250929050565b600082601f830112612a9d57600080fd5b8135612aad8482602086016129da565b91505092915050565b600081359050612ac5816136c1565b92915050565b600081359050612ada816136d8565b92915050565b600060208284031215612af257600080fd5b6000612b0084828501612a18565b91505092915050565b60008060208385031215612b1c57600080fd5b600083013567ffffffffffffffff811115612b3657600080fd5b612b4285828601612a42565b92509250509250929050565b600060208284031215612b6057600080fd5b600082013567ffffffffffffffff811115612b7a57600080fd5b612b8684828501612a8c565b91505092915050565b60008060408385031215612ba257600080fd5b600083013567ffffffffffffffff811115612bbc57600080fd5b612bc885828601612a8c565b9250506020612bd985828601612a2d565b9150509250929050565b600080600060608486031215612bf857600080fd5b600084013567ffffffffffffffff811115612c1257600080fd5b612c1e86828701612a8c565b9350506020612c2f86828701612a2d565b925050604084013567ffffffffffffffff811115612c4c57600080fd5b612c5886828701612a8c565b9150509250925092565b60008060408385031215612c7557600080fd5b600083013567ffffffffffffffff811115612c8f57600080fd5b612c9b85828601612a8c565b925050602083013567ffffffffffffffff811115612cb857600080fd5b612cc485828601612a8c565b9150509250929050565b60008060408385031215612ce157600080fd5b600083013567ffffffffffffffff811115612cfb57600080fd5b612d0785828601612a8c565b9250506020612d1885828601612ab6565b9150509250929050565b600060208284031215612d3457600080fd5b6000612d4284828501612acb565b91505092915050565b6000612d578383612de3565b905092915050565b612d68816133da565b82525050565b6000612d798261312a565b612d83818561314d565b935083602082028501612d958561311a565b8060005b85811015612dd15784840389528151612db28582612d4b565b9450612dbd83613140565b925060208a01995050600181019050612d99565b50829750879550505050505092915050565b6000612dee82613135565b612df8818561315e565b9350612e08818560208601613443565b612e11816135de565b840191505092915050565b6000612e2782613135565b612e31818561316f565b9350612e41818560208601613443565b612e4a816135de565b840191505092915050565b6000612e6082613135565b612e6a8185613180565b9350612e7a818560208601613443565b80840191505092915050565b6000612e93600283613180565b9150612e9e826135ef565b600282019050919050565b6000612eb6600283613180565b9150612ec182613618565b600282019050919050565b6000612ed9600283613180565b9150612ee482613641565b600282019050919050565b6000612efc600283613180565b9150612f078261366a565b600282019050919050565b6000606083016000830151612f2a6000860182612d5f565b506020830151612f3d6020860182612f62565b5060408301518482036040860152612f558282612de3565b9150508091505092915050565b612f6b81613416565b82525050565b612f7a81613416565b82525050565b6000612f8c8284612e55565b915081905092915050565b6000612fa38285612e55565b9150612faf8284612e55565b91508190509392505050565b6000612fc78284612e55565b9150612fd282612e86565b915081905092915050565b6000612fe98284612e55565b9150612ff482612ea9565b915081905092915050565b600061300b8284612e55565b915061301682612ecc565b915081905092915050565b600061302d8284612e55565b915061303882612eef565b915081905092915050565b6000602082019050818103600083015261305d8184612d6e565b905092915050565b6000602082019050818103600083015261307f8184612e1c565b905092915050565b600060208201905081810360008301526130a18184612f12565b905092915050565b60006020820190506130be6000830184612f71565b92915050565b60006130ce6130df565b90506130da82826134a8565b919050565b6000604051905090565b600067ffffffffffffffff821115613104576131036135af565b5b61310d826135de565b9050602081019050919050565b6000819050602082019050919050565b600081519050919050565b600081519050919050565b6000602082019050919050565b600082825260208201905092915050565b600082825260208201905092915050565b600082825260208201905092915050565b600081905092915050565b6000613196826133ec565b91506131a1836133ec565b9250817f7fffffffffffffffffffffffffffffffffffffffffffffffffffffffffffffff038313600083121516156131dc576131db613522565b5b817f800000000000000000000000000000000000000000000000000000000000000003831260008312161561321457613213613522565b5b828201905092915050565b600061322a82613416565b915061323583613416565b9250827fffffffffffffffffffffffffffffffffffffffffffffffffffffffffffffffff0382111561326a57613269613522565b5b828201905092915050565b600061328082613416565b915061328b83613416565b92508261329b5761329a613551565b5b828204905092915050565b60006132b182613416565b91506132bc83613416565b9250817fffffffffffffffffffffffffffffffffffffffffffffffffffffffffffffffff04831182151516156132f5576132f4613522565b5b828202905092915050565b600061330b826133ec565b9150613316836133ec565b9250827f80000000000000000000000000000000000000000000000000000000000000000182126000841215161561335157613350613522565b5b827f7fffffffffffffffffffffffffffffffffffffffffffffffffffffffffffffff01821360008412161561338957613388613522565b5b828203905092915050565b600061339f82613416565b91506133aa83613416565b9250828210156133bd576133bc613522565b5b828203905092915050565b60006133d3826133f6565b9050919050565b60006133e5826133f6565b9050919050565b6000819050919050565b600073ffffffffffffffffffffffffffffffffffffffff82169050919050565b6000819050919050565b600067ffffffffffffffff82169050919050565b82818337600083830152505050565b60005b83811015613461578082015181840152602081019050613446565b83811115613470576000848401525b50505050565b6000600282049050600182168061348e57607f821691505b602082108114156134a2576134a1613580565b5b50919050565b6134b1826135de565b810181811067ffffffffffffffff821117156134d0576134cf6135af565b5b80604052505050565b60006134e482613416565b91507fffffffffffffffffffffffffffffffffffffffffffffffffffffffffffffffff82141561351757613516613522565b5b600182019050919050565b7f4e487b7100000000000000000000000000000000000000000000000000000000600052601160045260246000fd5b7f4e487b7100000000000000000000000000000000000000000000000000000000600052601260045260246000fd5b7f4e487b7100000000000000000000000000000000000000000000000000000000600052602260045260246000fd5b7f4e487b7100000000000000000000000000000000000000000000000000000000600052604160045260246000fd5b6000601f19601f8301169050919050565b7f3130000000000000000000000000000000000000000000000000000000000000600082015250565b7f3031000000000000000000000000000000000000000000000000000000000000600082015250565b7f3131000000000000000000000000000000000000000000000000000000000000600082015250565b7f3030000000000000000000000000000000000000000000000000000000000000600082015250565b61369c816133c8565b81146136a757600080fd5b50565b6136b3816133ec565b81146136be57600080fd5b50565b6136ca81613416565b81146136d557600080fd5b50565b6136e181613420565b81146136ec57600080fd5b5056fe516d5957664c44756e5833363969414632344d7751344c734e4c6a364c3735735561796a59337643457a645a434aa26469706673582212208b170f3595bfebc5d116e6a2d2eeead8c966a2df424cea038d901f0028593e4964736f6c63430008040033516d5957664c44756e5833363969414632344d7751344c734e4c6a364c3735735561796a59337643457a645a434a",
  "immutableReferences": {},
  "source": "// SPDX-License-Identifier: GPL-3.0\n\npragma solidity >=0.7.0 <0.9.0;\n\n/**\n * @title CryptoLand\n * @dev alex\n */\ncontract CryptoLand {\n\n    address payable private contractOwner=payable(address(0x5B38Da6a701c568545dCfcB03FcB875f56beddC4));\n    string constant _error_invalid_permission = \"invalid permission!\";\n    string constant _error_invalid_quad = \"invalid quad!\";\n    string constant _error_quad_not_your_property = \"quad is not of your property!\";\n    string constant _error_insufficient_amount=\"insufficient amount!\";\n    uint256 public fee=4294967;//0.1% expressed as range in 2^32 -> 0.001*(1<<32)\n    string constant hashLogo = \"QmYWfLDunX369iAF24MwQ4LsNLj6L75sUayjY3vCEzdZCJ\";\n    \n    string public greeting = \"hello\";\n    function sayHello() external view returns (string memory) {\n        return greeting;\n    }\n\n    function updateGreeting(string calldata _greeting) external {\n        greeting = _greeting;\n    }\n\n    \n    struct Land {\n        address payable owner;\n        uint256 price;\n        string content;\n    }\n\n    Land landDefault;\n    \n    \n    \n    mapping(string=> Land) lands;\n    mapping(address=> string[]) properties;\n    \n    constructor() {\n        /*\n        lands[\"\"].owner=contractOwner;//payable(address(this));\n        lands[\"\"].price=1000000000000000000;\n        lands[\"\"].content=\"\";\n        properties[contractOwner].push(\"\");\n        */\n\n        landDefault.owner=contractOwner;\n        landDefault.price=0;\n        landDefault.content=hashLogo;\n    }\n    \n    \n    //contract owner methods\n    function setFee(uint64 fee1e32) public  {\n        require(msg.sender==contractOwner,_error_invalid_permission);\n        fee=fee1e32;\n    }\n    \n    event BuyEvent(string quad);\n\n    //public methods\n    function buy(string memory quad) public payable  {\n        //require(lands[quad].owner!=address(0),_error_invalid_quad);\n        uint256 cost=getQuadCost(quad);\n        require(msg.value==cost,_error_insufficient_amount);\n        lands[quad].owner.transfer(lands[quad].price);\n        contractOwner.transfer(cost-lands[quad].price);\n        lands[quad].owner=payable(msg.sender);\n        if (bytes(lands[quad].content).length == 0)\n            lands[quad].content=hashLogo;\n        updatePrice(quad,0);\n        emit BuyEvent(quad);\n    }\n\n    function getParent(string memory quad) public returns (string memory)\n    {\n        bytes memory bq= bytes(quad);\n        uint l=bq.length-1;\n        bytes memory result = new bytes(l);\n        for(uint i = 0; i < l; i++) {\n            result[i] = bq[i];\n        }\n        return string(result);\n    }\n    \n    function updatePrice(string memory quad,int256 delta) private{\n        lands[quad].price=uint256(int256(lands[quad].price)+delta);\n        if (bytes(quad).length>0)\n            updatePrice(getParent(quad),delta);\n    }\n\n    \n    \n    function getQuad(string memory quad) public returns (Land memory) {\n        //require(lands[quad].owner!=address(0),_error_invalid_quad);\n        Land memory l=lands[quad];\n        return l.owner!=address(0)?l:landDefault;\n    }\n\n    function hello(string memory quad) public returns (string memory) {\n        return (\"hello\");\n    }\n\n    function getQuadFee(string memory quad) public returns (uint256)\n    {\n       return (lands[quad].price*fee)>>32;\n    }\n    \n    \n    function getQuadCost(string memory quad) public returns (uint256)\n    {\n       return lands[quad].price+getQuadFee(quad);\n    }\n    \n    function getFee() public returns (uint256) {\n        return fee;\n    }\n\n    function setQuad(string memory quad,int256 price,string memory content) public returns  (Land memory) {\n        require(lands[quad].owner!=address(0),_error_invalid_quad);\n        require(lands[quad].owner==msg.sender,_error_quad_not_your_property);\n        int256 delta=int256(price)-int256(lands[quad].price);\n        updatePrice(quad,delta);\n        lands[quad].content=content;\n        return (lands[quad]);\n    }\n    \n    //land owner methods\n    function setContent(string memory quad,string memory content) public returns  (Land memory) {\n        require(lands[quad].owner!=address(0),_error_invalid_quad);\n        require(lands[quad].owner==msg.sender,_error_quad_not_your_property);\n        lands[quad].content=content;\n        return (lands[quad]);\n    }\n    \n    function setPrice(string memory quad,int256 price) public returns  (Land memory) {\n        //require(lands[quad].owner!=address(0),_error_invalid_quad);\n        require(lands[quad].owner==msg.sender,_error_quad_not_your_property);\n        int256 delta=int256(price)-int256(lands[quad].price);\n        updatePrice(quad,delta);\n        return (lands[quad]);\n    }\n    \n    function split(string memory quad) public returns (Land memory) {\n        require(lands[quad].owner!=address(0),_error_invalid_quad);\n        require(lands[quad].owner==msg.sender,_error_quad_not_your_property);\n        Land memory l;\n        l.owner=lands[quad].owner;\n        l.price=lands[quad].price/4;\n        l.content=lands[quad].content;\n        lands[string(abi.encodePacked(quad,\"00\"))]=l;\n        lands[string(abi.encodePacked(quad,\"01\"))]=l;\n        lands[string(abi.encodePacked(quad,\"10\"))]=l;\n        lands[string(abi.encodePacked(quad,\"11\"))]=l;\n        delete lands[quad];\n        return (lands[quad]);\n    }\n    \n    function split2(string memory quad) public  returns (Land memory) {\n        bytes memory alphabet = \"0123456789abcdef\";\n        bytes memory s=\"0\";\n\n        Land memory lp=lands[quad];\n        uint price=lands[quad].price/4;\n        for (uint i=0; i<16; i++) {\n            Land memory l;\n            l.owner=lp.owner;\n            l.price=price;\n            l.content=lp.content;\n            s[0]=alphabet[i];\n            lands[string(abi.encodePacked(quad,string(s)))]=l;\n        }\n        return (lands[quad]);\n    }\n    \n    \n    function appendS(string memory quad,uint i) public returns (string memory) {\n        bytes memory alphabet = \"0123456789abcdef\";\n        bytes memory s=\"0\";\n        s[0]=alphabet[i];\n       return string(abi.encodePacked(quad,string(s)));\n    }\n    \n    function getProperties(address o) public returns (string[] memory) {\n       return properties[o];\n    }\n\n   function getLand(string memory quad) public returns (Land memory) {\n       return lands[quad];\n    }\n}",
  "sourcePath": "/home/alex/projetti/CryptoLand/CryptoLand/contracts/CryptoLand.sol",
  "compiler": {
    "name": "solc",
    "version": "0.8.4+commit.c7e474f2.Emscripten.clang"
  },
  "schemaVersion": "3.4.1",
  "updatedAt": "2021-06-11T23:37:20.998Z",
  "networkType": "ethereum",
  "devdoc": {
    "details": "alex",
    "kind": "dev",
    "methods": {},
    "title": "CryptoLand",
    "version": 1
  },
  "userdoc": {
    "kind": "user",
    "methods": {},
    "version": 1
  }
}