{
  "contractName": "CryptoLand",
  "abi": [
    {
      "inputs": [],
      "stateMutability": "nonpayable",
      "type": "constructor"
    },
    {
      "inputs": [],
      "name": "fee",
      "outputs": [
        {
          "internalType": "uint256",
          "name": "",
          "type": "uint256"
        }
      ],
      "stateMutability": "view",
      "type": "function",
      "constant": true
    },
    {
      "inputs": [],
      "name": "greeting",
      "outputs": [
        {
          "internalType": "string",
          "name": "",
          "type": "string"
        }
      ],
      "stateMutability": "view",
      "type": "function",
      "constant": true
    },
    {
      "inputs": [],
      "name": "sayHello",
      "outputs": [
        {
          "internalType": "string",
          "name": "",
          "type": "string"
        }
      ],
      "stateMutability": "view",
      "type": "function",
      "constant": true
    },
    {
      "inputs": [
        {
          "internalType": "string",
          "name": "_greeting",
          "type": "string"
        }
      ],
      "name": "updateGreeting",
      "outputs": [],
      "stateMutability": "nonpayable",
      "type": "function"
    },
    {
      "inputs": [
        {
          "internalType": "uint64",
          "name": "fee1e32",
          "type": "uint64"
        }
      ],
      "name": "setFee",
      "outputs": [],
      "stateMutability": "nonpayable",
      "type": "function"
    },
    {
      "inputs": [
        {
          "internalType": "string",
          "name": "quad",
          "type": "string"
        }
      ],
      "name": "buy",
      "outputs": [],
      "stateMutability": "payable",
      "type": "function",
      "payable": true
    },
    {
      "inputs": [
        {
          "internalType": "string",
          "name": "quad",
          "type": "string"
        }
      ],
      "name": "lookup",
      "outputs": [
        {
          "internalType": "address",
          "name": "",
          "type": "address"
        },
        {
          "internalType": "string",
          "name": "",
          "type": "string"
        },
        {
          "internalType": "uint256",
          "name": "",
          "type": "uint256"
        },
        {
          "internalType": "uint256",
          "name": "",
          "type": "uint256"
        }
      ],
      "stateMutability": "nonpayable",
      "type": "function"
    },
    {
      "inputs": [
        {
          "internalType": "string",
          "name": "quad",
          "type": "string"
        }
      ],
      "name": "getCost",
      "outputs": [
        {
          "internalType": "uint256",
          "name": "",
          "type": "uint256"
        }
      ],
      "stateMutability": "nonpayable",
      "type": "function"
    },
    {
      "inputs": [],
      "name": "getFee",
      "outputs": [
        {
          "internalType": "uint256",
          "name": "",
          "type": "uint256"
        }
      ],
      "stateMutability": "nonpayable",
      "type": "function"
    },
    {
      "inputs": [
        {
          "internalType": "string",
          "name": "quad",
          "type": "string"
        }
      ],
      "name": "getFee",
      "outputs": [
        {
          "internalType": "uint256",
          "name": "",
          "type": "uint256"
        }
      ],
      "stateMutability": "nonpayable",
      "type": "function"
    },
    {
      "inputs": [],
      "name": "getFeeTest",
      "outputs": [
        {
          "internalType": "string",
          "name": "",
          "type": "string"
        }
      ],
      "stateMutability": "view",
      "type": "function",
      "constant": true
    },
    {
      "inputs": [
        {
          "internalType": "string",
          "name": "quad",
          "type": "string"
        },
        {
          "internalType": "string",
          "name": "name",
          "type": "string"
        }
      ],
      "name": "setName",
      "outputs": [
        {
          "internalType": "address",
          "name": "",
          "type": "address"
        },
        {
          "internalType": "uint256",
          "name": "",
          "type": "uint256"
        },
        {
          "internalType": "string",
          "name": "",
          "type": "string"
        }
      ],
      "stateMutability": "nonpayable",
      "type": "function"
    },
    {
      "inputs": [
        {
          "internalType": "string",
          "name": "quad",
          "type": "string"
        },
        {
          "internalType": "uint32",
          "name": "price",
          "type": "uint32"
        }
      ],
      "name": "setPrice",
      "outputs": [
        {
          "internalType": "address",
          "name": "",
          "type": "address"
        },
        {
          "internalType": "uint256",
          "name": "",
          "type": "uint256"
        },
        {
          "internalType": "string",
          "name": "",
          "type": "string"
        }
      ],
      "stateMutability": "nonpayable",
      "type": "function"
    },
    {
      "inputs": [
        {
          "internalType": "string",
          "name": "quad",
          "type": "string"
        }
      ],
      "name": "split",
      "outputs": [
        {
          "internalType": "address",
          "name": "",
          "type": "address"
        },
        {
          "internalType": "uint256",
          "name": "",
          "type": "uint256"
        },
        {
          "internalType": "string",
          "name": "",
          "type": "string"
        }
      ],
      "stateMutability": "nonpayable",
      "type": "function"
    }
  ],
  "bytecode": "0x6080604052735b38da6a701c568545dcfcb03fcb875f56beddc46000806101000a81548173ffffffffffffffffffffffffffffffffffffffff021916908373ffffffffffffffffffffffffffffffffffffffff160217905550624189376001556040518060400160405280600581526020017f68656c6c6f00000000000000000000000000000000000000000000000000000081525060029080519060200190620000ac929190620001dc565b50348015620000ba57600080fd5b5060008054906101000a900473ffffffffffffffffffffffffffffffffffffffff166003604051620000ec90620002b3565b908152602001604051809103902060000160006101000a81548173ffffffffffffffffffffffffffffffffffffffff021916908373ffffffffffffffffffffffffffffffffffffffff160217905550670de0b6b3a764000060036040516200015490620002b3565b9081526020016040518091039020600101819055506040518060400160405280600681526020017f676c6f62616c00000000000000000000000000000000000000000000000000008152506003604051620001af90620002b3565b90815260200160405180910390206002019080519060200190620001d5929190620001dc565b506200033d565b828054620001ea90620002d5565b90600052602060002090601f0160209004810192826200020e57600085556200025a565b82601f106200022957805160ff19168380011785556200025a565b828001600101855582156200025a579182015b82811115620002595782518255916020019190600101906200023c565b5b5090506200026991906200026d565b5090565b5b80821115620002885760008160009055506001016200026e565b5090565b60006200029b600083620002ca565b9150620002a8826200033a565b600082019050919050565b6000620002c0826200028c565b9150819050919050565b600081905092915050565b60006002820490506001821680620002ee57607f821691505b602082108114156200030557620003046200030b565b5b50919050565b7f4e487b7100000000000000000000000000000000000000000000000000000000600052602260045260246000fd5b50565b6124c0806200034d6000396000f3fe6080604052600436106100dd5760003560e01c80639ca3c29c1161007f578063ed1eee6811610059578063ed1eee68146102cb578063ef5fb05b14610308578063ef690cc014610333578063f67187ac1461035e576100dd565b80639ca3c29c14610238578063ced72f8714610275578063ddca3f43146102a0576100dd565b8063492cc769116100bb578063492cc769146101755780635a630d7a146101915780635c707f07146101ba578063883deb0f146101f9576100dd565b80632297e7c7146100e25780632867cc441461010d5780632a7b2c9314610136575b600080fd5b3480156100ee57600080fd5b506100f761039e565b6040516101049190612017565b60405180910390f35b34801561011957600080fd5b50610134600480360381019061012f9190611c6b565b610430565b005b34801561014257600080fd5b5061015d60048036038101906101589190611cb0565b610446565b60405161016c93929190611fd9565b60405180910390f35b61018f600480360381019061018a9190611cb0565b610bc2565b005b34801561019d57600080fd5b506101b860048036038101906101b39190611db1565b610f04565b005b3480156101c657600080fd5b506101e160048036038101906101dc9190611cf1565b610fdf565b6040516101f093929190611fd9565b60405180910390f35b34801561020557600080fd5b50610220600480360381019061021b9190611d5d565b61130a565b60405161022f93929190611fd9565b60405180910390f35b34801561024457600080fd5b5061025f600480360381019061025a9190611cb0565b61162b565b60405161026c9190612039565b60405180910390f35b34801561028157600080fd5b5061028a611669565b6040516102979190612039565b60405180910390f35b3480156102ac57600080fd5b506102b5611673565b6040516102c29190612039565b60405180910390f35b3480156102d757600080fd5b506102f260048036038101906102ed9190611cb0565b611679565b6040516102ff9190612039565b60405180910390f35b34801561031457600080fd5b5061031d6116b5565b60405161032a9190612017565b60405180910390f35b34801561033f57600080fd5b50610348611747565b6040516103559190612017565b60405180910390f35b34801561036a57600080fd5b5061038560048036038101906103809190611cb0565b6117d5565b6040516103959493929190611f8d565b60405180910390f35b6060600280546103ad90612288565b80601f01602080910402602001604051908101604052809291908181526020018280546103d990612288565b80156104265780601f106103fb57610100808354040283529160200191610426565b820191906000526020600020905b81548152906001019060200180831161040957829003601f168201915b5050505050905090565b8181600291906104419291906119ef565b505050565b6000806060600073ffffffffffffffffffffffffffffffffffffffff166003856040516104739190611eee565b908152602001604051809103902060000160009054906101000a900473ffffffffffffffffffffffffffffffffffffffff1673ffffffffffffffffffffffffffffffffffffffff1614156040518060400160405280600d81526020017f696e76616c69642071756164210000000000000000000000000000000000000081525090610534576040517f08c379a000000000000000000000000000000000000000000000000000000000815260040161052b9190612017565b60405180910390fd5b503373ffffffffffffffffffffffffffffffffffffffff1660038560405161055c9190611eee565b908152602001604051809103902060000160009054906101000a900473ffffffffffffffffffffffffffffffffffffffff1673ffffffffffffffffffffffffffffffffffffffff16146040518060400160405280601d81526020017f71756164206973206e6f74206f6620796f75722070726f7065727479210000008152509061061c576040517f08c379a00000000000000000000000000000000000000000000000000000000081526004016106139190612017565b60405180910390fd5b50610625611a75565b6003856040516106359190611eee565b908152602001604051809103902060000160009054906101000a900473ffffffffffffffffffffffffffffffffffffffff16816000019073ffffffffffffffffffffffffffffffffffffffff16908173ffffffffffffffffffffffffffffffffffffffff168152505060046003866040516106b09190611eee565b9081526020016040518091039020600101546106cc9190612127565b8160200181815250506003856040516106e59190611eee565b9081526020016040518091039020600201805461070190612288565b80601f016020809104026020016040519081016040528092919081815260200182805461072d90612288565b801561077a5780601f1061074f5761010080835404028352916020019161077a565b820191906000526020600020905b81548152906001019060200180831161075d57829003601f168201915b505050505081604001819052508060038660405160200161079b9190611f6b565b6040516020818303038152906040526040516107b79190611eee565b908152602001604051809103902060008201518160000160006101000a81548173ffffffffffffffffffffffffffffffffffffffff021916908373ffffffffffffffffffffffffffffffffffffffff160217905550602082015181600101556040820151816002019080519060200190610832929190611aac565b509050508060038660405160200161084a9190611f27565b6040516020818303038152906040526040516108669190611eee565b908152602001604051809103902060008201518160000160006101000a81548173ffffffffffffffffffffffffffffffffffffffff021916908373ffffffffffffffffffffffffffffffffffffffff1602179055506020820151816001015560408201518160020190805190602001906108e1929190611aac565b50905050806003866040516020016108f99190611f05565b6040516020818303038152906040526040516109159190611eee565b908152602001604051809103902060008201518160000160006101000a81548173ffffffffffffffffffffffffffffffffffffffff021916908373ffffffffffffffffffffffffffffffffffffffff160217905550602082015181600101556040820151816002019080519060200190610990929190611aac565b50905050806003866040516020016109a89190611f49565b6040516020818303038152906040526040516109c49190611eee565b908152602001604051809103902060008201518160000160006101000a81548173ffffffffffffffffffffffffffffffffffffffff021916908373ffffffffffffffffffffffffffffffffffffffff160217905550602082015181600101556040820151816002019080519060200190610a3f929190611aac565b50905050600385604051610a539190611eee565b9081526020016040518091039020600080820160006101000a81549073ffffffffffffffffffffffffffffffffffffffff02191690556001820160009055600282016000610aa19190611b32565b5050600385604051610ab39190611eee565b908152602001604051809103902060000160009054906101000a900473ffffffffffffffffffffffffffffffffffffffff16600386604051610af59190611eee565b908152602001604051809103902060010154600387604051610b179190611eee565b9081526020016040518091039020600201808054610b3490612288565b80601f0160208091040260200160405190810160405280929190818152602001828054610b6090612288565b8015610bad5780601f10610b8257610100808354040283529160200191610bad565b820191906000526020600020905b815481529060010190602001808311610b9057829003601f168201915b50505050509050935093509350509193909250565b600073ffffffffffffffffffffffffffffffffffffffff16600382604051610bea9190611eee565b908152602001604051809103902060000160009054906101000a900473ffffffffffffffffffffffffffffffffffffffff1673ffffffffffffffffffffffffffffffffffffffff1614156040518060400160405280600d81526020017f696e76616c69642071756164210000000000000000000000000000000000000081525090610cab576040517f08c379a0000000000000000000000000000000000000000000000000000000008152600401610ca29190612017565b60405180910390fd5b50610cb58161162b565b34116040518060400160405280601481526020017f696e73756666696369656e7420616d6f756e742100000000000000000000000081525090610d2e576040517f08c379a0000000000000000000000000000000000000000000000000000000008152600401610d259190612017565b60405180910390fd5b50600381604051610d3f9190611eee565b908152602001604051809103902060000160009054906101000a900473ffffffffffffffffffffffffffffffffffffffff1673ffffffffffffffffffffffffffffffffffffffff166108fc600383604051610d9a9190611eee565b9081526020016040518091039020600101549081150290604051600060405180830381858888f19350505050158015610dd7573d6000803e3d6000fd5b5060008054906101000a900473ffffffffffffffffffffffffffffffffffffffff1673ffffffffffffffffffffffffffffffffffffffff166108fc610e1b83611679565b9081150290604051600060405180830381858888f19350505050158015610e46573d6000803e3d6000fd5b503373ffffffffffffffffffffffffffffffffffffffff166108fc610e6a8361162b565b34610e7591906121b2565b9081150290604051600060405180830381858888f19350505050158015610ea0573d6000803e3d6000fd5b5033600382604051610eb29190611eee565b908152602001604051809103902060000160006101000a81548173ffffffffffffffffffffffffffffffffffffffff021916908373ffffffffffffffffffffffffffffffffffffffff16021790555050565b60008054906101000a900473ffffffffffffffffffffffffffffffffffffffff1673ffffffffffffffffffffffffffffffffffffffff163373ffffffffffffffffffffffffffffffffffffffff16146040518060400160405280601381526020017f696e76616c6964207065726d697373696f6e210000000000000000000000000081525090610fca576040517f08c379a0000000000000000000000000000000000000000000000000000000008152600401610fc19190612017565b60405180910390fd5b508067ffffffffffffffff1660018190555050565b6000806060600073ffffffffffffffffffffffffffffffffffffffff1660038660405161100c9190611eee565b908152602001604051809103902060000160009054906101000a900473ffffffffffffffffffffffffffffffffffffffff1673ffffffffffffffffffffffffffffffffffffffff1614156040518060400160405280600d81526020017f696e76616c696420717561642100000000000000000000000000000000000000815250906110cd576040517f08c379a00000000000000000000000000000000000000000000000000000000081526004016110c49190612017565b60405180910390fd5b503373ffffffffffffffffffffffffffffffffffffffff166003866040516110f59190611eee565b908152602001604051809103902060000160009054906101000a900473ffffffffffffffffffffffffffffffffffffffff1673ffffffffffffffffffffffffffffffffffffffff16146040518060400160405280601d81526020017f71756164206973206e6f74206f6620796f75722070726f706572747921000000815250906111b5576040517f08c379a00000000000000000000000000000000000000000000000000000000081526004016111ac9190612017565b60405180910390fd5b50836003866040516111c79190611eee565b908152602001604051809103902060020190805190602001906111eb929190611aac565b506003856040516111fc9190611eee565b908152602001604051809103902060000160009054906101000a900473ffffffffffffffffffffffffffffffffffffffff1660038660405161123e9190611eee565b9081526020016040518091039020600101546003876040516112609190611eee565b908152602001604051809103902060020180805461127d90612288565b80601f01602080910402602001604051908101604052809291908181526020018280546112a990612288565b80156112f65780601f106112cb576101008083540402835291602001916112f6565b820191906000526020600020905b8154815290600101906020018083116112d957829003601f168201915b505050505090509250925092509250925092565b6000806060600073ffffffffffffffffffffffffffffffffffffffff166003866040516113379190611eee565b908152602001604051809103902060000160009054906101000a900473ffffffffffffffffffffffffffffffffffffffff1673ffffffffffffffffffffffffffffffffffffffff1614156040518060400160405280600d81526020017f696e76616c696420717561642100000000000000000000000000000000000000815250906113f8576040517f08c379a00000000000000000000000000000000000000000000000000000000081526004016113ef9190612017565b60405180910390fd5b503373ffffffffffffffffffffffffffffffffffffffff166003866040516114209190611eee565b908152602001604051809103902060000160009054906101000a900473ffffffffffffffffffffffffffffffffffffffff1673ffffffffffffffffffffffffffffffffffffffff16146040518060400160405280601d81526020017f71756164206973206e6f74206f6620796f75722070726f706572747921000000815250906114e0576040517f08c379a00000000000000000000000000000000000000000000000000000000081526004016114d79190612017565b60405180910390fd5b508363ffffffff166003866040516114f89190611eee565b90815260200160405180910390206001018190555060038560405161151d9190611eee565b908152602001604051809103902060000160009054906101000a900473ffffffffffffffffffffffffffffffffffffffff1660038660405161155f9190611eee565b9081526020016040518091039020600101546003876040516115819190611eee565b908152602001604051809103902060020180805461159e90612288565b80601f01602080910402602001604051908101604052809291908181526020018280546115ca90612288565b80156116175780601f106115ec57610100808354040283529160200191611617565b820191906000526020600020905b8154815290600101906020018083116115fa57829003601f168201915b505050505090509250925092509250925092565b600061163682611679565b6003836040516116469190611eee565b90815260200160405180910390206001015461166291906120d1565b9050919050565b6000600154905090565b60015481565b600060206001546003846040516116909190611eee565b9081526020016040518091039020600101546116ac9190612158565b901c9050919050565b6060600280546116c490612288565b80601f01602080910402602001604051908101604052809291908181526020018280546116f090612288565b801561173d5780601f106117125761010080835404028352916020019161173d565b820191906000526020600020905b81548152906001019060200180831161172057829003601f168201915b5050505050905090565b6002805461175490612288565b80601f016020809104026020016040519081016040528092919081815260200182805461178090612288565b80156117cd5780601f106117a2576101008083540402835291602001916117cd565b820191906000526020600020905b8154815290600101906020018083116117b057829003601f168201915b505050505081565b60006060600080600073ffffffffffffffffffffffffffffffffffffffff166003866040516118049190611eee565b908152602001604051809103902060000160009054906101000a900473ffffffffffffffffffffffffffffffffffffffff1673ffffffffffffffffffffffffffffffffffffffff1614156040518060400160405280600d81526020017f696e76616c696420717561642100000000000000000000000000000000000000815250906118c5576040517f08c379a00000000000000000000000000000000000000000000000000000000081526004016118bc9190612017565b60405180910390fd5b506003856040516118d69190611eee565b908152602001604051809103902060000160009054906101000a900473ffffffffffffffffffffffffffffffffffffffff166003866040516119189190611eee565b90815260200160405180910390206002016003876040516119399190611eee565b9081526020016040518091039020600101546119548861162b565b82805461196090612288565b80601f016020809104026020016040519081016040528092919081815260200182805461198c90612288565b80156119d95780601f106119ae576101008083540402835291602001916119d9565b820191906000526020600020905b8154815290600101906020018083116119bc57829003601f168201915b5050505050925093509350935093509193509193565b8280546119fb90612288565b90600052602060002090601f016020900481019282611a1d5760008555611a64565b82601f10611a3657803560ff1916838001178555611a64565b82800160010185558215611a64579182015b82811115611a63578235825591602001919060010190611a48565b5b509050611a719190611b72565b5090565b6040518060600160405280600073ffffffffffffffffffffffffffffffffffffffff16815260200160008152602001606081525090565b828054611ab890612288565b90600052602060002090601f016020900481019282611ada5760008555611b21565b82601f10611af357805160ff1916838001178555611b21565b82800160010185558215611b21579182015b82811115611b20578251825591602001919060010190611b05565b5b509050611b2e9190611b72565b5090565b508054611b3e90612288565b6000825580601f10611b505750611b6f565b601f016020900490600052602060002090810190611b6e9190611b72565b5b50565b5b80821115611b8b576000816000905550600101611b73565b5090565b6000611ba2611b9d84612079565b612054565b905082815260208101848484011115611bba57600080fd5b611bc5848285612246565b509392505050565b60008083601f840112611bdf57600080fd5b8235905067ffffffffffffffff811115611bf857600080fd5b602083019150836001820283011115611c1057600080fd5b9250929050565b600082601f830112611c2857600080fd5b8135611c38848260208601611b8f565b91505092915050565b600081359050611c508161245c565b92915050565b600081359050611c6581612473565b92915050565b60008060208385031215611c7e57600080fd5b600083013567ffffffffffffffff811115611c9857600080fd5b611ca485828601611bcd565b92509250509250929050565b600060208284031215611cc257600080fd5b600082013567ffffffffffffffff811115611cdc57600080fd5b611ce884828501611c17565b91505092915050565b60008060408385031215611d0457600080fd5b600083013567ffffffffffffffff811115611d1e57600080fd5b611d2a85828601611c17565b925050602083013567ffffffffffffffff811115611d4757600080fd5b611d5385828601611c17565b9150509250929050565b60008060408385031215611d7057600080fd5b600083013567ffffffffffffffff811115611d8a57600080fd5b611d9685828601611c17565b9250506020611da785828601611c41565b9150509250929050565b600060208284031215611dc357600080fd5b6000611dd184828501611c56565b91505092915050565b611de3816121e6565b82525050565b6000611df4826120aa565b611dfe81856120b5565b9350611e0e818560208601612255565b611e17816123a7565b840191505092915050565b6000611e2d826120aa565b611e3781856120c6565b9350611e47818560208601612255565b80840191505092915050565b6000611e606002836120c6565b9150611e6b826123b8565b600282019050919050565b6000611e836002836120c6565b9150611e8e826123e1565b600282019050919050565b6000611ea66002836120c6565b9150611eb18261240a565b600282019050919050565b6000611ec96002836120c6565b9150611ed482612433565b600282019050919050565b611ee881612218565b82525050565b6000611efa8284611e22565b915081905092915050565b6000611f118284611e22565b9150611f1c82611e53565b915081905092915050565b6000611f338284611e22565b9150611f3e82611e76565b915081905092915050565b6000611f558284611e22565b9150611f6082611e99565b915081905092915050565b6000611f778284611e22565b9150611f8282611ebc565b915081905092915050565b6000608082019050611fa26000830187611dda565b8181036020830152611fb48186611de9565b9050611fc36040830185611edf565b611fd06060830184611edf565b95945050505050565b6000606082019050611fee6000830186611dda565b611ffb6020830185611edf565b818103604083015261200d8184611de9565b9050949350505050565b600060208201905081810360008301526120318184611de9565b905092915050565b600060208201905061204e6000830184611edf565b92915050565b600061205e61206f565b905061206a82826122ba565b919050565b6000604051905090565b600067ffffffffffffffff82111561209457612093612378565b5b61209d826123a7565b9050602081019050919050565b600081519050919050565b600082825260208201905092915050565b600081905092915050565b60006120dc82612218565b91506120e783612218565b9250827fffffffffffffffffffffffffffffffffffffffffffffffffffffffffffffffff0382111561211c5761211b6122eb565b5b828201905092915050565b600061213282612218565b915061213d83612218565b92508261214d5761214c61231a565b5b828204905092915050565b600061216382612218565b915061216e83612218565b9250817fffffffffffffffffffffffffffffffffffffffffffffffffffffffffffffffff04831182151516156121a7576121a66122eb565b5b828202905092915050565b60006121bd82612218565b91506121c883612218565b9250828210156121db576121da6122eb565b5b828203905092915050565b60006121f1826121f8565b9050919050565b600073ffffffffffffffffffffffffffffffffffffffff82169050919050565b6000819050919050565b600063ffffffff82169050919050565b600067ffffffffffffffff82169050919050565b82818337600083830152505050565b60005b83811015612273578082015181840152602081019050612258565b83811115612282576000848401525b50505050565b600060028204905060018216806122a057607f821691505b602082108114156122b4576122b3612349565b5b50919050565b6122c3826123a7565b810181811067ffffffffffffffff821117156122e2576122e1612378565b5b80604052505050565b7f4e487b7100000000000000000000000000000000000000000000000000000000600052601160045260246000fd5b7f4e487b7100000000000000000000000000000000000000000000000000000000600052601260045260246000fd5b7f4e487b7100000000000000000000000000000000000000000000000000000000600052602260045260246000fd5b7f4e487b7100000000000000000000000000000000000000000000000000000000600052604160045260246000fd5b6000601f19601f8301169050919050565b7f3130000000000000000000000000000000000000000000000000000000000000600082015250565b7f3031000000000000000000000000000000000000000000000000000000000000600082015250565b7f3131000000000000000000000000000000000000000000000000000000000000600082015250565b7f3030000000000000000000000000000000000000000000000000000000000000600082015250565b61246581612222565b811461247057600080fd5b50565b61247c81612232565b811461248757600080fd5b5056fea2646970667358221220b7fed5efe64ba03a292bd773def154749677de01b81599e9f69eb54123da2bd564736f6c63430008040033",
  "immutableReferences": {},
  "source": "// SPDX-License-Identifier: GPL-3.0\n\npragma solidity >=0.7.0 <0.9.0;\n\n/**\n * @title CryptoLand\n * @dev alex\n */\ncontract CryptoLand {\n\n    address payable private contractOwner=payable(address(0x5B38Da6a701c568545dCfcB03FcB875f56beddC4));\n    string constant _error_invalid_permission = \"invalid permission!\";\n    string constant _error_invalid_quad = \"invalid quad!\";\n    string constant _error_quad_not_your_property = \"quad is not of your property!\";\n    string constant _error_insufficient_amount=\"insufficient amount!\";\n    uint256 public fee=4294967;//0.1% expressed as range in 2^32 -> 0.001*(1<<32)\n    \n    string public greeting = \"hello\";\n    function sayHello() external view returns (string memory) {\n        return greeting;\n    }\n\n    function updateGreeting(string calldata _greeting) external {\n        greeting = _greeting;\n    }\n\n    \n    struct Land {\n        address payable owner;\n        uint256 price;\n        string name;\n    }\n    \n    \n    mapping(string=> Land) lands;\n    \n    constructor() {\n        lands[\"\"].owner=contractOwner;//payable(address(this));\n        lands[\"\"].price=1000000000000000000;\n        lands[\"\"].name=\"global\";\n    }\n    \n    \n    //contract owner methods\n    function setFee(uint64 fee1e32) public  {\n        require(msg.sender==contractOwner,_error_invalid_permission);\n        fee=fee1e32;\n    }\n    \n\n    //public methods\n    function buy(string memory quad) public payable {\n        require(lands[quad].owner!=address(0),_error_invalid_quad);\n        require(msg.value>getCost(quad),_error_insufficient_amount);\n        lands[quad].owner.transfer(lands[quad].price);\n        contractOwner.transfer(getFee(quad));\n        payable(msg.sender).transfer(msg.value-getCost(quad));\n        lands[quad].owner=payable(msg.sender);\n    }\n    \n    \n    function lookup(string memory quad) public returns (address, string memory,uint256,uint256) {\n        require(lands[quad].owner!=address(0),_error_invalid_quad);\n        return (lands[quad].owner,lands[quad].name,lands[quad].price,getCost(quad));\n    }\n    \n    function getFee(string memory quad) public returns (uint256)\n    {\n       return (lands[quad].price*fee)>>32;\n    }\n    \n    \n    function getCost(string memory quad) public returns (uint256)\n    {\n       return lands[quad].price+getFee(quad);\n    }\n    \n    function getFee() public returns (uint256) {\n        return fee;\n    }\n\n    function getFeeTest() external view returns (string memory) {\n        return greeting;\n    }\n    \n    //land owner methods\n    function setName(string memory quad,string memory name) public returns (address, uint256, string memory) {\n        require(lands[quad].owner!=address(0),_error_invalid_quad);\n        require(lands[quad].owner==msg.sender,_error_quad_not_your_property);\n        lands[quad].name=name;\n        return (lands[quad].owner,lands[quad].price,lands[quad].name);\n    }\n    \n    function setPrice(string memory quad,uint32 price) public returns (address, uint256, string memory) {\n        require(lands[quad].owner!=address(0),_error_invalid_quad);\n        require(lands[quad].owner==msg.sender,_error_quad_not_your_property);\n        lands[quad].price=price;\n        return (lands[quad].owner,lands[quad].price,lands[quad].name);\n    }\n    \n    function split(string memory quad) public returns (address, uint256, string memory) {\n        require(lands[quad].owner!=address(0),_error_invalid_quad);\n        require(lands[quad].owner==msg.sender,_error_quad_not_your_property);\n        Land memory l;\n        l.owner=lands[quad].owner;\n        l.price=lands[quad].price/4;\n        l.name=lands[quad].name;\n        lands[string(abi.encodePacked(quad,\"00\"))]=l;\n        lands[string(abi.encodePacked(quad,\"01\"))]=l;\n        lands[string(abi.encodePacked(quad,\"10\"))]=l;\n        lands[string(abi.encodePacked(quad,\"11\"))]=l;\n        delete lands[quad];\n        return (lands[quad].owner,lands[quad].price,lands[quad].name);\n    }\n\n    \n}",
  "sourcePath": "/home/alex/projetti/CryptoLand/cryptolandWeb/contracts/CryptoLand.sol",
  "compiler": {
    "name": "solc",
    "version": "0.8.4+commit.c7e474f2.Emscripten.clang"
  },
  "schemaVersion": "3.4.1",
  "updatedAt": "2021-05-23T23:04:38.110Z",
  "networkType": "ethereum",
  "devdoc": {
    "details": "alex",
    "kind": "dev",
    "methods": {},
    "title": "CryptoLand",
    "version": 1
  },
  "userdoc": {
    "kind": "user",
    "methods": {},
    "version": 1
  }
}