{
  "contractName": "CryptoLand",
  "abi": [
    {
      "inputs": [],
      "stateMutability": "nonpayable",
      "type": "constructor"
    },
    {
      "anonymous": false,
      "inputs": [
        {
          "indexed": false,
          "internalType": "string",
          "name": "quad",
          "type": "string"
        }
      ],
      "name": "BuyEvent",
      "type": "event"
    },
    {
      "inputs": [],
      "name": "fee",
      "outputs": [
        {
          "internalType": "uint256",
          "name": "",
          "type": "uint256"
        }
      ],
      "stateMutability": "view",
      "type": "function",
      "constant": true
    },
    {
      "inputs": [],
      "name": "greeting",
      "outputs": [
        {
          "internalType": "string",
          "name": "",
          "type": "string"
        }
      ],
      "stateMutability": "view",
      "type": "function",
      "constant": true
    },
    {
      "inputs": [],
      "name": "sayHello",
      "outputs": [
        {
          "internalType": "string",
          "name": "",
          "type": "string"
        }
      ],
      "stateMutability": "view",
      "type": "function",
      "constant": true
    },
    {
      "inputs": [
        {
          "internalType": "string",
          "name": "_greeting",
          "type": "string"
        }
      ],
      "name": "updateGreeting",
      "outputs": [],
      "stateMutability": "nonpayable",
      "type": "function"
    },
    {
      "inputs": [
        {
          "internalType": "uint64",
          "name": "fee1e32",
          "type": "uint64"
        }
      ],
      "name": "setFee",
      "outputs": [],
      "stateMutability": "nonpayable",
      "type": "function"
    },
    {
      "inputs": [
        {
          "internalType": "string",
          "name": "quad",
          "type": "string"
        }
      ],
      "name": "buy",
      "outputs": [],
      "stateMutability": "payable",
      "type": "function",
      "payable": true
    },
    {
      "inputs": [
        {
          "internalType": "string",
          "name": "quad",
          "type": "string"
        }
      ],
      "name": "getParent",
      "outputs": [
        {
          "internalType": "string",
          "name": "",
          "type": "string"
        }
      ],
      "stateMutability": "pure",
      "type": "function",
      "constant": true
    },
    {
      "inputs": [
        {
          "internalType": "string",
          "name": "quad",
          "type": "string"
        }
      ],
      "name": "getQuad",
      "outputs": [
        {
          "components": [
            {
              "internalType": "address payable",
              "name": "owner",
              "type": "address"
            },
            {
              "internalType": "uint256",
              "name": "price",
              "type": "uint256"
            },
            {
              "internalType": "string",
              "name": "content",
              "type": "string"
            }
          ],
          "internalType": "struct CryptoLand.Land",
          "name": "",
          "type": "tuple"
        }
      ],
      "stateMutability": "view",
      "type": "function",
      "constant": true
    },
    {
      "inputs": [
        {
          "internalType": "string",
          "name": "quad",
          "type": "string"
        }
      ],
      "name": "getQuadFee",
      "outputs": [
        {
          "internalType": "uint256",
          "name": "",
          "type": "uint256"
        }
      ],
      "stateMutability": "view",
      "type": "function",
      "constant": true
    },
    {
      "inputs": [
        {
          "internalType": "string",
          "name": "quad",
          "type": "string"
        }
      ],
      "name": "getQuadCost",
      "outputs": [
        {
          "internalType": "uint256",
          "name": "",
          "type": "uint256"
        }
      ],
      "stateMutability": "view",
      "type": "function",
      "constant": true
    },
    {
      "inputs": [],
      "name": "getFee",
      "outputs": [
        {
          "internalType": "uint256",
          "name": "",
          "type": "uint256"
        }
      ],
      "stateMutability": "view",
      "type": "function",
      "constant": true
    },
    {
      "inputs": [
        {
          "internalType": "string",
          "name": "quad",
          "type": "string"
        },
        {
          "internalType": "int256",
          "name": "price",
          "type": "int256"
        },
        {
          "internalType": "string",
          "name": "content",
          "type": "string"
        }
      ],
      "name": "setQuad",
      "outputs": [
        {
          "components": [
            {
              "internalType": "address payable",
              "name": "owner",
              "type": "address"
            },
            {
              "internalType": "uint256",
              "name": "price",
              "type": "uint256"
            },
            {
              "internalType": "string",
              "name": "content",
              "type": "string"
            }
          ],
          "internalType": "struct CryptoLand.Land",
          "name": "",
          "type": "tuple"
        }
      ],
      "stateMutability": "nonpayable",
      "type": "function"
    },
    {
      "inputs": [
        {
          "internalType": "string",
          "name": "quad",
          "type": "string"
        },
        {
          "internalType": "string",
          "name": "content",
          "type": "string"
        }
      ],
      "name": "setContent",
      "outputs": [
        {
          "components": [
            {
              "internalType": "address payable",
              "name": "owner",
              "type": "address"
            },
            {
              "internalType": "uint256",
              "name": "price",
              "type": "uint256"
            },
            {
              "internalType": "string",
              "name": "content",
              "type": "string"
            }
          ],
          "internalType": "struct CryptoLand.Land",
          "name": "",
          "type": "tuple"
        }
      ],
      "stateMutability": "nonpayable",
      "type": "function"
    },
    {
      "inputs": [
        {
          "internalType": "string",
          "name": "quad",
          "type": "string"
        },
        {
          "internalType": "int256",
          "name": "price",
          "type": "int256"
        }
      ],
      "name": "setPrice",
      "outputs": [
        {
          "components": [
            {
              "internalType": "address payable",
              "name": "owner",
              "type": "address"
            },
            {
              "internalType": "uint256",
              "name": "price",
              "type": "uint256"
            },
            {
              "internalType": "string",
              "name": "content",
              "type": "string"
            }
          ],
          "internalType": "struct CryptoLand.Land",
          "name": "",
          "type": "tuple"
        }
      ],
      "stateMutability": "nonpayable",
      "type": "function"
    },
    {
      "inputs": [
        {
          "internalType": "string",
          "name": "quad",
          "type": "string"
        }
      ],
      "name": "split",
      "outputs": [
        {
          "components": [
            {
              "internalType": "address payable",
              "name": "owner",
              "type": "address"
            },
            {
              "internalType": "uint256",
              "name": "price",
              "type": "uint256"
            },
            {
              "internalType": "string",
              "name": "content",
              "type": "string"
            }
          ],
          "internalType": "struct CryptoLand.Land",
          "name": "",
          "type": "tuple"
        }
      ],
      "stateMutability": "nonpayable",
      "type": "function"
    },
    {
      "inputs": [
        {
          "internalType": "string",
          "name": "quad",
          "type": "string"
        }
      ],
      "name": "split2",
      "outputs": [
        {
          "components": [
            {
              "internalType": "address payable",
              "name": "owner",
              "type": "address"
            },
            {
              "internalType": "uint256",
              "name": "price",
              "type": "uint256"
            },
            {
              "internalType": "string",
              "name": "content",
              "type": "string"
            }
          ],
          "internalType": "struct CryptoLand.Land",
          "name": "",
          "type": "tuple"
        }
      ],
      "stateMutability": "nonpayable",
      "type": "function"
    },
    {
      "inputs": [
        {
          "internalType": "string",
          "name": "quad",
          "type": "string"
        },
        {
          "internalType": "uint256",
          "name": "i",
          "type": "uint256"
        }
      ],
      "name": "appendS",
      "outputs": [
        {
          "internalType": "string",
          "name": "",
          "type": "string"
        }
      ],
      "stateMutability": "pure",
      "type": "function",
      "constant": true
    },
    {
      "inputs": [
        {
          "internalType": "address",
          "name": "o",
          "type": "address"
        }
      ],
      "name": "getProperties",
      "outputs": [
        {
          "internalType": "string[]",
          "name": "",
          "type": "string[]"
        }
      ],
      "stateMutability": "view",
      "type": "function",
      "constant": true
    },
    {
      "inputs": [
        {
          "internalType": "string",
          "name": "quad",
          "type": "string"
        }
      ],
      "name": "getLand",
      "outputs": [
        {
          "components": [
            {
              "internalType": "address payable",
              "name": "owner",
              "type": "address"
            },
            {
              "internalType": "uint256",
              "name": "price",
              "type": "uint256"
            },
            {
              "internalType": "string",
              "name": "content",
              "type": "string"
            }
          ],
          "internalType": "struct CryptoLand.Land",
          "name": "",
          "type": "tuple"
        }
      ],
      "stateMutability": "view",
      "type": "function",
      "constant": true
    }
  ],
  "bytecode": "0x6080604052735b38da6a701c568545dcfcb03fcb875f56beddc46000806101000a81548173ffffffffffffffffffffffffffffffffffffffff021916908373ffffffffffffffffffffffffffffffffffffffff160217905550624189376001556040518060400160405280600581526020017f68656c6c6f00000000000000000000000000000000000000000000000000000081525060029080519060200190620000ac929190620000c1565b50348015620000ba57600080fd5b50620001d6565b828054620000cf9062000171565b90600052602060002090601f016020900481019282620000f357600085556200013f565b82601f106200010e57805160ff19168380011785556200013f565b828001600101855582156200013f579182015b828111156200013e57825182559160200191906001019062000121565b5b5090506200014e919062000152565b5090565b5b808211156200016d57600081600090555060010162000153565b5090565b600060028204905060018216806200018a57607f821691505b60208210811415620001a157620001a0620001a7565b5b50919050565b7f4e487b7100000000000000000000000000000000000000000000000000000000600052602260045260246000fd5b6134d580620001e66000396000f3fe6080604052600436106101145760003560e01c8063a5e0dd94116100a0578063ddca3f4311610064578063ddca3f4314610414578063e55ffcc11461043f578063ebfe1b571461047c578063ef5fb05b146104b9578063ef690cc0146104e457610114565b8063a5e0dd94146102f5578063b502ae4614610332578063ca10ba4d1461036f578063ced72f87146103ac578063da6fdf82146103d757610114565b8063492cc769116100e7578063492cc769146101f9578063513fa864146102155780635a630d7a146102525780636c844a7b1461027b5780638e1b0701146102b857610114565b8063145591a8146101195780632867cc44146101565780632a7b2c931461017f57806347be8583146101bc575b600080fd5b34801561012557600080fd5b50610140600480360381019061013b9190612a7e565b61050f565b60405161014d9190612e15565b60405180910390f35b34801561016257600080fd5b5061017d600480360381019061017891906128b9565b61065e565b005b34801561018b57600080fd5b506101a660048036038101906101a191906128fe565b610674565b6040516101b39190612e37565b60405180910390f35b3480156101c857600080fd5b506101e360048036038101906101de9190612993565b610df7565b6040516101f09190612e37565b60405180910390f35b610213600480360381019061020e91906128fe565b611167565b005b34801561022157600080fd5b5061023c60048036038101906102379190612890565b6113d1565b6040516102499190612df3565b60405180910390f35b34801561025e57600080fd5b5061027960048036038101906102749190612ad2565b6114e9565b005b34801561028757600080fd5b506102a2600480360381019061029d91906128fe565b6115c4565b6040516102af9190612e37565b60405180910390f35b3480156102c457600080fd5b506102df60048036038101906102da91906128fe565b6116ee565b6040516102ec9190612e37565b60405180910390f35b34801561030157600080fd5b5061031c60048036038101906103179190612a12565b611818565b6040516103299190612e37565b60405180910390f35b34801561033e57600080fd5b50610359600480360381019061035491906128fe565b611b4b565b6040516103669190612e37565b60405180910390f35b34801561037b57600080fd5b50610396600480360381019061039191906128fe565b612018565b6040516103a39190612e59565b60405180910390f35b3480156103b857600080fd5b506103c1612056565b6040516103ce9190612e59565b60405180910390f35b3480156103e357600080fd5b506103fe60048036038101906103f9919061293f565b612060565b60405161040b9190612e37565b60405180910390f35b34801561042057600080fd5b506104296122af565b6040516104369190612e59565b60405180910390f35b34801561044b57600080fd5b50610466600480360381019061046191906128fe565b6122b5565b6040516104739190612e15565b60405180910390f35b34801561048857600080fd5b506104a3600480360381019061049e91906128fe565b61241b565b6040516104b09190612e59565b60405180910390f35b3480156104c557600080fd5b506104ce612457565b6040516104db9190612e15565b60405180910390f35b3480156104f057600080fd5b506104f96124e9565b6040516105069190612e15565b60405180910390f35b606060006040518060400160405280601081526020017f3031323334353637383961626364656600000000000000000000000000000000815250905060006040518060400160405280600181526020017f300000000000000000000000000000000000000000000000000000000000000081525090508184815181106105be577f4e487b7100000000000000000000000000000000000000000000000000000000600052603260045260246000fd5b602001015160f81c60f81b81600081518110610603577f4e487b7100000000000000000000000000000000000000000000000000000000600052603260045260246000fd5b60200101907effffffffffffffffffffffffffffffffffffffffffffffffffffffffffffff1916908160001a9053508481604051602001610645929190612d47565b6040516020818303038152906040529250505092915050565b81816002919061066f9291906125ea565b505050565b61067c612670565b600073ffffffffffffffffffffffffffffffffffffffff166003836040516106a49190612d30565b908152602001604051809103902060000160009054906101000a900473ffffffffffffffffffffffffffffffffffffffff1673ffffffffffffffffffffffffffffffffffffffff1614156040518060400160405280600d81526020017f696e76616c69642071756164210000000000000000000000000000000000000081525090610765576040517f08c379a000000000000000000000000000000000000000000000000000000000815260040161075c9190612e15565b60405180910390fd5b503373ffffffffffffffffffffffffffffffffffffffff1660038360405161078d9190612d30565b908152602001604051809103902060000160009054906101000a900473ffffffffffffffffffffffffffffffffffffffff1673ffffffffffffffffffffffffffffffffffffffff16146040518060400160405280601d81526020017f71756164206973206e6f74206f6620796f75722070726f7065727479210000008152509061084d576040517f08c379a00000000000000000000000000000000000000000000000000000000081526004016108449190612e15565b60405180910390fd5b50610856612670565b6003836040516108669190612d30565b908152602001604051809103902060000160009054906101000a900473ffffffffffffffffffffffffffffffffffffffff16816000019073ffffffffffffffffffffffffffffffffffffffff16908173ffffffffffffffffffffffffffffffffffffffff168152505060046003846040516108e19190612d30565b9081526020016040518091039020600101546108fd9190613025565b8160200181815250506003836040516109169190612d30565b9081526020016040518091039020600201805461093290613226565b80601f016020809104026020016040519081016040528092919081815260200182805461095e90613226565b80156109ab5780601f10610980576101008083540402835291602001916109ab565b820191906000526020600020905b81548152906001019060200180831161098e57829003601f168201915b50505050508160400181905250806003846040516020016109cc9190612dd1565b6040516020818303038152906040526040516109e89190612d30565b908152602001604051809103902060008201518160000160006101000a81548173ffffffffffffffffffffffffffffffffffffffff021916908373ffffffffffffffffffffffffffffffffffffffff160217905550602082015181600101556040820151816002019080519060200190610a639291906126a7565b5090505080600384604051602001610a7b9190612d8d565b604051602081830303815290604052604051610a979190612d30565b908152602001604051809103902060008201518160000160006101000a81548173ffffffffffffffffffffffffffffffffffffffff021916908373ffffffffffffffffffffffffffffffffffffffff160217905550602082015181600101556040820151816002019080519060200190610b129291906126a7565b5090505080600384604051602001610b2a9190612d6b565b604051602081830303815290604052604051610b469190612d30565b908152602001604051809103902060008201518160000160006101000a81548173ffffffffffffffffffffffffffffffffffffffff021916908373ffffffffffffffffffffffffffffffffffffffff160217905550602082015181600101556040820151816002019080519060200190610bc19291906126a7565b5090505080600384604051602001610bd99190612daf565b604051602081830303815290604052604051610bf59190612d30565b908152602001604051809103902060008201518160000160006101000a81548173ffffffffffffffffffffffffffffffffffffffff021916908373ffffffffffffffffffffffffffffffffffffffff160217905550602082015181600101556040820151816002019080519060200190610c709291906126a7565b50905050600383604051610c849190612d30565b9081526020016040518091039020600080820160006101000a81549073ffffffffffffffffffffffffffffffffffffffff02191690556001820160009055600282016000610cd2919061272d565b5050600383604051610ce49190612d30565b90815260200160405180910390206040518060600160405290816000820160009054906101000a900473ffffffffffffffffffffffffffffffffffffffff1673ffffffffffffffffffffffffffffffffffffffff1673ffffffffffffffffffffffffffffffffffffffff16815260200160018201548152602001600282018054610d6d90613226565b80601f0160208091040260200160405190810160405280929190818152602001828054610d9990613226565b8015610de65780601f10610dbb57610100808354040283529160200191610de6565b820191906000526020600020905b815481529060010190602001808311610dc957829003601f168201915b505050505081525050915050919050565b610dff612670565b600073ffffffffffffffffffffffffffffffffffffffff16600385604051610e279190612d30565b908152602001604051809103902060000160009054906101000a900473ffffffffffffffffffffffffffffffffffffffff1673ffffffffffffffffffffffffffffffffffffffff1614156040518060400160405280600d81526020017f696e76616c69642071756164210000000000000000000000000000000000000081525090610ee8576040517f08c379a0000000000000000000000000000000000000000000000000000000008152600401610edf9190612e15565b60405180910390fd5b503373ffffffffffffffffffffffffffffffffffffffff16600385604051610f109190612d30565b908152602001604051809103902060000160009054906101000a900473ffffffffffffffffffffffffffffffffffffffff1673ffffffffffffffffffffffffffffffffffffffff16146040518060400160405280601d81526020017f71756164206973206e6f74206f6620796f75722070726f70657274792100000081525090610fd0576040517f08c379a0000000000000000000000000000000000000000000000000000000008152600401610fc79190612e15565b60405180910390fd5b506000600385604051610fe39190612d30565b9081526020016040518091039020600101548461100091906130b0565b905061100c8582612577565b8260038660405161101d9190612d30565b908152602001604051809103902060020190805190602001906110419291906126a7565b506003856040516110529190612d30565b90815260200160405180910390206040518060600160405290816000820160009054906101000a900473ffffffffffffffffffffffffffffffffffffffff1673ffffffffffffffffffffffffffffffffffffffff1673ffffffffffffffffffffffffffffffffffffffff168152602001600182015481526020016002820180546110db90613226565b80601f016020809104026020016040519081016040528092919081815260200182805461110790613226565b80156111545780601f1061112957610100808354040283529160200191611154565b820191906000526020600020905b81548152906001019060200180831161113757829003601f168201915b5050505050815250509150509392505050565b600061117282612018565b90508034146040518060400160405280601481526020017f696e73756666696369656e7420616d6f756e7421000000000000000000000000815250906111ee576040517f08c379a00000000000000000000000000000000000000000000000000000000081526004016111e59190612e15565b60405180910390fd5b506003826040516111ff9190612d30565b908152602001604051809103902060000160009054906101000a900473ffffffffffffffffffffffffffffffffffffffff1673ffffffffffffffffffffffffffffffffffffffff166108fc60038460405161125a9190612d30565b9081526020016040518091039020600101549081150290604051600060405180830381858888f19350505050158015611297573d6000803e3d6000fd5b5060008054906101000a900473ffffffffffffffffffffffffffffffffffffffff1673ffffffffffffffffffffffffffffffffffffffff166108fc6003846040516112e29190612d30565b908152602001604051809103902060010154836112ff9190613144565b9081150290604051600060405180830381858888f1935050505015801561132a573d6000803e3d6000fd5b503360038360405161133c9190612d30565b908152602001604051809103902060000160006101000a81548173ffffffffffffffffffffffffffffffffffffffff021916908373ffffffffffffffffffffffffffffffffffffffff160217905550611396826000612577565b7fc81149a7bc4f4f826d5574f07223c9674a867fb41a50420756f01f962bece5a6826040516113c59190612e15565b60405180910390a15050565b6060600460008373ffffffffffffffffffffffffffffffffffffffff1673ffffffffffffffffffffffffffffffffffffffff168152602001908152602001600020805480602002602001604051908101604052809291908181526020016000905b828210156114de57838290600052602060002001805461145190613226565b80601f016020809104026020016040519081016040528092919081815260200182805461147d90613226565b80156114ca5780601f1061149f576101008083540402835291602001916114ca565b820191906000526020600020905b8154815290600101906020018083116114ad57829003601f168201915b505050505081526020019060010190611432565b505050509050919050565b60008054906101000a900473ffffffffffffffffffffffffffffffffffffffff1673ffffffffffffffffffffffffffffffffffffffff163373ffffffffffffffffffffffffffffffffffffffff16146040518060400160405280601381526020017f696e76616c6964207065726d697373696f6e2100000000000000000000000000815250906115af576040517f08c379a00000000000000000000000000000000000000000000000000000000081526004016115a69190612e15565b60405180910390fd5b508067ffffffffffffffff1660018190555050565b6115cc612670565b6003826040516115dc9190612d30565b90815260200160405180910390206040518060600160405290816000820160009054906101000a900473ffffffffffffffffffffffffffffffffffffffff1673ffffffffffffffffffffffffffffffffffffffff1673ffffffffffffffffffffffffffffffffffffffff1681526020016001820154815260200160028201805461166590613226565b80601f016020809104026020016040519081016040528092919081815260200182805461169190613226565b80156116de5780601f106116b3576101008083540402835291602001916116de565b820191906000526020600020905b8154815290600101906020018083116116c157829003601f168201915b5050505050815250509050919050565b6116f6612670565b6003826040516117069190612d30565b90815260200160405180910390206040518060600160405290816000820160009054906101000a900473ffffffffffffffffffffffffffffffffffffffff1673ffffffffffffffffffffffffffffffffffffffff1673ffffffffffffffffffffffffffffffffffffffff1681526020016001820154815260200160028201805461178f90613226565b80601f01602080910402602001604051908101604052809291908181526020018280546117bb90613226565b80156118085780601f106117dd57610100808354040283529160200191611808565b820191906000526020600020905b8154815290600101906020018083116117eb57829003601f168201915b5050505050815250509050919050565b611820612670565b600073ffffffffffffffffffffffffffffffffffffffff166003846040516118489190612d30565b908152602001604051809103902060000160009054906101000a900473ffffffffffffffffffffffffffffffffffffffff1673ffffffffffffffffffffffffffffffffffffffff1614156040518060400160405280600d81526020017f696e76616c69642071756164210000000000000000000000000000000000000081525090611909576040517f08c379a00000000000000000000000000000000000000000000000000000000081526004016119009190612e15565b60405180910390fd5b503373ffffffffffffffffffffffffffffffffffffffff166003846040516119319190612d30565b908152602001604051809103902060000160009054906101000a900473ffffffffffffffffffffffffffffffffffffffff1673ffffffffffffffffffffffffffffffffffffffff16146040518060400160405280601d81526020017f71756164206973206e6f74206f6620796f75722070726f706572747921000000815250906119f1576040517f08c379a00000000000000000000000000000000000000000000000000000000081526004016119e89190612e15565b60405180910390fd5b5081600384604051611a039190612d30565b90815260200160405180910390206002019080519060200190611a279291906126a7565b50600383604051611a389190612d30565b90815260200160405180910390206040518060600160405290816000820160009054906101000a900473ffffffffffffffffffffffffffffffffffffffff1673ffffffffffffffffffffffffffffffffffffffff1673ffffffffffffffffffffffffffffffffffffffff16815260200160018201548152602001600282018054611ac190613226565b80601f0160208091040260200160405190810160405280929190818152602001828054611aed90613226565b8015611b3a5780601f10611b0f57610100808354040283529160200191611b3a565b820191906000526020600020905b815481529060010190602001808311611b1d57829003601f168201915b505050505081525050905092915050565b611b53612670565b60006040518060400160405280601081526020017f3031323334353637383961626364656600000000000000000000000000000000815250905060006040518060400160405280600181526020017f300000000000000000000000000000000000000000000000000000000000000081525090506000600385604051611bd99190612d30565b90815260200160405180910390206040518060600160405290816000820160009054906101000a900473ffffffffffffffffffffffffffffffffffffffff1673ffffffffffffffffffffffffffffffffffffffff1673ffffffffffffffffffffffffffffffffffffffff16815260200160018201548152602001600282018054611c6290613226565b80601f0160208091040260200160405190810160405280929190818152602001828054611c8e90613226565b8015611cdb5780601f10611cb057610100808354040283529160200191611cdb565b820191906000526020600020905b815481529060010190602001808311611cbe57829003601f168201915b505050505081525050905060006004600387604051611cfa9190612d30565b908152602001604051809103902060010154611d169190613025565b905060005b6010811015611ef157611d2c612670565b8360000151816000019073ffffffffffffffffffffffffffffffffffffffff16908173ffffffffffffffffffffffffffffffffffffffff16815250508281602001818152505083604001518160400181905250858281518110611db8577f4e487b7100000000000000000000000000000000000000000000000000000000600052603260045260246000fd5b602001015160f81c60f81b85600081518110611dfd577f4e487b7100000000000000000000000000000000000000000000000000000000600052603260045260246000fd5b60200101907effffffffffffffffffffffffffffffffffffffffffffffffffffffffffffff1916908160001a9053508060038987604051602001611e42929190612d47565b604051602081830303815290604052604051611e5e9190612d30565b908152602001604051809103902060008201518160000160006101000a81548173ffffffffffffffffffffffffffffffffffffffff021916908373ffffffffffffffffffffffffffffffffffffffff160217905550602082015181600101556040820151816002019080519060200190611ed99291906126a7565b50905050508080611ee990613289565b915050611d1b565b50600386604051611f029190612d30565b90815260200160405180910390206040518060600160405290816000820160009054906101000a900473ffffffffffffffffffffffffffffffffffffffff1673ffffffffffffffffffffffffffffffffffffffff1673ffffffffffffffffffffffffffffffffffffffff16815260200160018201548152602001600282018054611f8b90613226565b80601f0160208091040260200160405190810160405280929190818152602001828054611fb790613226565b80156120045780601f10611fd957610100808354040283529160200191612004565b820191906000526020600020905b815481529060010190602001808311611fe757829003601f168201915b505050505081525050945050505050919050565b60006120238261241b565b6003836040516120339190612d30565b90815260200160405180910390206001015461204f9190612fcf565b9050919050565b6000600154905090565b612068612670565b3373ffffffffffffffffffffffffffffffffffffffff1660038460405161208f9190612d30565b908152602001604051809103902060000160009054906101000a900473ffffffffffffffffffffffffffffffffffffffff1673ffffffffffffffffffffffffffffffffffffffff16146040518060400160405280601d81526020017f71756164206973206e6f74206f6620796f75722070726f7065727479210000008152509061214f576040517f08c379a00000000000000000000000000000000000000000000000000000000081526004016121469190612e15565b60405180910390fd5b5060006003846040516121629190612d30565b9081526020016040518091039020600101548361217f91906130b0565b905061218b8482612577565b60038460405161219b9190612d30565b90815260200160405180910390206040518060600160405290816000820160009054906101000a900473ffffffffffffffffffffffffffffffffffffffff1673ffffffffffffffffffffffffffffffffffffffff1673ffffffffffffffffffffffffffffffffffffffff1681526020016001820154815260200160028201805461222490613226565b80601f016020809104026020016040519081016040528092919081815260200182805461225090613226565b801561229d5780601f106122725761010080835404028352916020019161229d565b820191906000526020600020905b81548152906001019060200180831161228057829003601f168201915b50505050508152505091505092915050565b60015481565b606060008290506000600182516122cc9190613144565b905060008167ffffffffffffffff811115612310577f4e487b7100000000000000000000000000000000000000000000000000000000600052604160045260246000fd5b6040519080825280601f01601f1916602001820160405280156123425781602001600182028036833780820191505090505b50905060005b8281101561240f57838181518110612389577f4e487b7100000000000000000000000000000000000000000000000000000000600052603260045260246000fd5b602001015160f81c60f81b8282815181106123cd577f4e487b7100000000000000000000000000000000000000000000000000000000600052603260045260246000fd5b60200101907effffffffffffffffffffffffffffffffffffffffffffffffffffffffffffff1916908160001a905350808061240790613289565b915050612348565b50809350505050919050565b600060206001546003846040516124329190612d30565b90815260200160405180910390206001015461244e9190613056565b901c9050919050565b60606002805461246690613226565b80601f016020809104026020016040519081016040528092919081815260200182805461249290613226565b80156124df5780601f106124b4576101008083540402835291602001916124df565b820191906000526020600020905b8154815290600101906020018083116124c257829003601f168201915b5050505050905090565b600280546124f690613226565b80601f016020809104026020016040519081016040528092919081815260200182805461252290613226565b801561256f5780601f106125445761010080835404028352916020019161256f565b820191906000526020600020905b81548152906001019060200180831161255257829003601f168201915b505050505081565b806003836040516125889190612d30565b9081526020016040518091039020600101546125a49190612f3b565b6003836040516125b49190612d30565b9081526020016040518091039020600101819055506000825111156125e6576125e56125df836122b5565b82612577565b5b5050565b8280546125f690613226565b90600052602060002090601f016020900481019282612618576000855561265f565b82601f1061263157803560ff191683800117855561265f565b8280016001018555821561265f579182015b8281111561265e578235825591602001919060010190612643565b5b50905061266c919061276d565b5090565b6040518060600160405280600073ffffffffffffffffffffffffffffffffffffffff16815260200160008152602001606081525090565b8280546126b390613226565b90600052602060002090601f0160209004810192826126d5576000855561271c565b82601f106126ee57805160ff191683800117855561271c565b8280016001018555821561271c579182015b8281111561271b578251825591602001919060010190612700565b5b509050612729919061276d565b5090565b50805461273990613226565b6000825580601f1061274b575061276a565b601f016020900490600052602060002090810190612769919061276d565b5b50565b5b8082111561278657600081600090555060010161276e565b5090565b600061279d61279884612e99565b612e74565b9050828152602081018484840111156127b557600080fd5b6127c08482856131e4565b509392505050565b6000813590506127d781613443565b92915050565b6000813590506127ec8161345a565b92915050565b60008083601f84011261280457600080fd5b8235905067ffffffffffffffff81111561281d57600080fd5b60208301915083600182028301111561283557600080fd5b9250929050565b600082601f83011261284d57600080fd5b813561285d84826020860161278a565b91505092915050565b60008135905061287581613471565b92915050565b60008135905061288a81613488565b92915050565b6000602082840312156128a257600080fd5b60006128b0848285016127c8565b91505092915050565b600080602083850312156128cc57600080fd5b600083013567ffffffffffffffff8111156128e657600080fd5b6128f2858286016127f2565b92509250509250929050565b60006020828403121561291057600080fd5b600082013567ffffffffffffffff81111561292a57600080fd5b6129368482850161283c565b91505092915050565b6000806040838503121561295257600080fd5b600083013567ffffffffffffffff81111561296c57600080fd5b6129788582860161283c565b9250506020612989858286016127dd565b9150509250929050565b6000806000606084860312156129a857600080fd5b600084013567ffffffffffffffff8111156129c257600080fd5b6129ce8682870161283c565b93505060206129df868287016127dd565b925050604084013567ffffffffffffffff8111156129fc57600080fd5b612a088682870161283c565b9150509250925092565b60008060408385031215612a2557600080fd5b600083013567ffffffffffffffff811115612a3f57600080fd5b612a4b8582860161283c565b925050602083013567ffffffffffffffff811115612a6857600080fd5b612a748582860161283c565b9150509250929050565b60008060408385031215612a9157600080fd5b600083013567ffffffffffffffff811115612aab57600080fd5b612ab78582860161283c565b9250506020612ac885828601612866565b9150509250929050565b600060208284031215612ae457600080fd5b6000612af28482850161287b565b91505092915050565b6000612b078383612b93565b905092915050565b612b188161318a565b82525050565b6000612b2982612eda565b612b338185612efd565b935083602082028501612b4585612eca565b8060005b85811015612b815784840389528151612b628582612afb565b9450612b6d83612ef0565b925060208a01995050600181019050612b49565b50829750879550505050505092915050565b6000612b9e82612ee5565b612ba88185612f0e565b9350612bb88185602086016131f3565b612bc18161338e565b840191505092915050565b6000612bd782612ee5565b612be18185612f1f565b9350612bf18185602086016131f3565b612bfa8161338e565b840191505092915050565b6000612c1082612ee5565b612c1a8185612f30565b9350612c2a8185602086016131f3565b80840191505092915050565b6000612c43600283612f30565b9150612c4e8261339f565b600282019050919050565b6000612c66600283612f30565b9150612c71826133c8565b600282019050919050565b6000612c89600283612f30565b9150612c94826133f1565b600282019050919050565b6000612cac600283612f30565b9150612cb78261341a565b600282019050919050565b6000606083016000830151612cda6000860182612b0f565b506020830151612ced6020860182612d12565b5060408301518482036040860152612d058282612b93565b9150508091505092915050565b612d1b816131c6565b82525050565b612d2a816131c6565b82525050565b6000612d3c8284612c05565b915081905092915050565b6000612d538285612c05565b9150612d5f8284612c05565b91508190509392505050565b6000612d778284612c05565b9150612d8282612c36565b915081905092915050565b6000612d998284612c05565b9150612da482612c59565b915081905092915050565b6000612dbb8284612c05565b9150612dc682612c7c565b915081905092915050565b6000612ddd8284612c05565b9150612de882612c9f565b915081905092915050565b60006020820190508181036000830152612e0d8184612b1e565b905092915050565b60006020820190508181036000830152612e2f8184612bcc565b905092915050565b60006020820190508181036000830152612e518184612cc2565b905092915050565b6000602082019050612e6e6000830184612d21565b92915050565b6000612e7e612e8f565b9050612e8a8282613258565b919050565b6000604051905090565b600067ffffffffffffffff821115612eb457612eb361335f565b5b612ebd8261338e565b9050602081019050919050565b6000819050602082019050919050565b600081519050919050565b600081519050919050565b6000602082019050919050565b600082825260208201905092915050565b600082825260208201905092915050565b600082825260208201905092915050565b600081905092915050565b6000612f468261319c565b9150612f518361319c565b9250817f7fffffffffffffffffffffffffffffffffffffffffffffffffffffffffffffff03831360008312151615612f8c57612f8b6132d2565b5b817f8000000000000000000000000000000000000000000000000000000000000000038312600083121615612fc457612fc36132d2565b5b828201905092915050565b6000612fda826131c6565b9150612fe5836131c6565b9250827fffffffffffffffffffffffffffffffffffffffffffffffffffffffffffffffff0382111561301a576130196132d2565b5b828201905092915050565b6000613030826131c6565b915061303b836131c6565b92508261304b5761304a613301565b5b828204905092915050565b6000613061826131c6565b915061306c836131c6565b9250817fffffffffffffffffffffffffffffffffffffffffffffffffffffffffffffffff04831182151516156130a5576130a46132d2565b5b828202905092915050565b60006130bb8261319c565b91506130c68361319c565b9250827f800000000000000000000000000000000000000000000000000000000000000001821260008412151615613101576131006132d2565b5b827f7fffffffffffffffffffffffffffffffffffffffffffffffffffffffffffffff018213600084121615613139576131386132d2565b5b828203905092915050565b600061314f826131c6565b915061315a836131c6565b92508282101561316d5761316c6132d2565b5b828203905092915050565b6000613183826131a6565b9050919050565b6000613195826131a6565b9050919050565b6000819050919050565b600073ffffffffffffffffffffffffffffffffffffffff82169050919050565b6000819050919050565b600067ffffffffffffffff82169050919050565b82818337600083830152505050565b60005b838110156132115780820151818401526020810190506131f6565b83811115613220576000848401525b50505050565b6000600282049050600182168061323e57607f821691505b6020821081141561325257613251613330565b5b50919050565b6132618261338e565b810181811067ffffffffffffffff821117156132805761327f61335f565b5b80604052505050565b6000613294826131c6565b91507fffffffffffffffffffffffffffffffffffffffffffffffffffffffffffffffff8214156132c7576132c66132d2565b5b600182019050919050565b7f4e487b7100000000000000000000000000000000000000000000000000000000600052601160045260246000fd5b7f4e487b7100000000000000000000000000000000000000000000000000000000600052601260045260246000fd5b7f4e487b7100000000000000000000000000000000000000000000000000000000600052602260045260246000fd5b7f4e487b7100000000000000000000000000000000000000000000000000000000600052604160045260246000fd5b6000601f19601f8301169050919050565b7f3130000000000000000000000000000000000000000000000000000000000000600082015250565b7f3031000000000000000000000000000000000000000000000000000000000000600082015250565b7f3131000000000000000000000000000000000000000000000000000000000000600082015250565b7f3030000000000000000000000000000000000000000000000000000000000000600082015250565b61344c81613178565b811461345757600080fd5b50565b6134638161319c565b811461346e57600080fd5b50565b61347a816131c6565b811461348557600080fd5b50565b613491816131d0565b811461349c57600080fd5b5056fea2646970667358221220b3677c396f111ed8c6c43bb6e36fbc3b1ed60b66d9e37efbaadf1ae15e8bcd5a64736f6c63430008040033",
  "immutableReferences": {},
  "source": "// SPDX-License-Identifier: GPL-3.0\n\npragma solidity >=0.7.0 <0.9.0;\n\n/**\n * @title CryptoLand\n * @dev alex\n */\ncontract CryptoLand {\n\n    address payable private contractOwner=payable(address(0x5B38Da6a701c568545dCfcB03FcB875f56beddC4));\n    string constant _error_invalid_permission = \"invalid permission!\";\n    string constant _error_invalid_quad = \"invalid quad!\";\n    string constant _error_quad_not_your_property = \"quad is not of your property!\";\n    string constant _error_insufficient_amount=\"insufficient amount!\";\n    uint256 public fee=4294967;//0.1% expressed as range in 2^32 -> 0.001*(1<<32)\n    \n    string public greeting = \"hello\";\n    function sayHello() external view returns (string memory) {\n        return greeting;\n    }\n\n    function updateGreeting(string calldata _greeting) external {\n        greeting = _greeting;\n    }\n\n    \n    struct Land {\n        address payable owner;\n        uint256 price;\n        string content;\n    }\n    \n    \n    mapping(string=> Land) lands;\n    mapping(address=> string[]) properties;\n    \n    constructor() {\n        /*\n        lands[\"\"].owner=contractOwner;//payable(address(this));\n        lands[\"\"].price=1000000000000000000;\n        lands[\"\"].content=\"\";\n        properties[contractOwner].push(\"\");\n        */\n    }\n    \n    \n    //contract owner methods\n    function setFee(uint64 fee1e32) public  {\n        require(msg.sender==contractOwner,_error_invalid_permission);\n        fee=fee1e32;\n    }\n    \n    event BuyEvent(string quad);\n\n    //public methods\n    function buy(string memory quad) public payable  {\n        //require(lands[quad].owner!=address(0),_error_invalid_quad);\n        uint256 cost=getQuadCost(quad);\n        require(msg.value==cost,_error_insufficient_amount);\n        lands[quad].owner.transfer(lands[quad].price);\n        contractOwner.transfer(cost-lands[quad].price);\n        lands[quad].owner=payable(msg.sender);\n        updatePrice(quad,0);\n        emit BuyEvent(quad);\n    }\n\n    function getParent(string memory quad) public pure returns (string memory)\n    {\n        bytes memory bq= bytes(quad);\n        uint l=bq.length-1;\n        bytes memory result = new bytes(l);\n        for(uint i = 0; i < l; i++) {\n            result[i] = bq[i];\n        }\n        return string(result);\n    }\n    \n    function updatePrice(string memory quad,int256 delta) private{\n        lands[quad].price=uint256(int256(lands[quad].price)+delta);\n        if (bytes(quad).length>0)\n            updatePrice(getParent(quad),delta);\n    }\n\n    \n    \n    function getQuad(string memory quad) public view returns (Land memory) {\n        //require(lands[quad].owner!=address(0),_error_invalid_quad);\n        return lands[quad];\n    }\n\n\n    function getQuadFee(string memory quad) public view  returns (uint256)\n    {\n       return (lands[quad].price*fee)>>32;\n    }\n    \n    \n    function getQuadCost(string memory quad) public view returns (uint256)\n    {\n       return lands[quad].price+getQuadFee(quad);\n    }\n    \n    function getFee() public view returns (uint256) {\n        return fee;\n    }\n\n    function setQuad(string memory quad,int256 price,string memory content) public returns  (Land memory) {\n        require(lands[quad].owner!=address(0),_error_invalid_quad);\n        require(lands[quad].owner==msg.sender,_error_quad_not_your_property);\n        int256 delta=int256(price)-int256(lands[quad].price);\n        updatePrice(quad,delta);\n        lands[quad].content=content;\n        return (lands[quad]);\n    }\n    \n    //land owner methods\n    function setContent(string memory quad,string memory content) public returns  (Land memory) {\n        require(lands[quad].owner!=address(0),_error_invalid_quad);\n        require(lands[quad].owner==msg.sender,_error_quad_not_your_property);\n        lands[quad].content=content;\n        return (lands[quad]);\n    }\n    \n    function setPrice(string memory quad,int256 price) public returns  (Land memory) {\n        //require(lands[quad].owner!=address(0),_error_invalid_quad);\n        require(lands[quad].owner==msg.sender,_error_quad_not_your_property);\n        int256 delta=int256(price)-int256(lands[quad].price);\n        updatePrice(quad,delta);\n        return (lands[quad]);\n    }\n    \n    function split(string memory quad) public returns (Land memory) {\n        require(lands[quad].owner!=address(0),_error_invalid_quad);\n        require(lands[quad].owner==msg.sender,_error_quad_not_your_property);\n        Land memory l;\n        l.owner=lands[quad].owner;\n        l.price=lands[quad].price/4;\n        l.content=lands[quad].content;\n        lands[string(abi.encodePacked(quad,\"00\"))]=l;\n        lands[string(abi.encodePacked(quad,\"01\"))]=l;\n        lands[string(abi.encodePacked(quad,\"10\"))]=l;\n        lands[string(abi.encodePacked(quad,\"11\"))]=l;\n        delete lands[quad];\n        return (lands[quad]);\n    }\n    \n    function split2(string memory quad) public  returns (Land memory) {\n        bytes memory alphabet = \"0123456789abcdef\";\n        bytes memory s=\"0\";\n\n        Land memory lp=lands[quad];\n        uint price=lands[quad].price/4;\n        for (uint i=0; i<16; i++) {\n            Land memory l;\n            l.owner=lp.owner;\n            l.price=price;\n            l.content=lp.content;\n            s[0]=alphabet[i];\n            lands[string(abi.encodePacked(quad,string(s)))]=l;\n        }\n        return (lands[quad]);\n    }\n    \n    \n    function appendS(string memory quad,uint i) public pure returns (string memory) {\n        bytes memory alphabet = \"0123456789abcdef\";\n        bytes memory s=\"0\";\n        s[0]=alphabet[i];\n       return string(abi.encodePacked(quad,string(s)));\n    }\n    \n    function getProperties(address o) public view returns (string[] memory) {\n       return properties[o];\n    }\n\n   function getLand(string memory quad) public view returns (Land memory) {\n       return lands[quad];\n    }\n}",
  "sourcePath": "/home/alex/projetti/CryptoLand/CryptoLand/contracts/CryptoLand.sol",
  "compiler": {
    "name": "solc",
    "version": "0.8.4+commit.c7e474f2.Emscripten.clang"
  },
  "schemaVersion": "3.4.1",
  "updatedAt": "2021-07-10T13:35:57.269Z",
  "networkType": "ethereum",
  "devdoc": {
    "details": "alex",
    "kind": "dev",
    "methods": {},
    "title": "CryptoLand",
    "version": 1
  },
  "userdoc": {
    "kind": "user",
    "methods": {},
    "version": 1
  }
}