{
  "contractName": "CryptoLand",
  "abi": [
    {
      "inputs": [],
      "stateMutability": "nonpayable",
      "type": "constructor"
    },
    {
      "inputs": [],
      "name": "fee",
      "outputs": [
        {
          "internalType": "uint256",
          "name": "",
          "type": "uint256"
        }
      ],
      "stateMutability": "view",
      "type": "function"
    },
    {
      "inputs": [],
      "name": "greeting",
      "outputs": [
        {
          "internalType": "string",
          "name": "",
          "type": "string"
        }
      ],
      "stateMutability": "view",
      "type": "function"
    },
    {
      "inputs": [],
      "name": "sayHello",
      "outputs": [
        {
          "internalType": "string",
          "name": "",
          "type": "string"
        }
      ],
      "stateMutability": "view",
      "type": "function"
    },
    {
      "inputs": [
        {
          "internalType": "string",
          "name": "_greeting",
          "type": "string"
        }
      ],
      "name": "updateGreeting",
      "outputs": [],
      "stateMutability": "nonpayable",
      "type": "function"
    },
    {
      "inputs": [
        {
          "internalType": "uint64",
          "name": "fee1e32",
          "type": "uint64"
        }
      ],
      "name": "setFee",
      "outputs": [],
      "stateMutability": "nonpayable",
      "type": "function"
    },
    {
      "inputs": [
        {
          "internalType": "string",
          "name": "quad",
          "type": "string"
        }
      ],
      "name": "buy",
      "outputs": [],
      "stateMutability": "payable",
      "type": "function"
    },
    {
      "inputs": [
        {
          "internalType": "string",
          "name": "quad",
          "type": "string"
        }
      ],
      "name": "lookup",
      "outputs": [
        {
          "internalType": "address",
          "name": "",
          "type": "address"
        },
        {
          "internalType": "string",
          "name": "",
          "type": "string"
        },
        {
          "internalType": "uint256",
          "name": "",
          "type": "uint256"
        },
        {
          "internalType": "uint256",
          "name": "",
          "type": "uint256"
        }
      ],
      "stateMutability": "nonpayable",
      "type": "function"
    },
    {
      "inputs": [
        {
          "internalType": "string",
          "name": "quad",
          "type": "string"
        }
      ],
      "name": "getCost",
      "outputs": [
        {
          "internalType": "uint256",
          "name": "",
          "type": "uint256"
        }
      ],
      "stateMutability": "nonpayable",
      "type": "function"
    },
    {
      "inputs": [],
      "name": "getFee",
      "outputs": [
        {
          "internalType": "uint256",
          "name": "",
          "type": "uint256"
        }
      ],
      "stateMutability": "nonpayable",
      "type": "function"
    },
    {
      "inputs": [
        {
          "internalType": "string",
          "name": "quad",
          "type": "string"
        }
      ],
      "name": "getFee",
      "outputs": [
        {
          "internalType": "uint256",
          "name": "",
          "type": "uint256"
        }
      ],
      "stateMutability": "nonpayable",
      "type": "function"
    },
    {
      "inputs": [
        {
          "internalType": "string",
          "name": "quad",
          "type": "string"
        },
        {
          "internalType": "string",
          "name": "name",
          "type": "string"
        }
      ],
      "name": "setName",
      "outputs": [
        {
          "internalType": "address",
          "name": "",
          "type": "address"
        },
        {
          "internalType": "uint256",
          "name": "",
          "type": "uint256"
        },
        {
          "internalType": "string",
          "name": "",
          "type": "string"
        }
      ],
      "stateMutability": "nonpayable",
      "type": "function"
    },
    {
      "inputs": [
        {
          "internalType": "string",
          "name": "quad",
          "type": "string"
        },
        {
          "internalType": "uint32",
          "name": "price",
          "type": "uint32"
        }
      ],
      "name": "setPrice",
      "outputs": [
        {
          "internalType": "address",
          "name": "",
          "type": "address"
        },
        {
          "internalType": "uint256",
          "name": "",
          "type": "uint256"
        },
        {
          "internalType": "string",
          "name": "",
          "type": "string"
        }
      ],
      "stateMutability": "nonpayable",
      "type": "function"
    },
    {
      "inputs": [
        {
          "internalType": "string",
          "name": "quad",
          "type": "string"
        }
      ],
      "name": "split",
      "outputs": [
        {
          "internalType": "address",
          "name": "",
          "type": "address"
        },
        {
          "internalType": "uint256",
          "name": "",
          "type": "uint256"
        },
        {
          "internalType": "string",
          "name": "",
          "type": "string"
        }
      ],
      "stateMutability": "nonpayable",
      "type": "function"
    }
  ],
  "bytecode": "0x6080604052735b38da6a701c568545dcfcb03fcb875f56beddc46000806101000a81548173ffffffffffffffffffffffffffffffffffffffff021916908373ffffffffffffffffffffffffffffffffffffffff160217905550624189376001556040518060400160405280600581526020017f68656c6c6f00000000000000000000000000000000000000000000000000000081525060029080519060200190620000ac929190620001dc565b50348015620000ba57600080fd5b5060008054906101000a900473ffffffffffffffffffffffffffffffffffffffff166003604051620000ec90620002b3565b908152602001604051809103902060000160006101000a81548173ffffffffffffffffffffffffffffffffffffffff021916908373ffffffffffffffffffffffffffffffffffffffff160217905550670de0b6b3a764000060036040516200015490620002b3565b9081526020016040518091039020600101819055506040518060400160405280600681526020017f676c6f62616c00000000000000000000000000000000000000000000000000008152506003604051620001af90620002b3565b90815260200160405180910390206002019080519060200190620001d5929190620001dc565b506200033d565b828054620001ea90620002d5565b90600052602060002090601f0160209004810192826200020e57600085556200025a565b82601f106200022957805160ff19168380011785556200025a565b828001600101855582156200025a579182015b82811115620002595782518255916020019190600101906200023c565b5b5090506200026991906200026d565b5090565b5b80821115620002885760008160009055506001016200026e565b5090565b60006200029b600083620002ca565b9150620002a8826200033a565b600082019050919050565b6000620002c0826200028c565b9150819050919050565b600081905092915050565b60006002820490506001821680620002ee57607f821691505b602082108114156200030557620003046200030b565b5b50919050565b7f4e487b7100000000000000000000000000000000000000000000000000000000600052602260045260246000fd5b50565b6123e8806200034d6000396000f3fe6080604052600436106100c25760003560e01c80639ca3c29c1161007f578063ed1eee6811610059578063ed1eee6814610285578063ef5fb05b146102c2578063ef690cc0146102ed578063f67187ac14610318576100c2565b80639ca3c29c146101f2578063ced72f871461022f578063ddca3f431461025a576100c2565b80632867cc44146100c75780632a7b2c93146100f0578063492cc7691461012f5780635a630d7a1461014b5780635c707f0714610174578063883deb0f146101b3575b600080fd5b3480156100d357600080fd5b506100ee60048036038101906100e99190611b93565b610358565b005b3480156100fc57600080fd5b5061011760048036038101906101129190611bd8565b61036e565b60405161012693929190611f01565b60405180910390f35b61014960048036038101906101449190611bd8565b610aea565b005b34801561015757600080fd5b50610172600480360381019061016d9190611cd9565b610e2c565b005b34801561018057600080fd5b5061019b60048036038101906101969190611c19565b610f07565b6040516101aa93929190611f01565b60405180910390f35b3480156101bf57600080fd5b506101da60048036038101906101d59190611c85565b611232565b6040516101e993929190611f01565b60405180910390f35b3480156101fe57600080fd5b5061021960048036038101906102149190611bd8565b611553565b6040516102269190611f61565b60405180910390f35b34801561023b57600080fd5b50610244611591565b6040516102519190611f61565b60405180910390f35b34801561026657600080fd5b5061026f61159b565b60405161027c9190611f61565b60405180910390f35b34801561029157600080fd5b506102ac60048036038101906102a79190611bd8565b6115a1565b6040516102b99190611f61565b60405180910390f35b3480156102ce57600080fd5b506102d76115dd565b6040516102e49190611f3f565b60405180910390f35b3480156102f957600080fd5b5061030261166f565b60405161030f9190611f3f565b60405180910390f35b34801561032457600080fd5b5061033f600480360381019061033a9190611bd8565b6116fd565b60405161034f9493929190611eb5565b60405180910390f35b818160029190610369929190611917565b505050565b6000806060600073ffffffffffffffffffffffffffffffffffffffff1660038560405161039b9190611e16565b908152602001604051809103902060000160009054906101000a900473ffffffffffffffffffffffffffffffffffffffff1673ffffffffffffffffffffffffffffffffffffffff1614156040518060400160405280600d81526020017f696e76616c6964207175616421000000000000000000000000000000000000008152509061045c576040517f08c379a00000000000000000000000000000000000000000000000000000000081526004016104539190611f3f565b60405180910390fd5b503373ffffffffffffffffffffffffffffffffffffffff166003856040516104849190611e16565b908152602001604051809103902060000160009054906101000a900473ffffffffffffffffffffffffffffffffffffffff1673ffffffffffffffffffffffffffffffffffffffff16146040518060400160405280601d81526020017f71756164206973206e6f74206f6620796f75722070726f70657274792100000081525090610544576040517f08c379a000000000000000000000000000000000000000000000000000000000815260040161053b9190611f3f565b60405180910390fd5b5061054d61199d565b60038560405161055d9190611e16565b908152602001604051809103902060000160009054906101000a900473ffffffffffffffffffffffffffffffffffffffff16816000019073ffffffffffffffffffffffffffffffffffffffff16908173ffffffffffffffffffffffffffffffffffffffff168152505060046003866040516105d89190611e16565b9081526020016040518091039020600101546105f4919061204f565b81602001818152505060038560405161060d9190611e16565b90815260200160405180910390206002018054610629906121b0565b80601f0160208091040260200160405190810160405280929190818152602001828054610655906121b0565b80156106a25780601f10610677576101008083540402835291602001916106a2565b820191906000526020600020905b81548152906001019060200180831161068557829003601f168201915b50505050508160400181905250806003866040516020016106c39190611e93565b6040516020818303038152906040526040516106df9190611e16565b908152602001604051809103902060008201518160000160006101000a81548173ffffffffffffffffffffffffffffffffffffffff021916908373ffffffffffffffffffffffffffffffffffffffff16021790555060208201518160010155604082015181600201908051906020019061075a9291906119d4565b50905050806003866040516020016107729190611e4f565b60405160208183030381529060405260405161078e9190611e16565b908152602001604051809103902060008201518160000160006101000a81548173ffffffffffffffffffffffffffffffffffffffff021916908373ffffffffffffffffffffffffffffffffffffffff1602179055506020820151816001015560408201518160020190805190602001906108099291906119d4565b50905050806003866040516020016108219190611e2d565b60405160208183030381529060405260405161083d9190611e16565b908152602001604051809103902060008201518160000160006101000a81548173ffffffffffffffffffffffffffffffffffffffff021916908373ffffffffffffffffffffffffffffffffffffffff1602179055506020820151816001015560408201518160020190805190602001906108b89291906119d4565b50905050806003866040516020016108d09190611e71565b6040516020818303038152906040526040516108ec9190611e16565b908152602001604051809103902060008201518160000160006101000a81548173ffffffffffffffffffffffffffffffffffffffff021916908373ffffffffffffffffffffffffffffffffffffffff1602179055506020820151816001015560408201518160020190805190602001906109679291906119d4565b5090505060038560405161097b9190611e16565b9081526020016040518091039020600080820160006101000a81549073ffffffffffffffffffffffffffffffffffffffff021916905560018201600090556002820160006109c99190611a5a565b50506003856040516109db9190611e16565b908152602001604051809103902060000160009054906101000a900473ffffffffffffffffffffffffffffffffffffffff16600386604051610a1d9190611e16565b908152602001604051809103902060010154600387604051610a3f9190611e16565b9081526020016040518091039020600201808054610a5c906121b0565b80601f0160208091040260200160405190810160405280929190818152602001828054610a88906121b0565b8015610ad55780601f10610aaa57610100808354040283529160200191610ad5565b820191906000526020600020905b815481529060010190602001808311610ab857829003601f168201915b50505050509050935093509350509193909250565b600073ffffffffffffffffffffffffffffffffffffffff16600382604051610b129190611e16565b908152602001604051809103902060000160009054906101000a900473ffffffffffffffffffffffffffffffffffffffff1673ffffffffffffffffffffffffffffffffffffffff1614156040518060400160405280600d81526020017f696e76616c69642071756164210000000000000000000000000000000000000081525090610bd3576040517f08c379a0000000000000000000000000000000000000000000000000000000008152600401610bca9190611f3f565b60405180910390fd5b50610bdd81611553565b34116040518060400160405280601481526020017f696e73756666696369656e7420616d6f756e742100000000000000000000000081525090610c56576040517f08c379a0000000000000000000000000000000000000000000000000000000008152600401610c4d9190611f3f565b60405180910390fd5b50600381604051610c679190611e16565b908152602001604051809103902060000160009054906101000a900473ffffffffffffffffffffffffffffffffffffffff1673ffffffffffffffffffffffffffffffffffffffff166108fc600383604051610cc29190611e16565b9081526020016040518091039020600101549081150290604051600060405180830381858888f19350505050158015610cff573d6000803e3d6000fd5b5060008054906101000a900473ffffffffffffffffffffffffffffffffffffffff1673ffffffffffffffffffffffffffffffffffffffff166108fc610d43836115a1565b9081150290604051600060405180830381858888f19350505050158015610d6e573d6000803e3d6000fd5b503373ffffffffffffffffffffffffffffffffffffffff166108fc610d9283611553565b34610d9d91906120da565b9081150290604051600060405180830381858888f19350505050158015610dc8573d6000803e3d6000fd5b5033600382604051610dda9190611e16565b908152602001604051809103902060000160006101000a81548173ffffffffffffffffffffffffffffffffffffffff021916908373ffffffffffffffffffffffffffffffffffffffff16021790555050565b60008054906101000a900473ffffffffffffffffffffffffffffffffffffffff1673ffffffffffffffffffffffffffffffffffffffff163373ffffffffffffffffffffffffffffffffffffffff16146040518060400160405280601381526020017f696e76616c6964207065726d697373696f6e210000000000000000000000000081525090610ef2576040517f08c379a0000000000000000000000000000000000000000000000000000000008152600401610ee99190611f3f565b60405180910390fd5b508067ffffffffffffffff1660018190555050565b6000806060600073ffffffffffffffffffffffffffffffffffffffff16600386604051610f349190611e16565b908152602001604051809103902060000160009054906101000a900473ffffffffffffffffffffffffffffffffffffffff1673ffffffffffffffffffffffffffffffffffffffff1614156040518060400160405280600d81526020017f696e76616c69642071756164210000000000000000000000000000000000000081525090610ff5576040517f08c379a0000000000000000000000000000000000000000000000000000000008152600401610fec9190611f3f565b60405180910390fd5b503373ffffffffffffffffffffffffffffffffffffffff1660038660405161101d9190611e16565b908152602001604051809103902060000160009054906101000a900473ffffffffffffffffffffffffffffffffffffffff1673ffffffffffffffffffffffffffffffffffffffff16146040518060400160405280601d81526020017f71756164206973206e6f74206f6620796f75722070726f706572747921000000815250906110dd576040517f08c379a00000000000000000000000000000000000000000000000000000000081526004016110d49190611f3f565b60405180910390fd5b50836003866040516110ef9190611e16565b908152602001604051809103902060020190805190602001906111139291906119d4565b506003856040516111249190611e16565b908152602001604051809103902060000160009054906101000a900473ffffffffffffffffffffffffffffffffffffffff166003866040516111669190611e16565b9081526020016040518091039020600101546003876040516111889190611e16565b90815260200160405180910390206002018080546111a5906121b0565b80601f01602080910402602001604051908101604052809291908181526020018280546111d1906121b0565b801561121e5780601f106111f35761010080835404028352916020019161121e565b820191906000526020600020905b81548152906001019060200180831161120157829003601f168201915b505050505090509250925092509250925092565b6000806060600073ffffffffffffffffffffffffffffffffffffffff1660038660405161125f9190611e16565b908152602001604051809103902060000160009054906101000a900473ffffffffffffffffffffffffffffffffffffffff1673ffffffffffffffffffffffffffffffffffffffff1614156040518060400160405280600d81526020017f696e76616c69642071756164210000000000000000000000000000000000000081525090611320576040517f08c379a00000000000000000000000000000000000000000000000000000000081526004016113179190611f3f565b60405180910390fd5b503373ffffffffffffffffffffffffffffffffffffffff166003866040516113489190611e16565b908152602001604051809103902060000160009054906101000a900473ffffffffffffffffffffffffffffffffffffffff1673ffffffffffffffffffffffffffffffffffffffff16146040518060400160405280601d81526020017f71756164206973206e6f74206f6620796f75722070726f70657274792100000081525090611408576040517f08c379a00000000000000000000000000000000000000000000000000000000081526004016113ff9190611f3f565b60405180910390fd5b508363ffffffff166003866040516114209190611e16565b9081526020016040518091039020600101819055506003856040516114459190611e16565b908152602001604051809103902060000160009054906101000a900473ffffffffffffffffffffffffffffffffffffffff166003866040516114879190611e16565b9081526020016040518091039020600101546003876040516114a99190611e16565b90815260200160405180910390206002018080546114c6906121b0565b80601f01602080910402602001604051908101604052809291908181526020018280546114f2906121b0565b801561153f5780601f106115145761010080835404028352916020019161153f565b820191906000526020600020905b81548152906001019060200180831161152257829003601f168201915b505050505090509250925092509250925092565b600061155e826115a1565b60038360405161156e9190611e16565b90815260200160405180910390206001015461158a9190611ff9565b9050919050565b6000600154905090565b60015481565b600060206001546003846040516115b89190611e16565b9081526020016040518091039020600101546115d49190612080565b901c9050919050565b6060600280546115ec906121b0565b80601f0160208091040260200160405190810160405280929190818152602001828054611618906121b0565b80156116655780601f1061163a57610100808354040283529160200191611665565b820191906000526020600020905b81548152906001019060200180831161164857829003601f168201915b5050505050905090565b6002805461167c906121b0565b80601f01602080910402602001604051908101604052809291908181526020018280546116a8906121b0565b80156116f55780601f106116ca576101008083540402835291602001916116f5565b820191906000526020600020905b8154815290600101906020018083116116d857829003601f168201915b505050505081565b60006060600080600073ffffffffffffffffffffffffffffffffffffffff1660038660405161172c9190611e16565b908152602001604051809103902060000160009054906101000a900473ffffffffffffffffffffffffffffffffffffffff1673ffffffffffffffffffffffffffffffffffffffff1614156040518060400160405280600d81526020017f696e76616c696420717561642100000000000000000000000000000000000000815250906117ed576040517f08c379a00000000000000000000000000000000000000000000000000000000081526004016117e49190611f3f565b60405180910390fd5b506003856040516117fe9190611e16565b908152602001604051809103902060000160009054906101000a900473ffffffffffffffffffffffffffffffffffffffff166003866040516118409190611e16565b90815260200160405180910390206002016003876040516118619190611e16565b90815260200160405180910390206001015461187c88611553565b828054611888906121b0565b80601f01602080910402602001604051908101604052809291908181526020018280546118b4906121b0565b80156119015780601f106118d657610100808354040283529160200191611901565b820191906000526020600020905b8154815290600101906020018083116118e457829003601f168201915b5050505050925093509350935093509193509193565b828054611923906121b0565b90600052602060002090601f016020900481019282611945576000855561198c565b82601f1061195e57803560ff191683800117855561198c565b8280016001018555821561198c579182015b8281111561198b578235825591602001919060010190611970565b5b5090506119999190611a9a565b5090565b6040518060600160405280600073ffffffffffffffffffffffffffffffffffffffff16815260200160008152602001606081525090565b8280546119e0906121b0565b90600052602060002090601f016020900481019282611a025760008555611a49565b82601f10611a1b57805160ff1916838001178555611a49565b82800160010185558215611a49579182015b82811115611a48578251825591602001919060010190611a2d565b5b509050611a569190611a9a565b5090565b508054611a66906121b0565b6000825580601f10611a785750611a97565b601f016020900490600052602060002090810190611a969190611a9a565b5b50565b5b80821115611ab3576000816000905550600101611a9b565b5090565b6000611aca611ac584611fa1565b611f7c565b905082815260208101848484011115611ae257600080fd5b611aed84828561216e565b509392505050565b60008083601f840112611b0757600080fd5b8235905067ffffffffffffffff811115611b2057600080fd5b602083019150836001820283011115611b3857600080fd5b9250929050565b600082601f830112611b5057600080fd5b8135611b60848260208601611ab7565b91505092915050565b600081359050611b7881612384565b92915050565b600081359050611b8d8161239b565b92915050565b60008060208385031215611ba657600080fd5b600083013567ffffffffffffffff811115611bc057600080fd5b611bcc85828601611af5565b92509250509250929050565b600060208284031215611bea57600080fd5b600082013567ffffffffffffffff811115611c0457600080fd5b611c1084828501611b3f565b91505092915050565b60008060408385031215611c2c57600080fd5b600083013567ffffffffffffffff811115611c4657600080fd5b611c5285828601611b3f565b925050602083013567ffffffffffffffff811115611c6f57600080fd5b611c7b85828601611b3f565b9150509250929050565b60008060408385031215611c9857600080fd5b600083013567ffffffffffffffff811115611cb257600080fd5b611cbe85828601611b3f565b9250506020611ccf85828601611b69565b9150509250929050565b600060208284031215611ceb57600080fd5b6000611cf984828501611b7e565b91505092915050565b611d0b8161210e565b82525050565b6000611d1c82611fd2565b611d268185611fdd565b9350611d3681856020860161217d565b611d3f816122cf565b840191505092915050565b6000611d5582611fd2565b611d5f8185611fee565b9350611d6f81856020860161217d565b80840191505092915050565b6000611d88600283611fee565b9150611d93826122e0565b600282019050919050565b6000611dab600283611fee565b9150611db682612309565b600282019050919050565b6000611dce600283611fee565b9150611dd982612332565b600282019050919050565b6000611df1600283611fee565b9150611dfc8261235b565b600282019050919050565b611e1081612140565b82525050565b6000611e228284611d4a565b915081905092915050565b6000611e398284611d4a565b9150611e4482611d7b565b915081905092915050565b6000611e5b8284611d4a565b9150611e6682611d9e565b915081905092915050565b6000611e7d8284611d4a565b9150611e8882611dc1565b915081905092915050565b6000611e9f8284611d4a565b9150611eaa82611de4565b915081905092915050565b6000608082019050611eca6000830187611d02565b8181036020830152611edc8186611d11565b9050611eeb6040830185611e07565b611ef86060830184611e07565b95945050505050565b6000606082019050611f166000830186611d02565b611f236020830185611e07565b8181036040830152611f358184611d11565b9050949350505050565b60006020820190508181036000830152611f598184611d11565b905092915050565b6000602082019050611f766000830184611e07565b92915050565b6000611f86611f97565b9050611f9282826121e2565b919050565b6000604051905090565b600067ffffffffffffffff821115611fbc57611fbb6122a0565b5b611fc5826122cf565b9050602081019050919050565b600081519050919050565b600082825260208201905092915050565b600081905092915050565b600061200482612140565b915061200f83612140565b9250827fffffffffffffffffffffffffffffffffffffffffffffffffffffffffffffffff0382111561204457612043612213565b5b828201905092915050565b600061205a82612140565b915061206583612140565b92508261207557612074612242565b5b828204905092915050565b600061208b82612140565b915061209683612140565b9250817fffffffffffffffffffffffffffffffffffffffffffffffffffffffffffffffff04831182151516156120cf576120ce612213565b5b828202905092915050565b60006120e582612140565b91506120f083612140565b92508282101561210357612102612213565b5b828203905092915050565b600061211982612120565b9050919050565b600073ffffffffffffffffffffffffffffffffffffffff82169050919050565b6000819050919050565b600063ffffffff82169050919050565b600067ffffffffffffffff82169050919050565b82818337600083830152505050565b60005b8381101561219b578082015181840152602081019050612180565b838111156121aa576000848401525b50505050565b600060028204905060018216806121c857607f821691505b602082108114156121dc576121db612271565b5b50919050565b6121eb826122cf565b810181811067ffffffffffffffff8211171561220a576122096122a0565b5b80604052505050565b7f4e487b7100000000000000000000000000000000000000000000000000000000600052601160045260246000fd5b7f4e487b7100000000000000000000000000000000000000000000000000000000600052601260045260246000fd5b7f4e487b7100000000000000000000000000000000000000000000000000000000600052602260045260246000fd5b7f4e487b7100000000000000000000000000000000000000000000000000000000600052604160045260246000fd5b6000601f19601f8301169050919050565b7f3130000000000000000000000000000000000000000000000000000000000000600082015250565b7f3031000000000000000000000000000000000000000000000000000000000000600082015250565b7f3131000000000000000000000000000000000000000000000000000000000000600082015250565b7f3030000000000000000000000000000000000000000000000000000000000000600082015250565b61238d8161214a565b811461239857600080fd5b50565b6123a48161215a565b81146123af57600080fd5b5056fea2646970667358221220e29bf453c931636bc93c2bc64e3e9c636fc965e3a93a26b236951b98779e5d4f64736f6c63430008040033",
  "immutableReferences": {},
  "source": "// SPDX-License-Identifier: GPL-3.0\n\npragma solidity >=0.7.0 <0.9.0;\n\n/**\n * @title CryptoLand\n * @dev alex\n */\ncontract CryptoLand {\n\n    address payable private contractOwner=payable(address(0x5B38Da6a701c568545dCfcB03FcB875f56beddC4));\n    string constant _error_invalid_permission = \"invalid permission!\";\n    string constant _error_invalid_quad = \"invalid quad!\";\n    string constant _error_quad_not_your_property = \"quad is not of your property!\";\n    string constant _error_insufficient_amount=\"insufficient amount!\";\n    uint256 public fee=4294967;//0.1% expressed as range in 2^32 -> 0.001*(1<<32)\n    \n    string public greeting = \"hello\";\n    function sayHello() external view returns (string memory) {\n        return greeting;\n    }\n\n    function updateGreeting(string calldata _greeting) external {\n        greeting = _greeting;\n    }\n\n    \n    struct Land {\n        address payable owner;\n        uint256 price;\n        string name;\n    }\n    \n    \n    mapping(string=> Land) lands;\n    \n    constructor() {\n        lands[\"\"].owner=contractOwner;//payable(address(this));\n        lands[\"\"].price=1000000000000000000;\n        lands[\"\"].name=\"global\";\n    }\n    \n    \n    //contract owner methods\n    function setFee(uint64 fee1e32) public  {\n        require(msg.sender==contractOwner,_error_invalid_permission);\n        fee=fee1e32;\n    }\n    \n\n    //public methods\n    function buy(string memory quad) public payable {\n        require(lands[quad].owner!=address(0),_error_invalid_quad);\n        require(msg.value>getCost(quad),_error_insufficient_amount);\n        lands[quad].owner.transfer(lands[quad].price);\n        contractOwner.transfer(getFee(quad));\n        payable(msg.sender).transfer(msg.value-getCost(quad));\n        lands[quad].owner=payable(msg.sender);\n    }\n    \n    \n    function lookup(string memory quad) public returns (address, string memory,uint256,uint256) {\n        require(lands[quad].owner!=address(0),_error_invalid_quad);\n        return (lands[quad].owner,lands[quad].name,lands[quad].price,getCost(quad));\n    }\n    \n    function getFee(string memory quad) public returns (uint256)\n    {\n       return (lands[quad].price*fee)>>32;\n    }\n    \n    \n    function getCost(string memory quad) public returns (uint256)\n    {\n       return lands[quad].price+getFee(quad);\n    }\n    \n    function getFee() public returns (uint256) {\n        return (fee);\n    }\n    \n    //land owner methods\n    function setName(string memory quad,string memory name) public returns (address, uint256, string memory) {\n        require(lands[quad].owner!=address(0),_error_invalid_quad);\n        require(lands[quad].owner==msg.sender,_error_quad_not_your_property);\n        lands[quad].name=name;\n        return (lands[quad].owner,lands[quad].price,lands[quad].name);\n    }\n    \n    function setPrice(string memory quad,uint32 price) public returns (address, uint256, string memory) {\n        require(lands[quad].owner!=address(0),_error_invalid_quad);\n        require(lands[quad].owner==msg.sender,_error_quad_not_your_property);\n        lands[quad].price=price;\n        return (lands[quad].owner,lands[quad].price,lands[quad].name);\n    }\n    \n    function split(string memory quad) public returns (address, uint256, string memory) {\n        require(lands[quad].owner!=address(0),_error_invalid_quad);\n        require(lands[quad].owner==msg.sender,_error_quad_not_your_property);\n        Land memory l;\n        l.owner=lands[quad].owner;\n        l.price=lands[quad].price/4;\n        l.name=lands[quad].name;\n        lands[string(abi.encodePacked(quad,\"00\"))]=l;\n        lands[string(abi.encodePacked(quad,\"01\"))]=l;\n        lands[string(abi.encodePacked(quad,\"10\"))]=l;\n        lands[string(abi.encodePacked(quad,\"11\"))]=l;\n        delete lands[quad];\n        return (lands[quad].owner,lands[quad].price,lands[quad].name);\n    }\n\n    \n}",
  "sourcePath": "/home/alex/projetti/CryptoLand/cryptolandWeb/contracts/CryptoLand.sol",
  "compiler": {
    "name": "solc",
    "version": "0.8.4+commit.c7e474f2.Emscripten.clang"
  },
  "schemaVersion": "3.4.1",
  "updatedAt": "2021-05-23T21:35:31.062Z",
  "devdoc": {
    "details": "alex",
    "kind": "dev",
    "methods": {},
    "title": "CryptoLand",
    "version": 1
  },
  "userdoc": {
    "kind": "user",
    "methods": {},
    "version": 1
  }
}