{
  "contractName": "CryptoLand",
  "abi": [
    {
      "inputs": [],
      "stateMutability": "nonpayable",
      "type": "constructor"
    },
    {
      "anonymous": false,
      "inputs": [
        {
          "indexed": false,
          "internalType": "string",
          "name": "quad",
          "type": "string"
        }
      ],
      "name": "BuyEvent",
      "type": "event"
    },
    {
      "inputs": [],
      "name": "fee",
      "outputs": [
        {
          "internalType": "uint256",
          "name": "",
          "type": "uint256"
        }
      ],
      "stateMutability": "view",
      "type": "function",
      "constant": true
    },
    {
      "inputs": [],
      "name": "greeting",
      "outputs": [
        {
          "internalType": "string",
          "name": "",
          "type": "string"
        }
      ],
      "stateMutability": "view",
      "type": "function",
      "constant": true
    },
    {
      "inputs": [],
      "name": "sayHello",
      "outputs": [
        {
          "internalType": "string",
          "name": "",
          "type": "string"
        }
      ],
      "stateMutability": "view",
      "type": "function",
      "constant": true
    },
    {
      "inputs": [
        {
          "internalType": "string",
          "name": "_greeting",
          "type": "string"
        }
      ],
      "name": "updateGreeting",
      "outputs": [],
      "stateMutability": "nonpayable",
      "type": "function"
    },
    {
      "inputs": [
        {
          "internalType": "uint64",
          "name": "fee1e32",
          "type": "uint64"
        }
      ],
      "name": "setFee",
      "outputs": [],
      "stateMutability": "nonpayable",
      "type": "function"
    },
    {
      "inputs": [
        {
          "internalType": "string",
          "name": "quad",
          "type": "string"
        }
      ],
      "name": "buy",
      "outputs": [],
      "stateMutability": "payable",
      "type": "function",
      "payable": true
    },
    {
      "inputs": [
        {
          "internalType": "string",
          "name": "quad",
          "type": "string"
        }
      ],
      "name": "getParent",
      "outputs": [
        {
          "internalType": "string",
          "name": "",
          "type": "string"
        }
      ],
      "stateMutability": "nonpayable",
      "type": "function"
    },
    {
      "inputs": [
        {
          "internalType": "string",
          "name": "quad",
          "type": "string"
        }
      ],
      "name": "getQuad",
      "outputs": [
        {
          "components": [
            {
              "internalType": "address payable",
              "name": "owner",
              "type": "address"
            },
            {
              "internalType": "uint256",
              "name": "price",
              "type": "uint256"
            },
            {
              "internalType": "string",
              "name": "content",
              "type": "string"
            }
          ],
          "internalType": "struct CryptoLand.Land",
          "name": "",
          "type": "tuple"
        }
      ],
      "stateMutability": "nonpayable",
      "type": "function"
    },
    {
      "inputs": [
        {
          "internalType": "string",
          "name": "quad",
          "type": "string"
        }
      ],
      "name": "hello",
      "outputs": [
        {
          "internalType": "string",
          "name": "",
          "type": "string"
        }
      ],
      "stateMutability": "nonpayable",
      "type": "function"
    },
    {
      "inputs": [
        {
          "internalType": "string",
          "name": "quad",
          "type": "string"
        }
      ],
      "name": "getQuadFee",
      "outputs": [
        {
          "internalType": "uint256",
          "name": "",
          "type": "uint256"
        }
      ],
      "stateMutability": "nonpayable",
      "type": "function"
    },
    {
      "inputs": [
        {
          "internalType": "string",
          "name": "quad",
          "type": "string"
        }
      ],
      "name": "getQuadCost",
      "outputs": [
        {
          "internalType": "uint256",
          "name": "",
          "type": "uint256"
        }
      ],
      "stateMutability": "nonpayable",
      "type": "function"
    },
    {
      "inputs": [],
      "name": "getFee",
      "outputs": [
        {
          "internalType": "uint256",
          "name": "",
          "type": "uint256"
        }
      ],
      "stateMutability": "nonpayable",
      "type": "function"
    },
    {
      "inputs": [
        {
          "internalType": "string",
          "name": "quad",
          "type": "string"
        },
        {
          "internalType": "int256",
          "name": "price",
          "type": "int256"
        },
        {
          "internalType": "string",
          "name": "content",
          "type": "string"
        }
      ],
      "name": "setQuad",
      "outputs": [
        {
          "components": [
            {
              "internalType": "address payable",
              "name": "owner",
              "type": "address"
            },
            {
              "internalType": "uint256",
              "name": "price",
              "type": "uint256"
            },
            {
              "internalType": "string",
              "name": "content",
              "type": "string"
            }
          ],
          "internalType": "struct CryptoLand.Land",
          "name": "",
          "type": "tuple"
        }
      ],
      "stateMutability": "nonpayable",
      "type": "function"
    },
    {
      "inputs": [
        {
          "internalType": "string",
          "name": "quad",
          "type": "string"
        },
        {
          "internalType": "string",
          "name": "content",
          "type": "string"
        }
      ],
      "name": "setContent",
      "outputs": [
        {
          "components": [
            {
              "internalType": "address payable",
              "name": "owner",
              "type": "address"
            },
            {
              "internalType": "uint256",
              "name": "price",
              "type": "uint256"
            },
            {
              "internalType": "string",
              "name": "content",
              "type": "string"
            }
          ],
          "internalType": "struct CryptoLand.Land",
          "name": "",
          "type": "tuple"
        }
      ],
      "stateMutability": "nonpayable",
      "type": "function"
    },
    {
      "inputs": [
        {
          "internalType": "string",
          "name": "quad",
          "type": "string"
        },
        {
          "internalType": "int256",
          "name": "price",
          "type": "int256"
        }
      ],
      "name": "setPrice",
      "outputs": [
        {
          "components": [
            {
              "internalType": "address payable",
              "name": "owner",
              "type": "address"
            },
            {
              "internalType": "uint256",
              "name": "price",
              "type": "uint256"
            },
            {
              "internalType": "string",
              "name": "content",
              "type": "string"
            }
          ],
          "internalType": "struct CryptoLand.Land",
          "name": "",
          "type": "tuple"
        }
      ],
      "stateMutability": "nonpayable",
      "type": "function"
    },
    {
      "inputs": [
        {
          "internalType": "string",
          "name": "quad",
          "type": "string"
        }
      ],
      "name": "split",
      "outputs": [
        {
          "components": [
            {
              "internalType": "address payable",
              "name": "owner",
              "type": "address"
            },
            {
              "internalType": "uint256",
              "name": "price",
              "type": "uint256"
            },
            {
              "internalType": "string",
              "name": "content",
              "type": "string"
            }
          ],
          "internalType": "struct CryptoLand.Land",
          "name": "",
          "type": "tuple"
        }
      ],
      "stateMutability": "nonpayable",
      "type": "function"
    },
    {
      "inputs": [
        {
          "internalType": "string",
          "name": "quad",
          "type": "string"
        }
      ],
      "name": "split2",
      "outputs": [
        {
          "components": [
            {
              "internalType": "address payable",
              "name": "owner",
              "type": "address"
            },
            {
              "internalType": "uint256",
              "name": "price",
              "type": "uint256"
            },
            {
              "internalType": "string",
              "name": "content",
              "type": "string"
            }
          ],
          "internalType": "struct CryptoLand.Land",
          "name": "",
          "type": "tuple"
        }
      ],
      "stateMutability": "nonpayable",
      "type": "function"
    },
    {
      "inputs": [
        {
          "internalType": "string",
          "name": "quad",
          "type": "string"
        },
        {
          "internalType": "uint256",
          "name": "i",
          "type": "uint256"
        }
      ],
      "name": "appendS",
      "outputs": [
        {
          "internalType": "string",
          "name": "",
          "type": "string"
        }
      ],
      "stateMutability": "nonpayable",
      "type": "function"
    },
    {
      "inputs": [
        {
          "internalType": "address",
          "name": "o",
          "type": "address"
        }
      ],
      "name": "getProperties",
      "outputs": [
        {
          "internalType": "string[]",
          "name": "",
          "type": "string[]"
        }
      ],
      "stateMutability": "nonpayable",
      "type": "function"
    },
    {
      "inputs": [
        {
          "internalType": "string",
          "name": "quad",
          "type": "string"
        }
      ],
      "name": "getLand",
      "outputs": [
        {
          "components": [
            {
              "internalType": "address payable",
              "name": "owner",
              "type": "address"
            },
            {
              "internalType": "uint256",
              "name": "price",
              "type": "uint256"
            },
            {
              "internalType": "string",
              "name": "content",
              "type": "string"
            }
          ],
          "internalType": "struct CryptoLand.Land",
          "name": "",
          "type": "tuple"
        }
      ],
      "stateMutability": "nonpayable",
      "type": "function"
    }
  ],
  "bytecode": "0x6080604052735b38da6a701c568545dcfcb03fcb875f56beddc46000806101000a81548173ffffffffffffffffffffffffffffffffffffffff021916908373ffffffffffffffffffffffffffffffffffffffff160217905550624189376001556040518060400160405280600581526020017f68656c6c6f00000000000000000000000000000000000000000000000000000081525060029080519060200190620000ac929190620000c1565b50348015620000ba57600080fd5b50620001d6565b828054620000cf9062000171565b90600052602060002090601f016020900481019282620000f357600085556200013f565b82601f106200010e57805160ff19168380011785556200013f565b828001600101855582156200013f579182015b828111156200013e57825182559160200191906001019062000121565b5b5090506200014e919062000152565b5090565b5b808211156200016d57600081600090555060010162000153565b5090565b600060028204905060018216806200018a57607f821691505b60208210811415620001a157620001a0620001a7565b5b50919050565b7f4e487b7100000000000000000000000000000000000000000000000000000000600052602260045260246000fd5b61355c80620001e66000396000f3fe60806040526004361061011f5760003560e01c8063a777d0dc116100a0578063ddca3f4311610064578063ddca3f431461045c578063e55ffcc114610487578063ebfe1b57146104c4578063ef5fb05b14610501578063ef690cc01461052c5761011f565b8063a777d0dc1461033d578063b502ae461461037a578063ca10ba4d146103b7578063ced72f87146103f4578063da6fdf821461041f5761011f565b8063513fa864116100e7578063513fa864146102205780635a630d7a1461025d5780636c844a7b146102865780638e1b0701146102c3578063a5e0dd94146103005761011f565b8063145591a8146101245780632867cc44146101615780632a7b2c931461018a57806347be8583146101c7578063492cc76914610204575b600080fd5b34801561013057600080fd5b5061014b60048036038101906101469190612b05565b610557565b6040516101589190612e9c565b60405180910390f35b34801561016d57600080fd5b5061018860048036038101906101839190612940565b6106a6565b005b34801561019657600080fd5b506101b160048036038101906101ac9190612985565b6106bc565b6040516101be9190612ebe565b60405180910390f35b3480156101d357600080fd5b506101ee60048036038101906101e99190612a1a565b610e3f565b6040516101fb9190612ebe565b60405180910390f35b61021e60048036038101906102199190612985565b6111af565b005b34801561022c57600080fd5b5061024760048036038101906102429190612917565b611419565b6040516102549190612e7a565b60405180910390f35b34801561026957600080fd5b50610284600480360381019061027f9190612b59565b611531565b005b34801561029257600080fd5b506102ad60048036038101906102a89190612985565b61160c565b6040516102ba9190612ebe565b60405180910390f35b3480156102cf57600080fd5b506102ea60048036038101906102e59190612985565b611736565b6040516102f79190612ebe565b60405180910390f35b34801561030c57600080fd5b5061032760048036038101906103229190612a99565b611860565b6040516103349190612ebe565b60405180910390f35b34801561034957600080fd5b50610364600480360381019061035f9190612985565b611b93565b6040516103719190612e9c565b60405180910390f35b34801561038657600080fd5b506103a1600480360381019061039c9190612985565b611bd2565b6040516103ae9190612ebe565b60405180910390f35b3480156103c357600080fd5b506103de60048036038101906103d99190612985565b61209f565b6040516103eb9190612ee0565b60405180910390f35b34801561040057600080fd5b506104096120dd565b6040516104169190612ee0565b60405180910390f35b34801561042b57600080fd5b50610446600480360381019061044191906129c6565b6120e7565b6040516104539190612ebe565b60405180910390f35b34801561046857600080fd5b50610471612336565b60405161047e9190612ee0565b60405180910390f35b34801561049357600080fd5b506104ae60048036038101906104a99190612985565b61233c565b6040516104bb9190612e9c565b60405180910390f35b3480156104d057600080fd5b506104eb60048036038101906104e69190612985565b6124a2565b6040516104f89190612ee0565b60405180910390f35b34801561050d57600080fd5b506105166124de565b6040516105239190612e9c565b60405180910390f35b34801561053857600080fd5b50610541612570565b60405161054e9190612e9c565b60405180910390f35b606060006040518060400160405280601081526020017f3031323334353637383961626364656600000000000000000000000000000000815250905060006040518060400160405280600181526020017f30000000000000000000000000000000000000000000000000000000000000008152509050818481518110610606577f4e487b7100000000000000000000000000000000000000000000000000000000600052603260045260246000fd5b602001015160f81c60f81b8160008151811061064b577f4e487b7100000000000000000000000000000000000000000000000000000000600052603260045260246000fd5b60200101907effffffffffffffffffffffffffffffffffffffffffffffffffffffffffffff1916908160001a905350848160405160200161068d929190612dce565b6040516020818303038152906040529250505092915050565b8181600291906106b7929190612671565b505050565b6106c46126f7565b600073ffffffffffffffffffffffffffffffffffffffff166003836040516106ec9190612db7565b908152602001604051809103902060000160009054906101000a900473ffffffffffffffffffffffffffffffffffffffff1673ffffffffffffffffffffffffffffffffffffffff1614156040518060400160405280600d81526020017f696e76616c696420717561642100000000000000000000000000000000000000815250906107ad576040517f08c379a00000000000000000000000000000000000000000000000000000000081526004016107a49190612e9c565b60405180910390fd5b503373ffffffffffffffffffffffffffffffffffffffff166003836040516107d59190612db7565b908152602001604051809103902060000160009054906101000a900473ffffffffffffffffffffffffffffffffffffffff1673ffffffffffffffffffffffffffffffffffffffff16146040518060400160405280601d81526020017f71756164206973206e6f74206f6620796f75722070726f70657274792100000081525090610895576040517f08c379a000000000000000000000000000000000000000000000000000000000815260040161088c9190612e9c565b60405180910390fd5b5061089e6126f7565b6003836040516108ae9190612db7565b908152602001604051809103902060000160009054906101000a900473ffffffffffffffffffffffffffffffffffffffff16816000019073ffffffffffffffffffffffffffffffffffffffff16908173ffffffffffffffffffffffffffffffffffffffff168152505060046003846040516109299190612db7565b90815260200160405180910390206001015461094591906130ac565b81602001818152505060038360405161095e9190612db7565b9081526020016040518091039020600201805461097a906132ad565b80601f01602080910402602001604051908101604052809291908181526020018280546109a6906132ad565b80156109f35780601f106109c8576101008083540402835291602001916109f3565b820191906000526020600020905b8154815290600101906020018083116109d657829003601f168201915b5050505050816040018190525080600384604051602001610a149190612e58565b604051602081830303815290604052604051610a309190612db7565b908152602001604051809103902060008201518160000160006101000a81548173ffffffffffffffffffffffffffffffffffffffff021916908373ffffffffffffffffffffffffffffffffffffffff160217905550602082015181600101556040820151816002019080519060200190610aab92919061272e565b5090505080600384604051602001610ac39190612e14565b604051602081830303815290604052604051610adf9190612db7565b908152602001604051809103902060008201518160000160006101000a81548173ffffffffffffffffffffffffffffffffffffffff021916908373ffffffffffffffffffffffffffffffffffffffff160217905550602082015181600101556040820151816002019080519060200190610b5a92919061272e565b5090505080600384604051602001610b729190612df2565b604051602081830303815290604052604051610b8e9190612db7565b908152602001604051809103902060008201518160000160006101000a81548173ffffffffffffffffffffffffffffffffffffffff021916908373ffffffffffffffffffffffffffffffffffffffff160217905550602082015181600101556040820151816002019080519060200190610c0992919061272e565b5090505080600384604051602001610c219190612e36565b604051602081830303815290604052604051610c3d9190612db7565b908152602001604051809103902060008201518160000160006101000a81548173ffffffffffffffffffffffffffffffffffffffff021916908373ffffffffffffffffffffffffffffffffffffffff160217905550602082015181600101556040820151816002019080519060200190610cb892919061272e565b50905050600383604051610ccc9190612db7565b9081526020016040518091039020600080820160006101000a81549073ffffffffffffffffffffffffffffffffffffffff02191690556001820160009055600282016000610d1a91906127b4565b5050600383604051610d2c9190612db7565b90815260200160405180910390206040518060600160405290816000820160009054906101000a900473ffffffffffffffffffffffffffffffffffffffff1673ffffffffffffffffffffffffffffffffffffffff1673ffffffffffffffffffffffffffffffffffffffff16815260200160018201548152602001600282018054610db5906132ad565b80601f0160208091040260200160405190810160405280929190818152602001828054610de1906132ad565b8015610e2e5780601f10610e0357610100808354040283529160200191610e2e565b820191906000526020600020905b815481529060010190602001808311610e1157829003601f168201915b505050505081525050915050919050565b610e476126f7565b600073ffffffffffffffffffffffffffffffffffffffff16600385604051610e6f9190612db7565b908152602001604051809103902060000160009054906101000a900473ffffffffffffffffffffffffffffffffffffffff1673ffffffffffffffffffffffffffffffffffffffff1614156040518060400160405280600d81526020017f696e76616c69642071756164210000000000000000000000000000000000000081525090610f30576040517f08c379a0000000000000000000000000000000000000000000000000000000008152600401610f279190612e9c565b60405180910390fd5b503373ffffffffffffffffffffffffffffffffffffffff16600385604051610f589190612db7565b908152602001604051809103902060000160009054906101000a900473ffffffffffffffffffffffffffffffffffffffff1673ffffffffffffffffffffffffffffffffffffffff16146040518060400160405280601d81526020017f71756164206973206e6f74206f6620796f75722070726f70657274792100000081525090611018576040517f08c379a000000000000000000000000000000000000000000000000000000000815260040161100f9190612e9c565b60405180910390fd5b50600060038560405161102b9190612db7565b908152602001604051809103902060010154846110489190613137565b905061105485826125fe565b826003866040516110659190612db7565b9081526020016040518091039020600201908051906020019061108992919061272e565b5060038560405161109a9190612db7565b90815260200160405180910390206040518060600160405290816000820160009054906101000a900473ffffffffffffffffffffffffffffffffffffffff1673ffffffffffffffffffffffffffffffffffffffff1673ffffffffffffffffffffffffffffffffffffffff16815260200160018201548152602001600282018054611123906132ad565b80601f016020809104026020016040519081016040528092919081815260200182805461114f906132ad565b801561119c5780601f106111715761010080835404028352916020019161119c565b820191906000526020600020905b81548152906001019060200180831161117f57829003601f168201915b5050505050815250509150509392505050565b60006111ba8261209f565b90508034146040518060400160405280601481526020017f696e73756666696369656e7420616d6f756e742100000000000000000000000081525090611236576040517f08c379a000000000000000000000000000000000000000000000000000000000815260040161122d9190612e9c565b60405180910390fd5b506003826040516112479190612db7565b908152602001604051809103902060000160009054906101000a900473ffffffffffffffffffffffffffffffffffffffff1673ffffffffffffffffffffffffffffffffffffffff166108fc6003846040516112a29190612db7565b9081526020016040518091039020600101549081150290604051600060405180830381858888f193505050501580156112df573d6000803e3d6000fd5b5060008054906101000a900473ffffffffffffffffffffffffffffffffffffffff1673ffffffffffffffffffffffffffffffffffffffff166108fc60038460405161132a9190612db7565b9081526020016040518091039020600101548361134791906131cb565b9081150290604051600060405180830381858888f19350505050158015611372573d6000803e3d6000fd5b50336003836040516113849190612db7565b908152602001604051809103902060000160006101000a81548173ffffffffffffffffffffffffffffffffffffffff021916908373ffffffffffffffffffffffffffffffffffffffff1602179055506113de8260006125fe565b7fc81149a7bc4f4f826d5574f07223c9674a867fb41a50420756f01f962bece5a68260405161140d9190612e9c565b60405180910390a15050565b6060600460008373ffffffffffffffffffffffffffffffffffffffff1673ffffffffffffffffffffffffffffffffffffffff168152602001908152602001600020805480602002602001604051908101604052809291908181526020016000905b82821015611526578382906000526020600020018054611499906132ad565b80601f01602080910402602001604051908101604052809291908181526020018280546114c5906132ad565b80156115125780601f106114e757610100808354040283529160200191611512565b820191906000526020600020905b8154815290600101906020018083116114f557829003601f168201915b50505050508152602001906001019061147a565b505050509050919050565b60008054906101000a900473ffffffffffffffffffffffffffffffffffffffff1673ffffffffffffffffffffffffffffffffffffffff163373ffffffffffffffffffffffffffffffffffffffff16146040518060400160405280601381526020017f696e76616c6964207065726d697373696f6e2100000000000000000000000000815250906115f7576040517f08c379a00000000000000000000000000000000000000000000000000000000081526004016115ee9190612e9c565b60405180910390fd5b508067ffffffffffffffff1660018190555050565b6116146126f7565b6003826040516116249190612db7565b90815260200160405180910390206040518060600160405290816000820160009054906101000a900473ffffffffffffffffffffffffffffffffffffffff1673ffffffffffffffffffffffffffffffffffffffff1673ffffffffffffffffffffffffffffffffffffffff168152602001600182015481526020016002820180546116ad906132ad565b80601f01602080910402602001604051908101604052809291908181526020018280546116d9906132ad565b80156117265780601f106116fb57610100808354040283529160200191611726565b820191906000526020600020905b81548152906001019060200180831161170957829003601f168201915b5050505050815250509050919050565b61173e6126f7565b60038260405161174e9190612db7565b90815260200160405180910390206040518060600160405290816000820160009054906101000a900473ffffffffffffffffffffffffffffffffffffffff1673ffffffffffffffffffffffffffffffffffffffff1673ffffffffffffffffffffffffffffffffffffffff168152602001600182015481526020016002820180546117d7906132ad565b80601f0160208091040260200160405190810160405280929190818152602001828054611803906132ad565b80156118505780601f1061182557610100808354040283529160200191611850565b820191906000526020600020905b81548152906001019060200180831161183357829003601f168201915b5050505050815250509050919050565b6118686126f7565b600073ffffffffffffffffffffffffffffffffffffffff166003846040516118909190612db7565b908152602001604051809103902060000160009054906101000a900473ffffffffffffffffffffffffffffffffffffffff1673ffffffffffffffffffffffffffffffffffffffff1614156040518060400160405280600d81526020017f696e76616c69642071756164210000000000000000000000000000000000000081525090611951576040517f08c379a00000000000000000000000000000000000000000000000000000000081526004016119489190612e9c565b60405180910390fd5b503373ffffffffffffffffffffffffffffffffffffffff166003846040516119799190612db7565b908152602001604051809103902060000160009054906101000a900473ffffffffffffffffffffffffffffffffffffffff1673ffffffffffffffffffffffffffffffffffffffff16146040518060400160405280601d81526020017f71756164206973206e6f74206f6620796f75722070726f70657274792100000081525090611a39576040517f08c379a0000000000000000000000000000000000000000000000000000000008152600401611a309190612e9c565b60405180910390fd5b5081600384604051611a4b9190612db7565b90815260200160405180910390206002019080519060200190611a6f92919061272e565b50600383604051611a809190612db7565b90815260200160405180910390206040518060600160405290816000820160009054906101000a900473ffffffffffffffffffffffffffffffffffffffff1673ffffffffffffffffffffffffffffffffffffffff1673ffffffffffffffffffffffffffffffffffffffff16815260200160018201548152602001600282018054611b09906132ad565b80601f0160208091040260200160405190810160405280929190818152602001828054611b35906132ad565b8015611b825780601f10611b5757610100808354040283529160200191611b82565b820191906000526020600020905b815481529060010190602001808311611b6557829003601f168201915b505050505081525050905092915050565b60606040518060400160405280600581526020017f68656c6c6f0000000000000000000000000000000000000000000000000000008152509050919050565b611bda6126f7565b60006040518060400160405280601081526020017f3031323334353637383961626364656600000000000000000000000000000000815250905060006040518060400160405280600181526020017f300000000000000000000000000000000000000000000000000000000000000081525090506000600385604051611c609190612db7565b90815260200160405180910390206040518060600160405290816000820160009054906101000a900473ffffffffffffffffffffffffffffffffffffffff1673ffffffffffffffffffffffffffffffffffffffff1673ffffffffffffffffffffffffffffffffffffffff16815260200160018201548152602001600282018054611ce9906132ad565b80601f0160208091040260200160405190810160405280929190818152602001828054611d15906132ad565b8015611d625780601f10611d3757610100808354040283529160200191611d62565b820191906000526020600020905b815481529060010190602001808311611d4557829003601f168201915b505050505081525050905060006004600387604051611d819190612db7565b908152602001604051809103902060010154611d9d91906130ac565b905060005b6010811015611f7857611db36126f7565b8360000151816000019073ffffffffffffffffffffffffffffffffffffffff16908173ffffffffffffffffffffffffffffffffffffffff16815250508281602001818152505083604001518160400181905250858281518110611e3f577f4e487b7100000000000000000000000000000000000000000000000000000000600052603260045260246000fd5b602001015160f81c60f81b85600081518110611e84577f4e487b7100000000000000000000000000000000000000000000000000000000600052603260045260246000fd5b60200101907effffffffffffffffffffffffffffffffffffffffffffffffffffffffffffff1916908160001a9053508060038987604051602001611ec9929190612dce565b604051602081830303815290604052604051611ee59190612db7565b908152602001604051809103902060008201518160000160006101000a81548173ffffffffffffffffffffffffffffffffffffffff021916908373ffffffffffffffffffffffffffffffffffffffff160217905550602082015181600101556040820151816002019080519060200190611f6092919061272e565b50905050508080611f7090613310565b915050611da2565b50600386604051611f899190612db7565b90815260200160405180910390206040518060600160405290816000820160009054906101000a900473ffffffffffffffffffffffffffffffffffffffff1673ffffffffffffffffffffffffffffffffffffffff1673ffffffffffffffffffffffffffffffffffffffff16815260200160018201548152602001600282018054612012906132ad565b80601f016020809104026020016040519081016040528092919081815260200182805461203e906132ad565b801561208b5780601f106120605761010080835404028352916020019161208b565b820191906000526020600020905b81548152906001019060200180831161206e57829003601f168201915b505050505081525050945050505050919050565b60006120aa826124a2565b6003836040516120ba9190612db7565b9081526020016040518091039020600101546120d69190613056565b9050919050565b6000600154905090565b6120ef6126f7565b3373ffffffffffffffffffffffffffffffffffffffff166003846040516121169190612db7565b908152602001604051809103902060000160009054906101000a900473ffffffffffffffffffffffffffffffffffffffff1673ffffffffffffffffffffffffffffffffffffffff16146040518060400160405280601d81526020017f71756164206973206e6f74206f6620796f75722070726f706572747921000000815250906121d6576040517f08c379a00000000000000000000000000000000000000000000000000000000081526004016121cd9190612e9c565b60405180910390fd5b5060006003846040516121e99190612db7565b908152602001604051809103902060010154836122069190613137565b905061221284826125fe565b6003846040516122229190612db7565b90815260200160405180910390206040518060600160405290816000820160009054906101000a900473ffffffffffffffffffffffffffffffffffffffff1673ffffffffffffffffffffffffffffffffffffffff1673ffffffffffffffffffffffffffffffffffffffff168152602001600182015481526020016002820180546122ab906132ad565b80601f01602080910402602001604051908101604052809291908181526020018280546122d7906132ad565b80156123245780601f106122f957610100808354040283529160200191612324565b820191906000526020600020905b81548152906001019060200180831161230757829003601f168201915b50505050508152505091505092915050565b60015481565b6060600082905060006001825161235391906131cb565b905060008167ffffffffffffffff811115612397577f4e487b7100000000000000000000000000000000000000000000000000000000600052604160045260246000fd5b6040519080825280601f01601f1916602001820160405280156123c95781602001600182028036833780820191505090505b50905060005b8281101561249657838181518110612410577f4e487b7100000000000000000000000000000000000000000000000000000000600052603260045260246000fd5b602001015160f81c60f81b828281518110612454577f4e487b7100000000000000000000000000000000000000000000000000000000600052603260045260246000fd5b60200101907effffffffffffffffffffffffffffffffffffffffffffffffffffffffffffff1916908160001a905350808061248e90613310565b9150506123cf565b50809350505050919050565b600060206001546003846040516124b99190612db7565b9081526020016040518091039020600101546124d591906130dd565b901c9050919050565b6060600280546124ed906132ad565b80601f0160208091040260200160405190810160405280929190818152602001828054612519906132ad565b80156125665780601f1061253b57610100808354040283529160200191612566565b820191906000526020600020905b81548152906001019060200180831161254957829003601f168201915b5050505050905090565b6002805461257d906132ad565b80601f01602080910402602001604051908101604052809291908181526020018280546125a9906132ad565b80156125f65780601f106125cb576101008083540402835291602001916125f6565b820191906000526020600020905b8154815290600101906020018083116125d957829003601f168201915b505050505081565b8060038360405161260f9190612db7565b90815260200160405180910390206001015461262b9190612fc2565b60038360405161263b9190612db7565b90815260200160405180910390206001018190555060008251111561266d5761266c6126668361233c565b826125fe565b5b5050565b82805461267d906132ad565b90600052602060002090601f01602090048101928261269f57600085556126e6565b82601f106126b857803560ff19168380011785556126e6565b828001600101855582156126e6579182015b828111156126e55782358255916020019190600101906126ca565b5b5090506126f391906127f4565b5090565b6040518060600160405280600073ffffffffffffffffffffffffffffffffffffffff16815260200160008152602001606081525090565b82805461273a906132ad565b90600052602060002090601f01602090048101928261275c57600085556127a3565b82601f1061277557805160ff19168380011785556127a3565b828001600101855582156127a3579182015b828111156127a2578251825591602001919060010190612787565b5b5090506127b091906127f4565b5090565b5080546127c0906132ad565b6000825580601f106127d257506127f1565b601f0160209004906000526020600020908101906127f091906127f4565b5b50565b5b8082111561280d5760008160009055506001016127f5565b5090565b600061282461281f84612f20565b612efb565b90508281526020810184848401111561283c57600080fd5b61284784828561326b565b509392505050565b60008135905061285e816134ca565b92915050565b600081359050612873816134e1565b92915050565b60008083601f84011261288b57600080fd5b8235905067ffffffffffffffff8111156128a457600080fd5b6020830191508360018202830111156128bc57600080fd5b9250929050565b600082601f8301126128d457600080fd5b81356128e4848260208601612811565b91505092915050565b6000813590506128fc816134f8565b92915050565b6000813590506129118161350f565b92915050565b60006020828403121561292957600080fd5b60006129378482850161284f565b91505092915050565b6000806020838503121561295357600080fd5b600083013567ffffffffffffffff81111561296d57600080fd5b61297985828601612879565b92509250509250929050565b60006020828403121561299757600080fd5b600082013567ffffffffffffffff8111156129b157600080fd5b6129bd848285016128c3565b91505092915050565b600080604083850312156129d957600080fd5b600083013567ffffffffffffffff8111156129f357600080fd5b6129ff858286016128c3565b9250506020612a1085828601612864565b9150509250929050565b600080600060608486031215612a2f57600080fd5b600084013567ffffffffffffffff811115612a4957600080fd5b612a55868287016128c3565b9350506020612a6686828701612864565b925050604084013567ffffffffffffffff811115612a8357600080fd5b612a8f868287016128c3565b9150509250925092565b60008060408385031215612aac57600080fd5b600083013567ffffffffffffffff811115612ac657600080fd5b612ad2858286016128c3565b925050602083013567ffffffffffffffff811115612aef57600080fd5b612afb858286016128c3565b9150509250929050565b60008060408385031215612b1857600080fd5b600083013567ffffffffffffffff811115612b3257600080fd5b612b3e858286016128c3565b9250506020612b4f858286016128ed565b9150509250929050565b600060208284031215612b6b57600080fd5b6000612b7984828501612902565b91505092915050565b6000612b8e8383612c1a565b905092915050565b612b9f81613211565b82525050565b6000612bb082612f61565b612bba8185612f84565b935083602082028501612bcc85612f51565b8060005b85811015612c085784840389528151612be98582612b82565b9450612bf483612f77565b925060208a01995050600181019050612bd0565b50829750879550505050505092915050565b6000612c2582612f6c565b612c2f8185612f95565b9350612c3f81856020860161327a565b612c4881613415565b840191505092915050565b6000612c5e82612f6c565b612c688185612fa6565b9350612c7881856020860161327a565b612c8181613415565b840191505092915050565b6000612c9782612f6c565b612ca18185612fb7565b9350612cb181856020860161327a565b80840191505092915050565b6000612cca600283612fb7565b9150612cd582613426565b600282019050919050565b6000612ced600283612fb7565b9150612cf88261344f565b600282019050919050565b6000612d10600283612fb7565b9150612d1b82613478565b600282019050919050565b6000612d33600283612fb7565b9150612d3e826134a1565b600282019050919050565b6000606083016000830151612d616000860182612b96565b506020830151612d746020860182612d99565b5060408301518482036040860152612d8c8282612c1a565b9150508091505092915050565b612da28161324d565b82525050565b612db18161324d565b82525050565b6000612dc38284612c8c565b915081905092915050565b6000612dda8285612c8c565b9150612de68284612c8c565b91508190509392505050565b6000612dfe8284612c8c565b9150612e0982612cbd565b915081905092915050565b6000612e208284612c8c565b9150612e2b82612ce0565b915081905092915050565b6000612e428284612c8c565b9150612e4d82612d03565b915081905092915050565b6000612e648284612c8c565b9150612e6f82612d26565b915081905092915050565b60006020820190508181036000830152612e948184612ba5565b905092915050565b60006020820190508181036000830152612eb68184612c53565b905092915050565b60006020820190508181036000830152612ed88184612d49565b905092915050565b6000602082019050612ef56000830184612da8565b92915050565b6000612f05612f16565b9050612f1182826132df565b919050565b6000604051905090565b600067ffffffffffffffff821115612f3b57612f3a6133e6565b5b612f4482613415565b9050602081019050919050565b6000819050602082019050919050565b600081519050919050565b600081519050919050565b6000602082019050919050565b600082825260208201905092915050565b600082825260208201905092915050565b600082825260208201905092915050565b600081905092915050565b6000612fcd82613223565b9150612fd883613223565b9250817f7fffffffffffffffffffffffffffffffffffffffffffffffffffffffffffffff0383136000831215161561301357613012613359565b5b817f800000000000000000000000000000000000000000000000000000000000000003831260008312161561304b5761304a613359565b5b828201905092915050565b60006130618261324d565b915061306c8361324d565b9250827fffffffffffffffffffffffffffffffffffffffffffffffffffffffffffffffff038211156130a1576130a0613359565b5b828201905092915050565b60006130b78261324d565b91506130c28361324d565b9250826130d2576130d1613388565b5b828204905092915050565b60006130e88261324d565b91506130f38361324d565b9250817fffffffffffffffffffffffffffffffffffffffffffffffffffffffffffffffff048311821515161561312c5761312b613359565b5b828202905092915050565b600061314282613223565b915061314d83613223565b9250827f80000000000000000000000000000000000000000000000000000000000000000182126000841215161561318857613187613359565b5b827f7fffffffffffffffffffffffffffffffffffffffffffffffffffffffffffffff0182136000841216156131c0576131bf613359565b5b828203905092915050565b60006131d68261324d565b91506131e18361324d565b9250828210156131f4576131f3613359565b5b828203905092915050565b600061320a8261322d565b9050919050565b600061321c8261322d565b9050919050565b6000819050919050565b600073ffffffffffffffffffffffffffffffffffffffff82169050919050565b6000819050919050565b600067ffffffffffffffff82169050919050565b82818337600083830152505050565b60005b8381101561329857808201518184015260208101905061327d565b838111156132a7576000848401525b50505050565b600060028204905060018216806132c557607f821691505b602082108114156132d9576132d86133b7565b5b50919050565b6132e882613415565b810181811067ffffffffffffffff82111715613307576133066133e6565b5b80604052505050565b600061331b8261324d565b91507fffffffffffffffffffffffffffffffffffffffffffffffffffffffffffffffff82141561334e5761334d613359565b5b600182019050919050565b7f4e487b7100000000000000000000000000000000000000000000000000000000600052601160045260246000fd5b7f4e487b7100000000000000000000000000000000000000000000000000000000600052601260045260246000fd5b7f4e487b7100000000000000000000000000000000000000000000000000000000600052602260045260246000fd5b7f4e487b7100000000000000000000000000000000000000000000000000000000600052604160045260246000fd5b6000601f19601f8301169050919050565b7f3130000000000000000000000000000000000000000000000000000000000000600082015250565b7f3031000000000000000000000000000000000000000000000000000000000000600082015250565b7f3131000000000000000000000000000000000000000000000000000000000000600082015250565b7f3030000000000000000000000000000000000000000000000000000000000000600082015250565b6134d3816131ff565b81146134de57600080fd5b50565b6134ea81613223565b81146134f557600080fd5b50565b6135018161324d565b811461350c57600080fd5b50565b61351881613257565b811461352357600080fd5b5056fea2646970667358221220fc8da08f98d34d28514115b69fc77df68db8b058de2906ff52916a097139570f64736f6c63430008040033",
  "immutableReferences": {},
  "source": "// SPDX-License-Identifier: GPL-3.0\n\npragma solidity >=0.7.0 <0.9.0;\n\n/**\n * @title CryptoLand\n * @dev alex\n */\ncontract CryptoLand {\n\n    address payable private contractOwner=payable(address(0x5B38Da6a701c568545dCfcB03FcB875f56beddC4));\n    string constant _error_invalid_permission = \"invalid permission!\";\n    string constant _error_invalid_quad = \"invalid quad!\";\n    string constant _error_quad_not_your_property = \"quad is not of your property!\";\n    string constant _error_insufficient_amount=\"insufficient amount!\";\n    uint256 public fee=4294967;//0.1% expressed as range in 2^32 -> 0.001*(1<<32)\n    \n    string public greeting = \"hello\";\n    function sayHello() external view returns (string memory) {\n        return greeting;\n    }\n\n    function updateGreeting(string calldata _greeting) external {\n        greeting = _greeting;\n    }\n\n    \n    struct Land {\n        address payable owner;\n        uint256 price;\n        string content;\n    }\n    \n    \n    mapping(string=> Land) lands;\n    mapping(address=> string[]) properties;\n    \n    constructor() {\n        /*\n        lands[\"\"].owner=contractOwner;//payable(address(this));\n        lands[\"\"].price=1000000000000000000;\n        lands[\"\"].content=\"\";\n        properties[contractOwner].push(\"\");\n        */\n    }\n    \n    \n    //contract owner methods\n    function setFee(uint64 fee1e32) public  {\n        require(msg.sender==contractOwner,_error_invalid_permission);\n        fee=fee1e32;\n    }\n    \n    event BuyEvent(string quad);\n\n    //public methods\n    function buy(string memory quad) public payable  {\n        //require(lands[quad].owner!=address(0),_error_invalid_quad);\n        uint256 cost=getQuadCost(quad);\n        require(msg.value==cost,_error_insufficient_amount);\n        lands[quad].owner.transfer(lands[quad].price);\n        contractOwner.transfer(cost-lands[quad].price);\n        lands[quad].owner=payable(msg.sender);\n        updatePrice(quad,0);\n        emit BuyEvent(quad);\n    }\n\n    function getParent(string memory quad) public returns (string memory)\n    {\n        bytes memory bq= bytes(quad);\n        uint l=bq.length-1;\n        bytes memory result = new bytes(l);\n        for(uint i = 0; i < l; i++) {\n            result[i] = bq[i];\n        }\n        return string(result);\n    }\n    \n    function updatePrice(string memory quad,int256 delta) private{\n        lands[quad].price=uint256(int256(lands[quad].price)+delta);\n        if (bytes(quad).length>0)\n            updatePrice(getParent(quad),delta);\n    }\n\n    \n    \n    function getQuad(string memory quad) public returns (Land memory) {\n        //require(lands[quad].owner!=address(0),_error_invalid_quad);\n        return lands[quad];\n    }\n\n    function hello(string memory quad) public returns (string memory) {\n        return (\"hello\");\n    }\n\n    function getQuadFee(string memory quad) public returns (uint256)\n    {\n       return (lands[quad].price*fee)>>32;\n    }\n    \n    \n    function getQuadCost(string memory quad) public returns (uint256)\n    {\n       return lands[quad].price+getQuadFee(quad);\n    }\n    \n    function getFee() public returns (uint256) {\n        return fee;\n    }\n\n    function setQuad(string memory quad,int256 price,string memory content) public returns  (Land memory) {\n        require(lands[quad].owner!=address(0),_error_invalid_quad);\n        require(lands[quad].owner==msg.sender,_error_quad_not_your_property);\n        int256 delta=int256(price)-int256(lands[quad].price);\n        updatePrice(quad,delta);\n        lands[quad].content=content;\n        return (lands[quad]);\n    }\n    \n    //land owner methods\n    function setContent(string memory quad,string memory content) public returns  (Land memory) {\n        require(lands[quad].owner!=address(0),_error_invalid_quad);\n        require(lands[quad].owner==msg.sender,_error_quad_not_your_property);\n        lands[quad].content=content;\n        return (lands[quad]);\n    }\n    \n    function setPrice(string memory quad,int256 price) public returns  (Land memory) {\n        //require(lands[quad].owner!=address(0),_error_invalid_quad);\n        require(lands[quad].owner==msg.sender,_error_quad_not_your_property);\n        int256 delta=int256(price)-int256(lands[quad].price);\n        updatePrice(quad,delta);\n        return (lands[quad]);\n    }\n    \n    function split(string memory quad) public returns (Land memory) {\n        require(lands[quad].owner!=address(0),_error_invalid_quad);\n        require(lands[quad].owner==msg.sender,_error_quad_not_your_property);\n        Land memory l;\n        l.owner=lands[quad].owner;\n        l.price=lands[quad].price/4;\n        l.content=lands[quad].content;\n        lands[string(abi.encodePacked(quad,\"00\"))]=l;\n        lands[string(abi.encodePacked(quad,\"01\"))]=l;\n        lands[string(abi.encodePacked(quad,\"10\"))]=l;\n        lands[string(abi.encodePacked(quad,\"11\"))]=l;\n        delete lands[quad];\n        return (lands[quad]);\n    }\n    \n    function split2(string memory quad) public  returns (Land memory) {\n        bytes memory alphabet = \"0123456789abcdef\";\n        bytes memory s=\"0\";\n\n        Land memory lp=lands[quad];\n        uint price=lands[quad].price/4;\n        for (uint i=0; i<16; i++) {\n            Land memory l;\n            l.owner=lp.owner;\n            l.price=price;\n            l.content=lp.content;\n            s[0]=alphabet[i];\n            lands[string(abi.encodePacked(quad,string(s)))]=l;\n        }\n        return (lands[quad]);\n    }\n    \n    \n    function appendS(string memory quad,uint i) public returns (string memory) {\n        bytes memory alphabet = \"0123456789abcdef\";\n        bytes memory s=\"0\";\n        s[0]=alphabet[i];\n       return string(abi.encodePacked(quad,string(s)));\n    }\n    \n    function getProperties(address o) public returns (string[] memory) {\n       return properties[o];\n    }\n\n   function getLand(string memory quad) public returns (Land memory) {\n       return lands[quad];\n    }\n}",
  "sourcePath": "/home/alex/projetti/CryptoLand/CryptoLand/contracts/CryptoLand.sol",
  "compiler": {
    "name": "solc",
    "version": "0.8.4+commit.c7e474f2.Emscripten.clang"
  },
  "schemaVersion": "3.4.1",
  "updatedAt": "2021-06-11T17:51:38.405Z",
  "networkType": "ethereum",
  "devdoc": {
    "details": "alex",
    "kind": "dev",
    "methods": {},
    "title": "CryptoLand",
    "version": 1
  },
  "userdoc": {
    "kind": "user",
    "methods": {},
    "version": 1
  }
}